{
	"contracts/StorageFactory.sol": {
		"StorageFactory": {
			"abi": [
				{
					"inputs": [],
					"name": "createSimpleStorageContract",
					"outputs": [],
					"stateMutability": "nonpayable",
					"type": "function"
				},
				{
					"inputs": [
						{
							"internalType": "uint256",
							"name": "_simpleStorageIndex",
							"type": "uint256"
						}
					],
					"name": "sfGet",
					"outputs": [
						{
							"internalType": "uint256",
							"name": "",
							"type": "uint256"
						}
					],
					"stateMutability": "view",
					"type": "function"
				},
				{
					"inputs": [
						{
							"internalType": "uint256",
							"name": "_simpleStorageIndex",
							"type": "uint256"
						},
						{
							"internalType": "uint256",
							"name": "_simpleStorageNumber",
							"type": "uint256"
						}
					],
					"name": "sfstore",
					"outputs": [],
					"stateMutability": "nonpayable",
					"type": "function"
				},
				{
					"inputs": [
						{
							"internalType": "uint256",
							"name": "",
							"type": "uint256"
						}
					],
					"name": "simpleStorageArray",
					"outputs": [
						{
							"internalType": "contract SimpleStorage",
							"name": "",
							"type": "address"
						}
					],
					"stateMutability": "view",
					"type": "function"
				}
			],
			"devdoc": {
				"kind": "dev",
				"methods": {},
				"version": 1
			},
			"evm": {
				"assembly": "    /* \"contracts/StorageFactory.sol\":90:787  contract StorageFactory {... */\n  mstore(0x40, 0x80)\n  callvalue\n  dup1\n  iszero\n  tag_1\n  jumpi\n  0x00\n  dup1\n  revert\ntag_1:\n  pop\n  dataSize(sub_0)\n  dup1\n  dataOffset(sub_0)\n  0x00\n  codecopy\n  0x00\n  return\nstop\n\nsub_0: assembly {\n        /* \"contracts/StorageFactory.sol\":90:787  contract StorageFactory {... */\n      mstore(0x40, 0x80)\n      callvalue\n      dup1\n      iszero\n      tag_1\n      jumpi\n      0x00\n      dup1\n      revert\n    tag_1:\n      pop\n      jumpi(tag_2, lt(calldatasize, 0x04))\n      shr(0xe0, calldataload(0x00))\n      dup1\n      0x1dda6541\n      eq\n      tag_3\n      jumpi\n      dup1\n      0x64591bf1\n      eq\n      tag_4\n      jumpi\n      dup1\n      0xc5f19c20\n      eq\n      tag_5\n      jumpi\n      dup1\n      0xcaec2a5a\n      eq\n      tag_6\n      jumpi\n    tag_2:\n      0x00\n      dup1\n      revert\n        /* \"contracts/StorageFactory.sol\":169:328  function createSimpleStorageContract() public {... */\n    tag_3:\n      tag_7\n      tag_8\n      jump\t// in\n    tag_7:\n      stop\n        /* \"contracts/StorageFactory.sol\":121:162  SimpleStorage[] public simpleStorageArray */\n    tag_4:\n      tag_9\n      0x04\n      dup1\n      calldatasize\n      sub\n      dup2\n      add\n      swap1\n      tag_10\n      swap2\n      swap1\n      tag_11\n      jump\t// in\n    tag_10:\n      tag_12\n      jump\t// in\n    tag_9:\n      mload(0x40)\n      tag_13\n      swap2\n      swap1\n      tag_14\n      jump\t// in\n    tag_13:\n      mload(0x40)\n      dup1\n      swap2\n      sub\n      swap1\n      return\n        /* \"contracts/StorageFactory.sol\":633:784  function sfGet(uint256 _simpleStorageIndex) public view returns(uint256){... */\n    tag_5:\n      tag_15\n      0x04\n      dup1\n      calldatasize\n      sub\n      dup2\n      add\n      swap1\n      tag_16\n      swap2\n      swap1\n      tag_11\n      jump\t// in\n    tag_16:\n      tag_17\n      jump\t// in\n    tag_15:\n      mload(0x40)\n      tag_18\n      swap2\n      swap1\n      tag_19\n      jump\t// in\n    tag_18:\n      mload(0x40)\n      dup1\n      swap2\n      sub\n      swap1\n      return\n        /* \"contracts/StorageFactory.sol\":336:625  function sfstore(uint256 _simpleStorageIndex, uint256 _simpleStorageNumber) public {... */\n    tag_6:\n      tag_20\n      0x04\n      dup1\n      calldatasize\n      sub\n      dup2\n      add\n      swap1\n      tag_21\n      swap2\n      swap1\n      tag_22\n      jump\t// in\n    tag_21:\n      tag_23\n      jump\t// in\n    tag_20:\n      stop\n        /* \"contracts/StorageFactory.sol\":169:328  function createSimpleStorageContract() public {... */\n    tag_8:\n        /* \"contracts/StorageFactory.sol\":225:252  SimpleStorage simpleStorage */\n      0x00\n        /* \"contracts/StorageFactory.sol\":253:272  new SimpleStorage() */\n      mload(0x40)\n      tag_25\n      swap1\n      tag_26\n      jump\t// in\n    tag_25:\n      mload(0x40)\n      dup1\n      swap2\n      sub\n      swap1\n      0x00\n      create\n      dup1\n      iszero\n      dup1\n      iszero\n      tag_27\n      jumpi\n      returndatasize\n      0x00\n      dup1\n      returndatacopy\n      revert(0x00, returndatasize)\n    tag_27:\n      pop\n        /* \"contracts/StorageFactory.sol\":225:272  SimpleStorage simpleStorage=new SimpleStorage() */\n      swap1\n      pop\n        /* \"contracts/StorageFactory.sol\":282:300  simpleStorageArray */\n      0x00\n        /* \"contracts/StorageFactory.sol\":306:319  simpleStorage */\n      dup2\n        /* \"contracts/StorageFactory.sol\":282:320  simpleStorageArray.push(simpleStorage) */\n      swap1\n      dup1\n      0x01\n      dup2\n      sload\n      add\n      dup1\n      dup3\n      sstore\n      dup1\n      swap2\n      pop\n      pop\n      0x01\n      swap1\n      sub\n      swap1\n      0x00\n      mstore\n      keccak256(0x00, 0x20)\n      add\n      0x00\n      swap1\n      swap2\n      swap1\n      swap2\n      swap1\n      swap2\n      0x0100\n      exp\n      dup2\n      sload\n      dup2\n      0xffffffffffffffffffffffffffffffffffffffff\n      mul\n      not\n      and\n      swap1\n      dup4\n      0xffffffffffffffffffffffffffffffffffffffff\n      and\n      mul\n      or\n      swap1\n      sstore\n      pop\n        /* \"contracts/StorageFactory.sol\":215:328  {... */\n      pop\n        /* \"contracts/StorageFactory.sol\":169:328  function createSimpleStorageContract() public {... */\n      jump\t// out\n        /* \"contracts/StorageFactory.sol\":121:162  SimpleStorage[] public simpleStorageArray */\n    tag_12:\n      0x00\n      dup2\n      dup2\n      sload\n      dup2\n      lt\n      tag_29\n      jumpi\n      0x00\n      dup1\n      revert\n    tag_29:\n      swap1\n      0x00\n      mstore\n      keccak256(0x00, 0x20)\n      add\n      0x00\n      swap2\n      pop\n      sload\n      swap1\n      0x0100\n      exp\n      swap1\n      div\n      0xffffffffffffffffffffffffffffffffffffffff\n      and\n      dup2\n      jump\t// out\n        /* \"contracts/StorageFactory.sol\":633:784  function sfGet(uint256 _simpleStorageIndex) public view returns(uint256){... */\n    tag_17:\n        /* \"contracts/StorageFactory.sol\":697:704  uint256 */\n      0x00\n        /* \"contracts/StorageFactory.sol\":716:734  simpleStorageArray */\n      dup1\n        /* \"contracts/StorageFactory.sol\":735:754  _simpleStorageIndex */\n      dup3\n        /* \"contracts/StorageFactory.sol\":716:755  simpleStorageArray[_simpleStorageIndex] */\n      dup2\n      sload\n      dup2\n      lt\n      tag_32\n      jumpi\n      tag_33\n      tag_34\n      jump\t// in\n    tag_33:\n    tag_32:\n      swap1\n      0x00\n      mstore\n      keccak256(0x00, 0x20)\n      add\n      0x00\n      swap1\n      sload\n      swap1\n      0x0100\n      exp\n      swap1\n      div\n      0xffffffffffffffffffffffffffffffffffffffff\n      and\n        /* \"contracts/StorageFactory.sol\":716:764  simpleStorageArray[_simpleStorageIndex].retrieve */\n      0xffffffffffffffffffffffffffffffffffffffff\n      and\n      0x2e64cec1\n        /* \"contracts/StorageFactory.sol\":716:766  simpleStorageArray[_simpleStorageIndex].retrieve() */\n      mload(0x40)\n      dup2\n      0xffffffff\n      and\n      0xe0\n      shl\n      dup2\n      mstore\n      0x04\n      add\n      0x20\n      mload(0x40)\n      dup1\n      dup4\n      sub\n      dup2\n      dup7\n      gas\n      staticcall\n      iszero\n      dup1\n      iszero\n      tag_37\n      jumpi\n      returndatasize\n      0x00\n      dup1\n      returndatacopy\n      revert(0x00, returndatasize)\n    tag_37:\n      pop\n      pop\n      pop\n      pop\n      mload(0x40)\n      returndatasize\n      not(0x1f)\n      0x1f\n      dup3\n      add\n      and\n      dup3\n      add\n      dup1\n      0x40\n      mstore\n      pop\n      dup2\n      add\n      swap1\n      tag_38\n      swap2\n      swap1\n      tag_39\n      jump\t// in\n    tag_38:\n      pop\n        /* \"contracts/StorageFactory.sol\":633:784  function sfGet(uint256 _simpleStorageIndex) public view returns(uint256){... */\n      swap2\n      swap1\n      pop\n      jump\t// out\n        /* \"contracts/StorageFactory.sol\":336:625  function sfstore(uint256 _simpleStorageIndex, uint256 _simpleStorageNumber) public {... */\n    tag_23:\n        /* \"contracts/StorageFactory.sol\":496:523  SimpleStorage simpleStorage */\n      0x00\n        /* \"contracts/StorageFactory.sol\":526:544  simpleStorageArray */\n      dup1\n        /* \"contracts/StorageFactory.sol\":545:564  _simpleStorageIndex */\n      dup4\n        /* \"contracts/StorageFactory.sol\":526:565  simpleStorageArray[_simpleStorageIndex] */\n      dup2\n      sload\n      dup2\n      lt\n      tag_41\n      jumpi\n      tag_42\n      tag_34\n      jump\t// in\n    tag_42:\n    tag_41:\n      swap1\n      0x00\n      mstore\n      keccak256(0x00, 0x20)\n      add\n      0x00\n      swap1\n      sload\n      swap1\n      0x0100\n      exp\n      swap1\n      div\n      0xffffffffffffffffffffffffffffffffffffffff\n      and\n        /* \"contracts/StorageFactory.sol\":496:565  SimpleStorage simpleStorage = simpleStorageArray[_simpleStorageIndex] */\n      swap1\n      pop\n        /* \"contracts/StorageFactory.sol\":576:589  simpleStorage */\n      dup1\n        /* \"contracts/StorageFactory.sol\":576:595  simpleStorage.store */\n      0xffffffffffffffffffffffffffffffffffffffff\n      and\n      0x6057361d\n        /* \"contracts/StorageFactory.sol\":596:616  _simpleStorageNumber */\n      dup4\n        /* \"contracts/StorageFactory.sol\":576:617  simpleStorage.store(_simpleStorageNumber) */\n      mload(0x40)\n      dup3\n      0xffffffff\n      and\n      0xe0\n      shl\n      dup2\n      mstore\n      0x04\n      add\n      tag_44\n      swap2\n      swap1\n      tag_19\n      jump\t// in\n    tag_44:\n      0x00\n      mload(0x40)\n      dup1\n      dup4\n      sub\n      dup2\n      0x00\n      dup8\n      dup1\n      extcodesize\n      iszero\n      dup1\n      iszero\n      tag_45\n      jumpi\n      0x00\n      dup1\n      revert\n    tag_45:\n      pop\n      gas\n      call\n      iszero\n      dup1\n      iszero\n      tag_47\n      jumpi\n      returndatasize\n      0x00\n      dup1\n      returndatacopy\n      revert(0x00, returndatasize)\n    tag_47:\n      pop\n      pop\n      pop\n      pop\n        /* \"contracts/StorageFactory.sol\":419:625  {... */\n      pop\n        /* \"contracts/StorageFactory.sol\":336:625  function sfstore(uint256 _simpleStorageIndex, uint256 _simpleStorageNumber) public {... */\n      pop\n      pop\n      jump\t// out\n    tag_26:\n      dataSize(sub_0)\n      dup1\n      dataOffset(sub_0)\n      dup4\n      codecopy\n      add\n      swap1\n      jump\t// out\n        /* \"#utility.yul\":88:205   */\n    tag_49:\n        /* \"#utility.yul\":197:198   */\n      0x00\n        /* \"#utility.yul\":194:195   */\n      dup1\n        /* \"#utility.yul\":187:199   */\n      revert\n        /* \"#utility.yul\":334:411   */\n    tag_51:\n        /* \"#utility.yul\":371:378   */\n      0x00\n        /* \"#utility.yul\":400:405   */\n      dup2\n        /* \"#utility.yul\":389:405   */\n      swap1\n      pop\n        /* \"#utility.yul\":334:411   */\n      swap2\n      swap1\n      pop\n      jump\t// out\n        /* \"#utility.yul\":417:539   */\n    tag_52:\n        /* \"#utility.yul\":490:514   */\n      tag_68\n        /* \"#utility.yul\":508:513   */\n      dup2\n        /* \"#utility.yul\":490:514   */\n      tag_51\n      jump\t// in\n    tag_68:\n        /* \"#utility.yul\":483:488   */\n      dup2\n        /* \"#utility.yul\":480:515   */\n      eq\n        /* \"#utility.yul\":470:533   */\n      tag_69\n      jumpi\n        /* \"#utility.yul\":529:530   */\n      0x00\n        /* \"#utility.yul\":526:527   */\n      dup1\n        /* \"#utility.yul\":519:531   */\n      revert\n        /* \"#utility.yul\":470:533   */\n    tag_69:\n        /* \"#utility.yul\":417:539   */\n      pop\n      jump\t// out\n        /* \"#utility.yul\":545:684   */\n    tag_53:\n        /* \"#utility.yul\":591:596   */\n      0x00\n        /* \"#utility.yul\":629:635   */\n      dup2\n        /* \"#utility.yul\":616:636   */\n      calldataload\n        /* \"#utility.yul\":607:636   */\n      swap1\n      pop\n        /* \"#utility.yul\":645:678   */\n      tag_71\n        /* \"#utility.yul\":672:677   */\n      dup2\n        /* \"#utility.yul\":645:678   */\n      tag_52\n      jump\t// in\n    tag_71:\n        /* \"#utility.yul\":545:684   */\n      swap3\n      swap2\n      pop\n      pop\n      jump\t// out\n        /* \"#utility.yul\":690:1019   */\n    tag_11:\n        /* \"#utility.yul\":749:755   */\n      0x00\n        /* \"#utility.yul\":798:800   */\n      0x20\n        /* \"#utility.yul\":786:795   */\n      dup3\n        /* \"#utility.yul\":777:784   */\n      dup5\n        /* \"#utility.yul\":773:796   */\n      sub\n        /* \"#utility.yul\":769:801   */\n      slt\n        /* \"#utility.yul\":766:885   */\n      iszero\n      tag_73\n      jumpi\n        /* \"#utility.yul\":804:883   */\n      tag_74\n      tag_49\n      jump\t// in\n    tag_74:\n        /* \"#utility.yul\":766:885   */\n    tag_73:\n        /* \"#utility.yul\":924:925   */\n      0x00\n        /* \"#utility.yul\":949:1002   */\n      tag_75\n        /* \"#utility.yul\":994:1001   */\n      dup5\n        /* \"#utility.yul\":985:991   */\n      dup3\n        /* \"#utility.yul\":974:983   */\n      dup6\n        /* \"#utility.yul\":970:992   */\n      add\n        /* \"#utility.yul\":949:1002   */\n      tag_53\n      jump\t// in\n    tag_75:\n        /* \"#utility.yul\":939:1002   */\n      swap2\n      pop\n        /* \"#utility.yul\":895:1012   */\n      pop\n        /* \"#utility.yul\":690:1019   */\n      swap3\n      swap2\n      pop\n      pop\n      jump\t// out\n        /* \"#utility.yul\":1025:1151   */\n    tag_54:\n        /* \"#utility.yul\":1062:1069   */\n      0x00\n        /* \"#utility.yul\":1102:1144   */\n      0xffffffffffffffffffffffffffffffffffffffff\n        /* \"#utility.yul\":1095:1100   */\n      dup3\n        /* \"#utility.yul\":1091:1145   */\n      and\n        /* \"#utility.yul\":1080:1145   */\n      swap1\n      pop\n        /* \"#utility.yul\":1025:1151   */\n      swap2\n      swap1\n      pop\n      jump\t// out\n        /* \"#utility.yul\":1157:1217   */\n    tag_55:\n        /* \"#utility.yul\":1185:1188   */\n      0x00\n        /* \"#utility.yul\":1206:1211   */\n      dup2\n        /* \"#utility.yul\":1199:1211   */\n      swap1\n      pop\n        /* \"#utility.yul\":1157:1217   */\n      swap2\n      swap1\n      pop\n      jump\t// out\n        /* \"#utility.yul\":1223:1365   */\n    tag_56:\n        /* \"#utility.yul\":1273:1282   */\n      0x00\n        /* \"#utility.yul\":1306:1359   */\n      tag_79\n        /* \"#utility.yul\":1324:1358   */\n      tag_80\n        /* \"#utility.yul\":1333:1357   */\n      tag_81\n        /* \"#utility.yul\":1351:1356   */\n      dup5\n        /* \"#utility.yul\":1333:1357   */\n      tag_54\n      jump\t// in\n    tag_81:\n        /* \"#utility.yul\":1324:1358   */\n      tag_55\n      jump\t// in\n    tag_80:\n        /* \"#utility.yul\":1306:1359   */\n      tag_54\n      jump\t// in\n    tag_79:\n        /* \"#utility.yul\":1293:1359   */\n      swap1\n      pop\n        /* \"#utility.yul\":1223:1365   */\n      swap2\n      swap1\n      pop\n      jump\t// out\n        /* \"#utility.yul\":1371:1497   */\n    tag_57:\n        /* \"#utility.yul\":1421:1430   */\n      0x00\n        /* \"#utility.yul\":1454:1491   */\n      tag_83\n        /* \"#utility.yul\":1485:1490   */\n      dup3\n        /* \"#utility.yul\":1454:1491   */\n      tag_56\n      jump\t// in\n    tag_83:\n        /* \"#utility.yul\":1441:1491   */\n      swap1\n      pop\n        /* \"#utility.yul\":1371:1497   */\n      swap2\n      swap1\n      pop\n      jump\t// out\n        /* \"#utility.yul\":1503:1649   */\n    tag_58:\n        /* \"#utility.yul\":1573:1582   */\n      0x00\n        /* \"#utility.yul\":1606:1643   */\n      tag_85\n        /* \"#utility.yul\":1637:1642   */\n      dup3\n        /* \"#utility.yul\":1606:1643   */\n      tag_57\n      jump\t// in\n    tag_85:\n        /* \"#utility.yul\":1593:1643   */\n      swap1\n      pop\n        /* \"#utility.yul\":1503:1649   */\n      swap2\n      swap1\n      pop\n      jump\t// out\n        /* \"#utility.yul\":1655:1826   */\n    tag_59:\n        /* \"#utility.yul\":1762:1819   */\n      tag_87\n        /* \"#utility.yul\":1813:1818   */\n      dup2\n        /* \"#utility.yul\":1762:1819   */\n      tag_58\n      jump\t// in\n    tag_87:\n        /* \"#utility.yul\":1757:1760   */\n      dup3\n        /* \"#utility.yul\":1750:1820   */\n      mstore\n        /* \"#utility.yul\":1655:1826   */\n      pop\n      pop\n      jump\t// out\n        /* \"#utility.yul\":1832:2094   */\n    tag_14:\n        /* \"#utility.yul\":1945:1949   */\n      0x00\n        /* \"#utility.yul\":1983:1985   */\n      0x20\n        /* \"#utility.yul\":1972:1981   */\n      dup3\n        /* \"#utility.yul\":1968:1986   */\n      add\n        /* \"#utility.yul\":1960:1986   */\n      swap1\n      pop\n        /* \"#utility.yul\":1996:2087   */\n      tag_89\n        /* \"#utility.yul\":2084:2085   */\n      0x00\n        /* \"#utility.yul\":2073:2082   */\n      dup4\n        /* \"#utility.yul\":2069:2086   */\n      add\n        /* \"#utility.yul\":2060:2066   */\n      dup5\n        /* \"#utility.yul\":1996:2087   */\n      tag_59\n      jump\t// in\n    tag_89:\n        /* \"#utility.yul\":1832:2094   */\n      swap3\n      swap2\n      pop\n      pop\n      jump\t// out\n        /* \"#utility.yul\":2100:2218   */\n    tag_60:\n        /* \"#utility.yul\":2187:2211   */\n      tag_91\n        /* \"#utility.yul\":2205:2210   */\n      dup2\n        /* \"#utility.yul\":2187:2211   */\n      tag_51\n      jump\t// in\n    tag_91:\n        /* \"#utility.yul\":2182:2185   */\n      dup3\n        /* \"#utility.yul\":2175:2212   */\n      mstore\n        /* \"#utility.yul\":2100:2218   */\n      pop\n      pop\n      jump\t// out\n        /* \"#utility.yul\":2224:2446   */\n    tag_19:\n        /* \"#utility.yul\":2317:2321   */\n      0x00\n        /* \"#utility.yul\":2355:2357   */\n      0x20\n        /* \"#utility.yul\":2344:2353   */\n      dup3\n        /* \"#utility.yul\":2340:2358   */\n      add\n        /* \"#utility.yul\":2332:2358   */\n      swap1\n      pop\n        /* \"#utility.yul\":2368:2439   */\n      tag_93\n        /* \"#utility.yul\":2436:2437   */\n      0x00\n        /* \"#utility.yul\":2425:2434   */\n      dup4\n        /* \"#utility.yul\":2421:2438   */\n      add\n        /* \"#utility.yul\":2412:2418   */\n      dup5\n        /* \"#utility.yul\":2368:2439   */\n      tag_60\n      jump\t// in\n    tag_93:\n        /* \"#utility.yul\":2224:2446   */\n      swap3\n      swap2\n      pop\n      pop\n      jump\t// out\n        /* \"#utility.yul\":2452:2926   */\n    tag_22:\n        /* \"#utility.yul\":2520:2526   */\n      0x00\n        /* \"#utility.yul\":2528:2534   */\n      dup1\n        /* \"#utility.yul\":2577:2579   */\n      0x40\n        /* \"#utility.yul\":2565:2574   */\n      dup4\n        /* \"#utility.yul\":2556:2563   */\n      dup6\n        /* \"#utility.yul\":2552:2575   */\n      sub\n        /* \"#utility.yul\":2548:2580   */\n      slt\n        /* \"#utility.yul\":2545:2664   */\n      iszero\n      tag_95\n      jumpi\n        /* \"#utility.yul\":2583:2662   */\n      tag_96\n      tag_49\n      jump\t// in\n    tag_96:\n        /* \"#utility.yul\":2545:2664   */\n    tag_95:\n        /* \"#utility.yul\":2703:2704   */\n      0x00\n        /* \"#utility.yul\":2728:2781   */\n      tag_97\n        /* \"#utility.yul\":2773:2780   */\n      dup6\n        /* \"#utility.yul\":2764:2770   */\n      dup3\n        /* \"#utility.yul\":2753:2762   */\n      dup7\n        /* \"#utility.yul\":2749:2771   */\n      add\n        /* \"#utility.yul\":2728:2781   */\n      tag_53\n      jump\t// in\n    tag_97:\n        /* \"#utility.yul\":2718:2781   */\n      swap3\n      pop\n        /* \"#utility.yul\":2674:2791   */\n      pop\n        /* \"#utility.yul\":2830:2832   */\n      0x20\n        /* \"#utility.yul\":2856:2909   */\n      tag_98\n        /* \"#utility.yul\":2901:2908   */\n      dup6\n        /* \"#utility.yul\":2892:2898   */\n      dup3\n        /* \"#utility.yul\":2881:2890   */\n      dup7\n        /* \"#utility.yul\":2877:2899   */\n      add\n        /* \"#utility.yul\":2856:2909   */\n      tag_53\n      jump\t// in\n    tag_98:\n        /* \"#utility.yul\":2846:2909   */\n      swap2\n      pop\n        /* \"#utility.yul\":2801:2919   */\n      pop\n        /* \"#utility.yul\":2452:2926   */\n      swap3\n      pop\n      swap3\n      swap1\n      pop\n      jump\t// out\n        /* \"#utility.yul\":2932:3112   */\n    tag_34:\n        /* \"#utility.yul\":2980:3057   */\n      0x4e487b7100000000000000000000000000000000000000000000000000000000\n        /* \"#utility.yul\":2977:2978   */\n      0x00\n        /* \"#utility.yul\":2970:3058   */\n      mstore\n        /* \"#utility.yul\":3077:3081   */\n      0x32\n        /* \"#utility.yul\":3074:3075   */\n      0x04\n        /* \"#utility.yul\":3067:3082   */\n      mstore\n        /* \"#utility.yul\":3101:3105   */\n      0x24\n        /* \"#utility.yul\":3098:3099   */\n      0x00\n        /* \"#utility.yul\":3091:3106   */\n      revert\n        /* \"#utility.yul\":3118:3261   */\n    tag_61:\n        /* \"#utility.yul\":3175:3180   */\n      0x00\n        /* \"#utility.yul\":3206:3212   */\n      dup2\n        /* \"#utility.yul\":3200:3213   */\n      mload\n        /* \"#utility.yul\":3191:3213   */\n      swap1\n      pop\n        /* \"#utility.yul\":3222:3255   */\n      tag_101\n        /* \"#utility.yul\":3249:3254   */\n      dup2\n        /* \"#utility.yul\":3222:3255   */\n      tag_52\n      jump\t// in\n    tag_101:\n        /* \"#utility.yul\":3118:3261   */\n      swap3\n      swap2\n      pop\n      pop\n      jump\t// out\n        /* \"#utility.yul\":3267:3618   */\n    tag_39:\n        /* \"#utility.yul\":3337:3343   */\n      0x00\n        /* \"#utility.yul\":3386:3388   */\n      0x20\n        /* \"#utility.yul\":3374:3383   */\n      dup3\n        /* \"#utility.yul\":3365:3372   */\n      dup5\n        /* \"#utility.yul\":3361:3384   */\n      sub\n        /* \"#utility.yul\":3357:3389   */\n      slt\n        /* \"#utility.yul\":3354:3473   */\n      iszero\n      tag_103\n      jumpi\n        /* \"#utility.yul\":3392:3471   */\n      tag_104\n      tag_49\n      jump\t// in\n    tag_104:\n        /* \"#utility.yul\":3354:3473   */\n    tag_103:\n        /* \"#utility.yul\":3512:3513   */\n      0x00\n        /* \"#utility.yul\":3537:3601   */\n      tag_105\n        /* \"#utility.yul\":3593:3600   */\n      dup5\n        /* \"#utility.yul\":3584:3590   */\n      dup3\n        /* \"#utility.yul\":3573:3582   */\n      dup6\n        /* \"#utility.yul\":3569:3591   */\n      add\n        /* \"#utility.yul\":3537:3601   */\n      tag_61\n      jump\t// in\n    tag_105:\n        /* \"#utility.yul\":3527:3601   */\n      swap2\n      pop\n        /* \"#utility.yul\":3483:3611   */\n      pop\n        /* \"#utility.yul\":3267:3618   */\n      swap3\n      swap2\n      pop\n      pop\n      jump\t// out\n    stop\n\n    sub_0: assembly {\n            /* \"contracts/SimpleStorage.sol\":61:1116  contract SimpleStorage {... */\n          mstore(0x40, 0x80)\n          callvalue\n          dup1\n          iszero\n          tag_1\n          jumpi\n          0x00\n          dup1\n          revert\n        tag_1:\n          pop\n          dataSize(sub_0)\n          dup1\n          dataOffset(sub_0)\n          0x00\n          codecopy\n          0x00\n          return\n        stop\n\n        sub_0: assembly {\n                /* \"contracts/SimpleStorage.sol\":61:1116  contract SimpleStorage {... */\n              mstore(0x40, 0x80)\n              callvalue\n              dup1\n              iszero\n              tag_1\n              jumpi\n              0x00\n              dup1\n              revert\n            tag_1:\n              pop\n              jumpi(tag_2, lt(calldatasize, 0x04))\n              shr(0xe0, calldataload(0x00))\n              dup1\n              0x2e64cec1\n              eq\n              tag_3\n              jumpi\n              dup1\n              0x6057361d\n              eq\n              tag_4\n              jumpi\n              dup1\n              0x6f760f41\n              eq\n              tag_5\n              jumpi\n              dup1\n              0x8bab8dd5\n              eq\n              tag_6\n              jumpi\n              dup1\n              0x9e7a13ad\n              eq\n              tag_7\n              jumpi\n            tag_2:\n              0x00\n              dup1\n              revert\n                /* \"contracts/SimpleStorage.sol\":683:772  function retrieve() public view returns(uint256) {... */\n            tag_3:\n              tag_8\n              tag_9\n              jump\t// in\n            tag_8:\n              mload(0x40)\n              tag_10\n              swap2\n              swap1\n              tag_11\n              jump\t// in\n            tag_10:\n              mload(0x40)\n              dup1\n              swap2\n              sub\n              swap1\n              return\n                /* \"contracts/SimpleStorage.sol\":539:643  function store(uint256 _favoriteNumber)public{... */\n            tag_4:\n              tag_12\n              0x04\n              dup1\n              calldatasize\n              sub\n              dup2\n              add\n              swap1\n              tag_13\n              swap2\n              swap1\n              tag_14\n              jump\t// in\n            tag_13:\n              tag_15\n              jump\t// in\n            tag_12:\n              stop\n                /* \"contracts/SimpleStorage.sol\":778:1107  function addPerson(string memory _name, uint256 _favoriteNumber)public {... */\n            tag_5:\n              tag_16\n              0x04\n              dup1\n              calldatasize\n              sub\n              dup2\n              add\n              swap1\n              tag_17\n              swap2\n              swap1\n              tag_18\n              jump\t// in\n            tag_17:\n              tag_19\n              jump\t// in\n            tag_16:\n              stop\n                /* \"contracts/SimpleStorage.sol\":217:270  mapping(string=> uint256) public nameToFavoriteNumber */\n            tag_6:\n              tag_20\n              0x04\n              dup1\n              calldatasize\n              sub\n              dup2\n              add\n              swap1\n              tag_21\n              swap2\n              swap1\n              tag_22\n              jump\t// in\n            tag_21:\n              tag_23\n              jump\t// in\n            tag_20:\n              mload(0x40)\n              tag_24\n              swap2\n              swap1\n              tag_11\n              jump\t// in\n            tag_24:\n              mload(0x40)\n              dup1\n              swap2\n              sub\n              swap1\n              return\n                /* \"contracts/SimpleStorage.sol\":506:528  People[] public people */\n            tag_7:\n              tag_25\n              0x04\n              dup1\n              calldatasize\n              sub\n              dup2\n              add\n              swap1\n              tag_26\n              swap2\n              swap1\n              tag_14\n              jump\t// in\n            tag_26:\n              tag_27\n              jump\t// in\n            tag_25:\n              mload(0x40)\n              tag_28\n              swap3\n              swap2\n              swap1\n              tag_29\n              jump\t// in\n            tag_28:\n              mload(0x40)\n              dup1\n              swap2\n              sub\n              swap1\n              return\n                /* \"contracts/SimpleStorage.sol\":683:772  function retrieve() public view returns(uint256) {... */\n            tag_9:\n                /* \"contracts/SimpleStorage.sol\":723:730  uint256 */\n              0x00\n                /* \"contracts/SimpleStorage.sol\":750:764  favoriteNumber */\n              dup1\n              sload\n                /* \"contracts/SimpleStorage.sol\":743:764  return favoriteNumber */\n              swap1\n              pop\n                /* \"contracts/SimpleStorage.sol\":683:772  function retrieve() public view returns(uint256) {... */\n              swap1\n              jump\t// out\n                /* \"contracts/SimpleStorage.sol\":539:643  function store(uint256 _favoriteNumber)public{... */\n            tag_15:\n                /* \"contracts/SimpleStorage.sol\":610:625  _favoriteNumber */\n              dup1\n                /* \"contracts/SimpleStorage.sol\":595:609  favoriteNumber */\n              0x00\n                /* \"contracts/SimpleStorage.sol\":595:625  favoriteNumber=_favoriteNumber */\n              dup2\n              swap1\n              sstore\n              pop\n                /* \"contracts/SimpleStorage.sol\":539:643  function store(uint256 _favoriteNumber)public{... */\n              pop\n              jump\t// out\n                /* \"contracts/SimpleStorage.sol\":778:1107  function addPerson(string memory _name, uint256 _favoriteNumber)public {... */\n            tag_19:\n                /* \"contracts/SimpleStorage.sol\":988:994  people */\n              0x02\n                /* \"contracts/SimpleStorage.sol\":1000:1032  People( _favoriteNumber , _name) */\n              mload(0x40)\n              dup1\n              0x40\n              add\n              0x40\n              mstore\n              dup1\n                /* \"contracts/SimpleStorage.sol\":1008:1023  _favoriteNumber */\n              dup4\n                /* \"contracts/SimpleStorage.sol\":1000:1032  People( _favoriteNumber , _name) */\n              dup2\n              mstore\n              0x20\n              add\n                /* \"contracts/SimpleStorage.sol\":1026:1031  _name */\n              dup5\n                /* \"contracts/SimpleStorage.sol\":1000:1032  People( _favoriteNumber , _name) */\n              dup2\n              mstore\n              pop\n                /* \"contracts/SimpleStorage.sol\":988:1033  people.push(People( _favoriteNumber , _name)) */\n              swap1\n              dup1\n              0x01\n              dup2\n              sload\n              add\n              dup1\n              dup3\n              sstore\n              dup1\n              swap2\n              pop\n              pop\n              0x01\n              swap1\n              sub\n              swap1\n              0x00\n              mstore\n              keccak256(0x00, 0x20)\n              swap1\n              0x02\n              mul\n              add\n              0x00\n              swap1\n              swap2\n              swap1\n              swap2\n              swap1\n              swap2\n              pop\n              0x00\n              dup3\n              add\n              mload\n              dup2\n              0x00\n              add\n              sstore\n              0x20\n              dup3\n              add\n              mload\n              dup2\n              0x01\n              add\n              swap1\n              dup2\n              tag_34\n              swap2\n              swap1\n              tag_35\n              jump\t// in\n            tag_34:\n              pop\n              pop\n              pop\n                /* \"contracts/SimpleStorage.sol\":1084:1099  _favoriteNumber */\n              dup1\n                /* \"contracts/SimpleStorage.sol\":1056:1076  nameToFavoriteNumber */\n              0x01\n                /* \"contracts/SimpleStorage.sol\":1077:1082  _name */\n              dup4\n                /* \"contracts/SimpleStorage.sol\":1056:1083  nameToFavoriteNumber[_name] */\n              mload(0x40)\n              tag_36\n              swap2\n              swap1\n              tag_37\n              jump\t// in\n            tag_36:\n              swap1\n              dup2\n              mstore\n              0x20\n              add\n              mload(0x40)\n              dup1\n              swap2\n              sub\n              swap1\n              keccak256\n                /* \"contracts/SimpleStorage.sol\":1056:1099  nameToFavoriteNumber[_name]=_favoriteNumber */\n              dup2\n              swap1\n              sstore\n              pop\n                /* \"contracts/SimpleStorage.sol\":778:1107  function addPerson(string memory _name, uint256 _favoriteNumber)public {... */\n              pop\n              pop\n              jump\t// out\n                /* \"contracts/SimpleStorage.sol\":217:270  mapping(string=> uint256) public nameToFavoriteNumber */\n            tag_23:\n              0x01\n              dup2\n              dup1\n              mload\n              0x20\n              dup2\n              add\n              dup3\n              add\n              dup1\n              mload\n              dup5\n              dup3\n              mstore\n              0x20\n              dup4\n              add\n              0x20\n              dup6\n              add\n              keccak256\n              dup2\n              dup4\n              mstore\n              dup1\n              swap6\n              pop\n              pop\n              pop\n              pop\n              pop\n              pop\n              0x00\n              swap2\n              pop\n              swap1\n              pop\n              sload\n              dup2\n              jump\t// out\n                /* \"contracts/SimpleStorage.sol\":506:528  People[] public people */\n            tag_27:\n              0x02\n              dup2\n              dup2\n              sload\n              dup2\n              lt\n              tag_38\n              jumpi\n              0x00\n              dup1\n              revert\n            tag_38:\n              swap1\n              0x00\n              mstore\n              keccak256(0x00, 0x20)\n              swap1\n              0x02\n              mul\n              add\n              0x00\n              swap2\n              pop\n              swap1\n              pop\n              dup1\n              0x00\n              add\n              sload\n              swap1\n              dup1\n              0x01\n              add\n              dup1\n              sload\n              tag_40\n              swap1\n              tag_41\n              jump\t// in\n            tag_40:\n              dup1\n              0x1f\n              add\n              0x20\n              dup1\n              swap2\n              div\n              mul\n              0x20\n              add\n              mload(0x40)\n              swap1\n              dup2\n              add\n              0x40\n              mstore\n              dup1\n              swap3\n              swap2\n              swap1\n              dup2\n              dup2\n              mstore\n              0x20\n              add\n              dup3\n              dup1\n              sload\n              tag_42\n              swap1\n              tag_41\n              jump\t// in\n            tag_42:\n              dup1\n              iszero\n              tag_43\n              jumpi\n              dup1\n              0x1f\n              lt\n              tag_44\n              jumpi\n              0x0100\n              dup1\n              dup4\n              sload\n              div\n              mul\n              dup4\n              mstore\n              swap2\n              0x20\n              add\n              swap2\n              jump(tag_43)\n            tag_44:\n              dup3\n              add\n              swap2\n              swap1\n              0x00\n              mstore\n              keccak256(0x00, 0x20)\n              swap1\n            tag_45:\n              dup2\n              sload\n              dup2\n              mstore\n              swap1\n              0x01\n              add\n              swap1\n              0x20\n              add\n              dup1\n              dup4\n              gt\n              tag_45\n              jumpi\n              dup3\n              swap1\n              sub\n              0x1f\n              and\n              dup3\n              add\n              swap2\n            tag_43:\n              pop\n              pop\n              pop\n              pop\n              pop\n              swap1\n              pop\n              dup3\n              jump\t// out\n                /* \"#utility.yul\":7:84   */\n            tag_46:\n                /* \"#utility.yul\":44:51   */\n              0x00\n                /* \"#utility.yul\":73:78   */\n              dup2\n                /* \"#utility.yul\":62:78   */\n              swap1\n              pop\n                /* \"#utility.yul\":7:84   */\n              swap2\n              swap1\n              pop\n              jump\t// out\n                /* \"#utility.yul\":90:208   */\n            tag_47:\n                /* \"#utility.yul\":177:201   */\n              tag_88\n                /* \"#utility.yul\":195:200   */\n              dup2\n                /* \"#utility.yul\":177:201   */\n              tag_46\n              jump\t// in\n            tag_88:\n                /* \"#utility.yul\":172:175   */\n              dup3\n                /* \"#utility.yul\":165:202   */\n              mstore\n                /* \"#utility.yul\":90:208   */\n              pop\n              pop\n              jump\t// out\n                /* \"#utility.yul\":214:436   */\n            tag_11:\n                /* \"#utility.yul\":307:311   */\n              0x00\n                /* \"#utility.yul\":345:347   */\n              0x20\n                /* \"#utility.yul\":334:343   */\n              dup3\n                /* \"#utility.yul\":330:348   */\n              add\n                /* \"#utility.yul\":322:348   */\n              swap1\n              pop\n                /* \"#utility.yul\":358:429   */\n              tag_90\n                /* \"#utility.yul\":426:427   */\n              0x00\n                /* \"#utility.yul\":415:424   */\n              dup4\n                /* \"#utility.yul\":411:428   */\n              add\n                /* \"#utility.yul\":402:408   */\n              dup5\n                /* \"#utility.yul\":358:429   */\n              tag_47\n              jump\t// in\n            tag_90:\n                /* \"#utility.yul\":214:436   */\n              swap3\n              swap2\n              pop\n              pop\n              jump\t// out\n                /* \"#utility.yul\":442:517   */\n            tag_48:\n                /* \"#utility.yul\":475:481   */\n              0x00\n                /* \"#utility.yul\":508:510   */\n              0x40\n                /* \"#utility.yul\":502:511   */\n              mload\n                /* \"#utility.yul\":492:511   */\n              swap1\n              pop\n                /* \"#utility.yul\":442:517   */\n              swap1\n              jump\t// out\n                /* \"#utility.yul\":523:640   */\n            tag_49:\n                /* \"#utility.yul\":632:633   */\n              0x00\n                /* \"#utility.yul\":629:630   */\n              dup1\n                /* \"#utility.yul\":622:634   */\n              revert\n                /* \"#utility.yul\":646:763   */\n            tag_50:\n                /* \"#utility.yul\":755:756   */\n              0x00\n                /* \"#utility.yul\":752:753   */\n              dup1\n                /* \"#utility.yul\":745:757   */\n              revert\n                /* \"#utility.yul\":769:891   */\n            tag_51:\n                /* \"#utility.yul\":842:866   */\n              tag_95\n                /* \"#utility.yul\":860:865   */\n              dup2\n                /* \"#utility.yul\":842:866   */\n              tag_46\n              jump\t// in\n            tag_95:\n                /* \"#utility.yul\":835:840   */\n              dup2\n                /* \"#utility.yul\":832:867   */\n              eq\n                /* \"#utility.yul\":822:885   */\n              tag_96\n              jumpi\n                /* \"#utility.yul\":881:882   */\n              0x00\n                /* \"#utility.yul\":878:879   */\n              dup1\n                /* \"#utility.yul\":871:883   */\n              revert\n                /* \"#utility.yul\":822:885   */\n            tag_96:\n                /* \"#utility.yul\":769:891   */\n              pop\n              jump\t// out\n                /* \"#utility.yul\":897:1036   */\n            tag_52:\n                /* \"#utility.yul\":943:948   */\n              0x00\n                /* \"#utility.yul\":981:987   */\n              dup2\n                /* \"#utility.yul\":968:988   */\n              calldataload\n                /* \"#utility.yul\":959:988   */\n              swap1\n              pop\n                /* \"#utility.yul\":997:1030   */\n              tag_98\n                /* \"#utility.yul\":1024:1029   */\n              dup2\n                /* \"#utility.yul\":997:1030   */\n              tag_51\n              jump\t// in\n            tag_98:\n                /* \"#utility.yul\":897:1036   */\n              swap3\n              swap2\n              pop\n              pop\n              jump\t// out\n                /* \"#utility.yul\":1042:1371   */\n            tag_14:\n                /* \"#utility.yul\":1101:1107   */\n              0x00\n                /* \"#utility.yul\":1150:1152   */\n              0x20\n                /* \"#utility.yul\":1138:1147   */\n              dup3\n                /* \"#utility.yul\":1129:1136   */\n              dup5\n                /* \"#utility.yul\":1125:1148   */\n              sub\n                /* \"#utility.yul\":1121:1153   */\n              slt\n                /* \"#utility.yul\":1118:1237   */\n              iszero\n              tag_100\n              jumpi\n                /* \"#utility.yul\":1156:1235   */\n              tag_101\n              tag_49\n              jump\t// in\n            tag_101:\n                /* \"#utility.yul\":1118:1237   */\n            tag_100:\n                /* \"#utility.yul\":1276:1277   */\n              0x00\n                /* \"#utility.yul\":1301:1354   */\n              tag_102\n                /* \"#utility.yul\":1346:1353   */\n              dup5\n                /* \"#utility.yul\":1337:1343   */\n              dup3\n                /* \"#utility.yul\":1326:1335   */\n              dup6\n                /* \"#utility.yul\":1322:1344   */\n              add\n                /* \"#utility.yul\":1301:1354   */\n              tag_52\n              jump\t// in\n            tag_102:\n                /* \"#utility.yul\":1291:1354   */\n              swap2\n              pop\n                /* \"#utility.yul\":1247:1364   */\n              pop\n                /* \"#utility.yul\":1042:1371   */\n              swap3\n              swap2\n              pop\n              pop\n              jump\t// out\n                /* \"#utility.yul\":1377:1494   */\n            tag_53:\n                /* \"#utility.yul\":1486:1487   */\n              0x00\n                /* \"#utility.yul\":1483:1484   */\n              dup1\n                /* \"#utility.yul\":1476:1488   */\n              revert\n                /* \"#utility.yul\":1500:1617   */\n            tag_54:\n                /* \"#utility.yul\":1609:1610   */\n              0x00\n                /* \"#utility.yul\":1606:1607   */\n              dup1\n                /* \"#utility.yul\":1599:1611   */\n              revert\n                /* \"#utility.yul\":1623:1725   */\n            tag_55:\n                /* \"#utility.yul\":1664:1670   */\n              0x00\n                /* \"#utility.yul\":1715:1717   */\n              0x1f\n                /* \"#utility.yul\":1711:1718   */\n              not\n                /* \"#utility.yul\":1706:1708   */\n              0x1f\n                /* \"#utility.yul\":1699:1704   */\n              dup4\n                /* \"#utility.yul\":1695:1709   */\n              add\n                /* \"#utility.yul\":1691:1719   */\n              and\n                /* \"#utility.yul\":1681:1719   */\n              swap1\n              pop\n                /* \"#utility.yul\":1623:1725   */\n              swap2\n              swap1\n              pop\n              jump\t// out\n                /* \"#utility.yul\":1731:1911   */\n            tag_56:\n                /* \"#utility.yul\":1779:1856   */\n              0x4e487b7100000000000000000000000000000000000000000000000000000000\n                /* \"#utility.yul\":1776:1777   */\n              0x00\n                /* \"#utility.yul\":1769:1857   */\n              mstore\n                /* \"#utility.yul\":1876:1880   */\n              0x41\n                /* \"#utility.yul\":1873:1874   */\n              0x04\n                /* \"#utility.yul\":1866:1881   */\n              mstore\n                /* \"#utility.yul\":1900:1904   */\n              0x24\n                /* \"#utility.yul\":1897:1898   */\n              0x00\n                /* \"#utility.yul\":1890:1905   */\n              revert\n                /* \"#utility.yul\":1917:2198   */\n            tag_57:\n                /* \"#utility.yul\":2000:2027   */\n              tag_108\n                /* \"#utility.yul\":2022:2026   */\n              dup3\n                /* \"#utility.yul\":2000:2027   */\n              tag_55\n              jump\t// in\n            tag_108:\n                /* \"#utility.yul\":1992:1998   */\n              dup2\n                /* \"#utility.yul\":1988:2028   */\n              add\n                /* \"#utility.yul\":2130:2136   */\n              dup2\n                /* \"#utility.yul\":2118:2128   */\n              dup2\n                /* \"#utility.yul\":2115:2137   */\n              lt\n                /* \"#utility.yul\":2094:2112   */\n              0xffffffffffffffff\n                /* \"#utility.yul\":2082:2092   */\n              dup3\n                /* \"#utility.yul\":2079:2113   */\n              gt\n                /* \"#utility.yul\":2076:2138   */\n              or\n                /* \"#utility.yul\":2073:2161   */\n              iszero\n              tag_109\n              jumpi\n                /* \"#utility.yul\":2141:2159   */\n              tag_110\n              tag_56\n              jump\t// in\n            tag_110:\n                /* \"#utility.yul\":2073:2161   */\n            tag_109:\n                /* \"#utility.yul\":2181:2191   */\n              dup1\n                /* \"#utility.yul\":2177:2179   */\n              0x40\n                /* \"#utility.yul\":2170:2192   */\n              mstore\n                /* \"#utility.yul\":1960:2198   */\n              pop\n                /* \"#utility.yul\":1917:2198   */\n              pop\n              pop\n              jump\t// out\n                /* \"#utility.yul\":2204:2333   */\n            tag_58:\n                /* \"#utility.yul\":2238:2244   */\n              0x00\n                /* \"#utility.yul\":2265:2285   */\n              tag_112\n              tag_48\n              jump\t// in\n            tag_112:\n                /* \"#utility.yul\":2255:2285   */\n              swap1\n              pop\n                /* \"#utility.yul\":2294:2327   */\n              tag_113\n                /* \"#utility.yul\":2322:2326   */\n              dup3\n                /* \"#utility.yul\":2314:2320   */\n              dup3\n                /* \"#utility.yul\":2294:2327   */\n              tag_57\n              jump\t// in\n            tag_113:\n                /* \"#utility.yul\":2204:2333   */\n              swap2\n              swap1\n              pop\n              jump\t// out\n                /* \"#utility.yul\":2339:2647   */\n            tag_59:\n                /* \"#utility.yul\":2401:2405   */\n              0x00\n                /* \"#utility.yul\":2491:2509   */\n              0xffffffffffffffff\n                /* \"#utility.yul\":2483:2489   */\n              dup3\n                /* \"#utility.yul\":2480:2510   */\n              gt\n                /* \"#utility.yul\":2477:2533   */\n              iszero\n              tag_115\n              jumpi\n                /* \"#utility.yul\":2513:2531   */\n              tag_116\n              tag_56\n              jump\t// in\n            tag_116:\n                /* \"#utility.yul\":2477:2533   */\n            tag_115:\n                /* \"#utility.yul\":2551:2580   */\n              tag_117\n                /* \"#utility.yul\":2573:2579   */\n              dup3\n                /* \"#utility.yul\":2551:2580   */\n              tag_55\n              jump\t// in\n            tag_117:\n                /* \"#utility.yul\":2543:2580   */\n              swap1\n              pop\n                /* \"#utility.yul\":2635:2639   */\n              0x20\n                /* \"#utility.yul\":2629:2633   */\n              dup2\n                /* \"#utility.yul\":2625:2640   */\n              add\n                /* \"#utility.yul\":2617:2640   */\n              swap1\n              pop\n                /* \"#utility.yul\":2339:2647   */\n              swap2\n              swap1\n              pop\n              jump\t// out\n                /* \"#utility.yul\":2653:2801   */\n            tag_60:\n                /* \"#utility.yul\":2751:2757   */\n              dup3\n                /* \"#utility.yul\":2746:2749   */\n              dup2\n                /* \"#utility.yul\":2741:2744   */\n              dup4\n                /* \"#utility.yul\":2728:2758   */\n              calldatacopy\n                /* \"#utility.yul\":2792:2793   */\n              0x00\n                /* \"#utility.yul\":2783:2789   */\n              dup4\n                /* \"#utility.yul\":2778:2781   */\n              dup4\n                /* \"#utility.yul\":2774:2790   */\n              add\n                /* \"#utility.yul\":2767:2794   */\n              mstore\n                /* \"#utility.yul\":2653:2801   */\n              pop\n              pop\n              pop\n              jump\t// out\n                /* \"#utility.yul\":2807:3232   */\n            tag_61:\n                /* \"#utility.yul\":2885:2890   */\n              0x00\n                /* \"#utility.yul\":2910:2976   */\n              tag_120\n                /* \"#utility.yul\":2926:2975   */\n              tag_121\n                /* \"#utility.yul\":2968:2974   */\n              dup5\n                /* \"#utility.yul\":2926:2975   */\n              tag_59\n              jump\t// in\n            tag_121:\n                /* \"#utility.yul\":2910:2976   */\n              tag_58\n              jump\t// in\n            tag_120:\n                /* \"#utility.yul\":2901:2976   */\n              swap1\n              pop\n                /* \"#utility.yul\":2999:3005   */\n              dup3\n                /* \"#utility.yul\":2992:2997   */\n              dup2\n                /* \"#utility.yul\":2985:3006   */\n              mstore\n                /* \"#utility.yul\":3037:3041   */\n              0x20\n                /* \"#utility.yul\":3030:3035   */\n              dup2\n                /* \"#utility.yul\":3026:3042   */\n              add\n                /* \"#utility.yul\":3075:3078   */\n              dup5\n                /* \"#utility.yul\":3066:3072   */\n              dup5\n                /* \"#utility.yul\":3061:3064   */\n              dup5\n                /* \"#utility.yul\":3057:3073   */\n              add\n                /* \"#utility.yul\":3054:3079   */\n              gt\n                /* \"#utility.yul\":3051:3163   */\n              iszero\n              tag_122\n              jumpi\n                /* \"#utility.yul\":3082:3161   */\n              tag_123\n              tag_54\n              jump\t// in\n            tag_123:\n                /* \"#utility.yul\":3051:3163   */\n            tag_122:\n                /* \"#utility.yul\":3172:3226   */\n              tag_124\n                /* \"#utility.yul\":3219:3225   */\n              dup5\n                /* \"#utility.yul\":3214:3217   */\n              dup3\n                /* \"#utility.yul\":3209:3212   */\n              dup6\n                /* \"#utility.yul\":3172:3226   */\n              tag_60\n              jump\t// in\n            tag_124:\n                /* \"#utility.yul\":2891:3232   */\n              pop\n                /* \"#utility.yul\":2807:3232   */\n              swap4\n              swap3\n              pop\n              pop\n              pop\n              jump\t// out\n                /* \"#utility.yul\":3252:3592   */\n            tag_62:\n                /* \"#utility.yul\":3308:3313   */\n              0x00\n                /* \"#utility.yul\":3357:3360   */\n              dup3\n                /* \"#utility.yul\":3350:3354   */\n              0x1f\n                /* \"#utility.yul\":3342:3348   */\n              dup4\n                /* \"#utility.yul\":3338:3355   */\n              add\n                /* \"#utility.yul\":3334:3361   */\n              slt\n                /* \"#utility.yul\":3324:3446   */\n              tag_126\n              jumpi\n                /* \"#utility.yul\":3365:3444   */\n              tag_127\n              tag_53\n              jump\t// in\n            tag_127:\n                /* \"#utility.yul\":3324:3446   */\n            tag_126:\n                /* \"#utility.yul\":3482:3488   */\n              dup2\n                /* \"#utility.yul\":3469:3489   */\n              calldataload\n                /* \"#utility.yul\":3507:3586   */\n              tag_128\n                /* \"#utility.yul\":3582:3585   */\n              dup5\n                /* \"#utility.yul\":3574:3580   */\n              dup3\n                /* \"#utility.yul\":3567:3571   */\n              0x20\n                /* \"#utility.yul\":3559:3565   */\n              dup7\n                /* \"#utility.yul\":3555:3572   */\n              add\n                /* \"#utility.yul\":3507:3586   */\n              tag_61\n              jump\t// in\n            tag_128:\n                /* \"#utility.yul\":3498:3586   */\n              swap2\n              pop\n                /* \"#utility.yul\":3314:3592   */\n              pop\n                /* \"#utility.yul\":3252:3592   */\n              swap3\n              swap2\n              pop\n              pop\n              jump\t// out\n                /* \"#utility.yul\":3598:4252   */\n            tag_18:\n                /* \"#utility.yul\":3676:3682   */\n              0x00\n                /* \"#utility.yul\":3684:3690   */\n              dup1\n                /* \"#utility.yul\":3733:3735   */\n              0x40\n                /* \"#utility.yul\":3721:3730   */\n              dup4\n                /* \"#utility.yul\":3712:3719   */\n              dup6\n                /* \"#utility.yul\":3708:3731   */\n              sub\n                /* \"#utility.yul\":3704:3736   */\n              slt\n                /* \"#utility.yul\":3701:3820   */\n              iszero\n              tag_130\n              jumpi\n                /* \"#utility.yul\":3739:3818   */\n              tag_131\n              tag_49\n              jump\t// in\n            tag_131:\n                /* \"#utility.yul\":3701:3820   */\n            tag_130:\n                /* \"#utility.yul\":3887:3888   */\n              0x00\n                /* \"#utility.yul\":3876:3885   */\n              dup4\n                /* \"#utility.yul\":3872:3889   */\n              add\n                /* \"#utility.yul\":3859:3890   */\n              calldataload\n                /* \"#utility.yul\":3917:3935   */\n              0xffffffffffffffff\n                /* \"#utility.yul\":3909:3915   */\n              dup2\n                /* \"#utility.yul\":3906:3936   */\n              gt\n                /* \"#utility.yul\":3903:4020   */\n              iszero\n              tag_132\n              jumpi\n                /* \"#utility.yul\":3939:4018   */\n              tag_133\n              tag_50\n              jump\t// in\n            tag_133:\n                /* \"#utility.yul\":3903:4020   */\n            tag_132:\n                /* \"#utility.yul\":4044:4107   */\n              tag_134\n                /* \"#utility.yul\":4099:4106   */\n              dup6\n                /* \"#utility.yul\":4090:4096   */\n              dup3\n                /* \"#utility.yul\":4079:4088   */\n              dup7\n                /* \"#utility.yul\":4075:4097   */\n              add\n                /* \"#utility.yul\":4044:4107   */\n              tag_62\n              jump\t// in\n            tag_134:\n                /* \"#utility.yul\":4034:4107   */\n              swap3\n              pop\n                /* \"#utility.yul\":3830:4117   */\n              pop\n                /* \"#utility.yul\":4156:4158   */\n              0x20\n                /* \"#utility.yul\":4182:4235   */\n              tag_135\n                /* \"#utility.yul\":4227:4234   */\n              dup6\n                /* \"#utility.yul\":4218:4224   */\n              dup3\n                /* \"#utility.yul\":4207:4216   */\n              dup7\n                /* \"#utility.yul\":4203:4225   */\n              add\n                /* \"#utility.yul\":4182:4235   */\n              tag_52\n              jump\t// in\n            tag_135:\n                /* \"#utility.yul\":4172:4235   */\n              swap2\n              pop\n                /* \"#utility.yul\":4127:4245   */\n              pop\n                /* \"#utility.yul\":3598:4252   */\n              swap3\n              pop\n              swap3\n              swap1\n              pop\n              jump\t// out\n                /* \"#utility.yul\":4258:4767   */\n            tag_22:\n                /* \"#utility.yul\":4327:4333   */\n              0x00\n                /* \"#utility.yul\":4376:4378   */\n              0x20\n                /* \"#utility.yul\":4364:4373   */\n              dup3\n                /* \"#utility.yul\":4355:4362   */\n              dup5\n                /* \"#utility.yul\":4351:4374   */\n              sub\n                /* \"#utility.yul\":4347:4379   */\n              slt\n                /* \"#utility.yul\":4344:4463   */\n              iszero\n              tag_137\n              jumpi\n                /* \"#utility.yul\":4382:4461   */\n              tag_138\n              tag_49\n              jump\t// in\n            tag_138:\n                /* \"#utility.yul\":4344:4463   */\n            tag_137:\n                /* \"#utility.yul\":4530:4531   */\n              0x00\n                /* \"#utility.yul\":4519:4528   */\n              dup3\n                /* \"#utility.yul\":4515:4532   */\n              add\n                /* \"#utility.yul\":4502:4533   */\n              calldataload\n                /* \"#utility.yul\":4560:4578   */\n              0xffffffffffffffff\n                /* \"#utility.yul\":4552:4558   */\n              dup2\n                /* \"#utility.yul\":4549:4579   */\n              gt\n                /* \"#utility.yul\":4546:4663   */\n              iszero\n              tag_139\n              jumpi\n                /* \"#utility.yul\":4582:4661   */\n              tag_140\n              tag_50\n              jump\t// in\n            tag_140:\n                /* \"#utility.yul\":4546:4663   */\n            tag_139:\n                /* \"#utility.yul\":4687:4750   */\n              tag_141\n                /* \"#utility.yul\":4742:4749   */\n              dup5\n                /* \"#utility.yul\":4733:4739   */\n              dup3\n                /* \"#utility.yul\":4722:4731   */\n              dup6\n                /* \"#utility.yul\":4718:4740   */\n              add\n                /* \"#utility.yul\":4687:4750   */\n              tag_62\n              jump\t// in\n            tag_141:\n                /* \"#utility.yul\":4677:4750   */\n              swap2\n              pop\n                /* \"#utility.yul\":4473:4760   */\n              pop\n                /* \"#utility.yul\":4258:4767   */\n              swap3\n              swap2\n              pop\n              pop\n              jump\t// out\n                /* \"#utility.yul\":4773:4872   */\n            tag_63:\n                /* \"#utility.yul\":4825:4831   */\n              0x00\n                /* \"#utility.yul\":4859:4864   */\n              dup2\n                /* \"#utility.yul\":4853:4865   */\n              mload\n                /* \"#utility.yul\":4843:4865   */\n              swap1\n              pop\n                /* \"#utility.yul\":4773:4872   */\n              swap2\n              swap1\n              pop\n              jump\t// out\n                /* \"#utility.yul\":4878:5047   */\n            tag_64:\n                /* \"#utility.yul\":4962:4973   */\n              0x00\n                /* \"#utility.yul\":4996:5002   */\n              dup3\n                /* \"#utility.yul\":4991:4994   */\n              dup3\n                /* \"#utility.yul\":4984:5003   */\n              mstore\n                /* \"#utility.yul\":5036:5040   */\n              0x20\n                /* \"#utility.yul\":5031:5034   */\n              dup3\n                /* \"#utility.yul\":5027:5041   */\n              add\n                /* \"#utility.yul\":5012:5041   */\n              swap1\n              pop\n                /* \"#utility.yul\":4878:5047   */\n              swap3\n              swap2\n              pop\n              pop\n              jump\t// out\n                /* \"#utility.yul\":5053:5301   */\n            tag_65:\n                /* \"#utility.yul\":5135:5136   */\n              0x00\n                /* \"#utility.yul\":5145:5258   */\n            tag_145:\n                /* \"#utility.yul\":5159:5165   */\n              dup4\n                /* \"#utility.yul\":5156:5157   */\n              dup2\n                /* \"#utility.yul\":5153:5166   */\n              lt\n                /* \"#utility.yul\":5145:5258   */\n              iszero\n              tag_147\n              jumpi\n                /* \"#utility.yul\":5244:5245   */\n              dup1\n                /* \"#utility.yul\":5239:5242   */\n              dup3\n                /* \"#utility.yul\":5235:5246   */\n              add\n                /* \"#utility.yul\":5229:5247   */\n              mload\n                /* \"#utility.yul\":5225:5226   */\n              dup2\n                /* \"#utility.yul\":5220:5223   */\n              dup5\n                /* \"#utility.yul\":5216:5227   */\n              add\n                /* \"#utility.yul\":5209:5248   */\n              mstore\n                /* \"#utility.yul\":5181:5183   */\n              0x20\n                /* \"#utility.yul\":5178:5179   */\n              dup2\n                /* \"#utility.yul\":5174:5184   */\n              add\n                /* \"#utility.yul\":5169:5184   */\n              swap1\n              pop\n                /* \"#utility.yul\":5145:5258   */\n              jump(tag_145)\n            tag_147:\n                /* \"#utility.yul\":5292:5293   */\n              0x00\n                /* \"#utility.yul\":5283:5289   */\n              dup5\n                /* \"#utility.yul\":5278:5281   */\n              dup5\n                /* \"#utility.yul\":5274:5290   */\n              add\n                /* \"#utility.yul\":5267:5294   */\n              mstore\n                /* \"#utility.yul\":5115:5301   */\n              pop\n                /* \"#utility.yul\":5053:5301   */\n              pop\n              pop\n              pop\n              jump\t// out\n                /* \"#utility.yul\":5307:5684   */\n            tag_66:\n                /* \"#utility.yul\":5395:5398   */\n              0x00\n                /* \"#utility.yul\":5423:5462   */\n              tag_149\n                /* \"#utility.yul\":5456:5461   */\n              dup3\n                /* \"#utility.yul\":5423:5462   */\n              tag_63\n              jump\t// in\n            tag_149:\n                /* \"#utility.yul\":5478:5549   */\n              tag_150\n                /* \"#utility.yul\":5542:5548   */\n              dup2\n                /* \"#utility.yul\":5537:5540   */\n              dup6\n                /* \"#utility.yul\":5478:5549   */\n              tag_64\n              jump\t// in\n            tag_150:\n                /* \"#utility.yul\":5471:5549   */\n              swap4\n              pop\n                /* \"#utility.yul\":5558:5623   */\n              tag_151\n                /* \"#utility.yul\":5616:5622   */\n              dup2\n                /* \"#utility.yul\":5611:5614   */\n              dup6\n                /* \"#utility.yul\":5604:5608   */\n              0x20\n                /* \"#utility.yul\":5597:5602   */\n              dup7\n                /* \"#utility.yul\":5593:5609   */\n              add\n                /* \"#utility.yul\":5558:5623   */\n              tag_65\n              jump\t// in\n            tag_151:\n                /* \"#utility.yul\":5648:5677   */\n              tag_152\n                /* \"#utility.yul\":5670:5676   */\n              dup2\n                /* \"#utility.yul\":5648:5677   */\n              tag_55\n              jump\t// in\n            tag_152:\n                /* \"#utility.yul\":5643:5646   */\n              dup5\n                /* \"#utility.yul\":5639:5678   */\n              add\n                /* \"#utility.yul\":5632:5678   */\n              swap2\n              pop\n                /* \"#utility.yul\":5399:5684   */\n              pop\n                /* \"#utility.yul\":5307:5684   */\n              swap3\n              swap2\n              pop\n              pop\n              jump\t// out\n                /* \"#utility.yul\":5690:6113   */\n            tag_29:\n                /* \"#utility.yul\":5831:5835   */\n              0x00\n                /* \"#utility.yul\":5869:5871   */\n              0x40\n                /* \"#utility.yul\":5858:5867   */\n              dup3\n                /* \"#utility.yul\":5854:5872   */\n              add\n                /* \"#utility.yul\":5846:5872   */\n              swap1\n              pop\n                /* \"#utility.yul\":5882:5953   */\n              tag_154\n                /* \"#utility.yul\":5950:5951   */\n              0x00\n                /* \"#utility.yul\":5939:5948   */\n              dup4\n                /* \"#utility.yul\":5935:5952   */\n              add\n                /* \"#utility.yul\":5926:5932   */\n              dup6\n                /* \"#utility.yul\":5882:5953   */\n              tag_47\n              jump\t// in\n            tag_154:\n                /* \"#utility.yul\":6000:6009   */\n              dup2\n                /* \"#utility.yul\":5994:5998   */\n              dup2\n                /* \"#utility.yul\":5990:6010   */\n              sub\n                /* \"#utility.yul\":5985:5987   */\n              0x20\n                /* \"#utility.yul\":5974:5983   */\n              dup4\n                /* \"#utility.yul\":5970:5988   */\n              add\n                /* \"#utility.yul\":5963:6011   */\n              mstore\n                /* \"#utility.yul\":6028:6106   */\n              tag_155\n                /* \"#utility.yul\":6101:6105   */\n              dup2\n                /* \"#utility.yul\":6092:6098   */\n              dup5\n                /* \"#utility.yul\":6028:6106   */\n              tag_66\n              jump\t// in\n            tag_155:\n                /* \"#utility.yul\":6020:6106   */\n              swap1\n              pop\n                /* \"#utility.yul\":5690:6113   */\n              swap4\n              swap3\n              pop\n              pop\n              pop\n              jump\t// out\n                /* \"#utility.yul\":6119:6299   */\n            tag_67:\n                /* \"#utility.yul\":6167:6244   */\n              0x4e487b7100000000000000000000000000000000000000000000000000000000\n                /* \"#utility.yul\":6164:6165   */\n              0x00\n                /* \"#utility.yul\":6157:6245   */\n              mstore\n                /* \"#utility.yul\":6264:6268   */\n              0x22\n                /* \"#utility.yul\":6261:6262   */\n              0x04\n                /* \"#utility.yul\":6254:6269   */\n              mstore\n                /* \"#utility.yul\":6288:6292   */\n              0x24\n                /* \"#utility.yul\":6285:6286   */\n              0x00\n                /* \"#utility.yul\":6278:6293   */\n              revert\n                /* \"#utility.yul\":6305:6625   */\n            tag_41:\n                /* \"#utility.yul\":6349:6355   */\n              0x00\n                /* \"#utility.yul\":6386:6387   */\n              0x02\n                /* \"#utility.yul\":6380:6384   */\n              dup3\n                /* \"#utility.yul\":6376:6388   */\n              div\n                /* \"#utility.yul\":6366:6388   */\n              swap1\n              pop\n                /* \"#utility.yul\":6433:6434   */\n              0x01\n                /* \"#utility.yul\":6427:6431   */\n              dup3\n                /* \"#utility.yul\":6423:6435   */\n              and\n                /* \"#utility.yul\":6454:6472   */\n              dup1\n                /* \"#utility.yul\":6444:6525   */\n              tag_158\n              jumpi\n                /* \"#utility.yul\":6510:6514   */\n              0x7f\n                /* \"#utility.yul\":6502:6508   */\n              dup3\n                /* \"#utility.yul\":6498:6515   */\n              and\n                /* \"#utility.yul\":6488:6515   */\n              swap2\n              pop\n                /* \"#utility.yul\":6444:6525   */\n            tag_158:\n                /* \"#utility.yul\":6572:6574   */\n              0x20\n                /* \"#utility.yul\":6564:6570   */\n              dup3\n                /* \"#utility.yul\":6561:6575   */\n              lt\n                /* \"#utility.yul\":6541:6559   */\n              dup2\n                /* \"#utility.yul\":6538:6576   */\n              sub\n                /* \"#utility.yul\":6535:6619   */\n              tag_159\n              jumpi\n                /* \"#utility.yul\":6591:6609   */\n              tag_160\n              tag_67\n              jump\t// in\n            tag_160:\n                /* \"#utility.yul\":6535:6619   */\n            tag_159:\n                /* \"#utility.yul\":6356:6625   */\n              pop\n                /* \"#utility.yul\":6305:6625   */\n              swap2\n              swap1\n              pop\n              jump\t// out\n                /* \"#utility.yul\":6631:6772   */\n            tag_68:\n                /* \"#utility.yul\":6680:6684   */\n              0x00\n                /* \"#utility.yul\":6703:6706   */\n              dup2\n                /* \"#utility.yul\":6695:6706   */\n              swap1\n              pop\n                /* \"#utility.yul\":6726:6729   */\n              dup2\n                /* \"#utility.yul\":6723:6724   */\n              0x00\n                /* \"#utility.yul\":6716:6730   */\n              mstore\n                /* \"#utility.yul\":6760:6764   */\n              0x20\n                /* \"#utility.yul\":6757:6758   */\n              0x00\n                /* \"#utility.yul\":6747:6765   */\n              keccak256\n                /* \"#utility.yul\":6739:6765   */\n              swap1\n              pop\n                /* \"#utility.yul\":6631:6772   */\n              swap2\n              swap1\n              pop\n              jump\t// out\n                /* \"#utility.yul\":6778:6871   */\n            tag_69:\n                /* \"#utility.yul\":6815:6821   */\n              0x00\n                /* \"#utility.yul\":6862:6864   */\n              0x20\n                /* \"#utility.yul\":6857:6859   */\n              0x1f\n                /* \"#utility.yul\":6850:6855   */\n              dup4\n                /* \"#utility.yul\":6846:6860   */\n              add\n                /* \"#utility.yul\":6842:6865   */\n              div\n                /* \"#utility.yul\":6832:6865   */\n              swap1\n              pop\n                /* \"#utility.yul\":6778:6871   */\n              swap2\n              swap1\n              pop\n              jump\t// out\n                /* \"#utility.yul\":6877:6984   */\n            tag_70:\n                /* \"#utility.yul\":6921:6929   */\n              0x00\n                /* \"#utility.yul\":6971:6976   */\n              dup3\n                /* \"#utility.yul\":6965:6969   */\n              dup3\n                /* \"#utility.yul\":6961:6977   */\n              shl\n                /* \"#utility.yul\":6940:6977   */\n              swap1\n              pop\n                /* \"#utility.yul\":6877:6984   */\n              swap3\n              swap2\n              pop\n              pop\n              jump\t// out\n                /* \"#utility.yul\":6990:7383   */\n            tag_71:\n                /* \"#utility.yul\":7059:7065   */\n              0x00\n                /* \"#utility.yul\":7109:7110   */\n              0x08\n                /* \"#utility.yul\":7097:7107   */\n              dup4\n                /* \"#utility.yul\":7093:7111   */\n              mul\n                /* \"#utility.yul\":7132:7229   */\n              tag_165\n                /* \"#utility.yul\":7162:7228   */\n              0xffffffffffffffffffffffffffffffffffffffffffffffffffffffffffffffff\n                /* \"#utility.yul\":7151:7160   */\n              dup3\n                /* \"#utility.yul\":7132:7229   */\n              tag_70\n              jump\t// in\n            tag_165:\n                /* \"#utility.yul\":7250:7289   */\n              tag_166\n                /* \"#utility.yul\":7280:7288   */\n              dup7\n                /* \"#utility.yul\":7269:7278   */\n              dup4\n                /* \"#utility.yul\":7250:7289   */\n              tag_70\n              jump\t// in\n            tag_166:\n                /* \"#utility.yul\":7238:7289   */\n              swap6\n              pop\n                /* \"#utility.yul\":7322:7326   */\n              dup1\n                /* \"#utility.yul\":7318:7327   */\n              not\n                /* \"#utility.yul\":7311:7316   */\n              dup5\n                /* \"#utility.yul\":7307:7328   */\n              and\n                /* \"#utility.yul\":7298:7328   */\n              swap4\n              pop\n                /* \"#utility.yul\":7371:7375   */\n              dup1\n                /* \"#utility.yul\":7361:7369   */\n              dup7\n                /* \"#utility.yul\":7357:7376   */\n              and\n                /* \"#utility.yul\":7350:7355   */\n              dup5\n                /* \"#utility.yul\":7347:7377   */\n              or\n                /* \"#utility.yul\":7337:7377   */\n              swap3\n              pop\n                /* \"#utility.yul\":7066:7383   */\n              pop\n              pop\n                /* \"#utility.yul\":6990:7383   */\n              swap4\n              swap3\n              pop\n              pop\n              pop\n              jump\t// out\n                /* \"#utility.yul\":7389:7449   */\n            tag_72:\n                /* \"#utility.yul\":7417:7420   */\n              0x00\n                /* \"#utility.yul\":7438:7443   */\n              dup2\n                /* \"#utility.yul\":7431:7443   */\n              swap1\n              pop\n                /* \"#utility.yul\":7389:7449   */\n              swap2\n              swap1\n              pop\n              jump\t// out\n                /* \"#utility.yul\":7455:7597   */\n            tag_73:\n                /* \"#utility.yul\":7505:7514   */\n              0x00\n                /* \"#utility.yul\":7538:7591   */\n              tag_169\n                /* \"#utility.yul\":7556:7590   */\n              tag_170\n                /* \"#utility.yul\":7565:7589   */\n              tag_171\n                /* \"#utility.yul\":7583:7588   */\n              dup5\n                /* \"#utility.yul\":7565:7589   */\n              tag_46\n              jump\t// in\n            tag_171:\n                /* \"#utility.yul\":7556:7590   */\n              tag_72\n              jump\t// in\n            tag_170:\n                /* \"#utility.yul\":7538:7591   */\n              tag_46\n              jump\t// in\n            tag_169:\n                /* \"#utility.yul\":7525:7591   */\n              swap1\n              pop\n                /* \"#utility.yul\":7455:7597   */\n              swap2\n              swap1\n              pop\n              jump\t// out\n                /* \"#utility.yul\":7603:7678   */\n            tag_74:\n                /* \"#utility.yul\":7646:7649   */\n              0x00\n                /* \"#utility.yul\":7667:7672   */\n              dup2\n                /* \"#utility.yul\":7660:7672   */\n              swap1\n              pop\n                /* \"#utility.yul\":7603:7678   */\n              swap2\n              swap1\n              pop\n              jump\t// out\n                /* \"#utility.yul\":7684:7953   */\n            tag_75:\n                /* \"#utility.yul\":7794:7833   */\n              tag_174\n                /* \"#utility.yul\":7825:7832   */\n              dup4\n                /* \"#utility.yul\":7794:7833   */\n              tag_73\n              jump\t// in\n            tag_174:\n                /* \"#utility.yul\":7855:7946   */\n              tag_175\n                /* \"#utility.yul\":7904:7945   */\n              tag_176\n                /* \"#utility.yul\":7928:7944   */\n              dup3\n                /* \"#utility.yul\":7904:7945   */\n              tag_74\n              jump\t// in\n            tag_176:\n                /* \"#utility.yul\":7896:7902   */\n              dup5\n                /* \"#utility.yul\":7889:7893   */\n              dup5\n                /* \"#utility.yul\":7883:7894   */\n              sload\n                /* \"#utility.yul\":7855:7946   */\n              tag_71\n              jump\t// in\n            tag_175:\n                /* \"#utility.yul\":7849:7853   */\n              dup3\n                /* \"#utility.yul\":7842:7947   */\n              sstore\n                /* \"#utility.yul\":7760:7953   */\n              pop\n                /* \"#utility.yul\":7684:7953   */\n              pop\n              pop\n              pop\n              jump\t// out\n                /* \"#utility.yul\":7959:8032   */\n            tag_76:\n                /* \"#utility.yul\":8004:8007   */\n              0x00\n                /* \"#utility.yul\":7959:8032   */\n              swap1\n              jump\t// out\n                /* \"#utility.yul\":8038:8227   */\n            tag_77:\n                /* \"#utility.yul\":8115:8147   */\n              tag_179\n              tag_76\n              jump\t// in\n            tag_179:\n                /* \"#utility.yul\":8156:8221   */\n              tag_180\n                /* \"#utility.yul\":8214:8220   */\n              dup2\n                /* \"#utility.yul\":8206:8212   */\n              dup5\n                /* \"#utility.yul\":8200:8204   */\n              dup5\n                /* \"#utility.yul\":8156:8221   */\n              tag_75\n              jump\t// in\n            tag_180:\n                /* \"#utility.yul\":8091:8227   */\n              pop\n                /* \"#utility.yul\":8038:8227   */\n              pop\n              pop\n              jump\t// out\n                /* \"#utility.yul\":8233:8419   */\n            tag_78:\n                /* \"#utility.yul\":8293:8413   */\n            tag_182:\n                /* \"#utility.yul\":8310:8313   */\n              dup2\n                /* \"#utility.yul\":8303:8308   */\n              dup2\n                /* \"#utility.yul\":8300:8314   */\n              lt\n                /* \"#utility.yul\":8293:8413   */\n              iszero\n              tag_184\n              jumpi\n                /* \"#utility.yul\":8364:8403   */\n              tag_185\n                /* \"#utility.yul\":8401:8402   */\n              0x00\n                /* \"#utility.yul\":8394:8399   */\n              dup3\n                /* \"#utility.yul\":8364:8403   */\n              tag_77\n              jump\t// in\n            tag_185:\n                /* \"#utility.yul\":8337:8338   */\n              0x01\n                /* \"#utility.yul\":8330:8335   */\n              dup2\n                /* \"#utility.yul\":8326:8339   */\n              add\n                /* \"#utility.yul\":8317:8339   */\n              swap1\n              pop\n                /* \"#utility.yul\":8293:8413   */\n              jump(tag_182)\n            tag_184:\n                /* \"#utility.yul\":8233:8419   */\n              pop\n              pop\n              jump\t// out\n                /* \"#utility.yul\":8425:8968   */\n            tag_79:\n                /* \"#utility.yul\":8526:8528   */\n              0x1f\n                /* \"#utility.yul\":8521:8524   */\n              dup3\n                /* \"#utility.yul\":8518:8529   */\n              gt\n                /* \"#utility.yul\":8515:8961   */\n              iszero\n              tag_187\n              jumpi\n                /* \"#utility.yul\":8560:8598   */\n              tag_188\n                /* \"#utility.yul\":8592:8597   */\n              dup2\n                /* \"#utility.yul\":8560:8598   */\n              tag_68\n              jump\t// in\n            tag_188:\n                /* \"#utility.yul\":8644:8673   */\n              tag_189\n                /* \"#utility.yul\":8662:8672   */\n              dup5\n                /* \"#utility.yul\":8644:8673   */\n              tag_69\n              jump\t// in\n            tag_189:\n                /* \"#utility.yul\":8634:8642   */\n              dup2\n                /* \"#utility.yul\":8630:8674   */\n              add\n                /* \"#utility.yul\":8827:8829   */\n              0x20\n                /* \"#utility.yul\":8815:8825   */\n              dup6\n                /* \"#utility.yul\":8812:8830   */\n              lt\n                /* \"#utility.yul\":8809:8858   */\n              iszero\n              tag_190\n              jumpi\n                /* \"#utility.yul\":8848:8856   */\n              dup2\n                /* \"#utility.yul\":8833:8856   */\n              swap1\n              pop\n                /* \"#utility.yul\":8809:8858   */\n            tag_190:\n                /* \"#utility.yul\":8871:8951   */\n              tag_191\n                /* \"#utility.yul\":8927:8949   */\n              tag_192\n                /* \"#utility.yul\":8945:8948   */\n              dup6\n                /* \"#utility.yul\":8927:8949   */\n              tag_69\n              jump\t// in\n            tag_192:\n                /* \"#utility.yul\":8917:8925   */\n              dup4\n                /* \"#utility.yul\":8913:8950   */\n              add\n                /* \"#utility.yul\":8900:8911   */\n              dup3\n                /* \"#utility.yul\":8871:8951   */\n              tag_78\n              jump\t// in\n            tag_191:\n                /* \"#utility.yul\":8530:8961   */\n              pop\n              pop\n                /* \"#utility.yul\":8515:8961   */\n            tag_187:\n                /* \"#utility.yul\":8425:8968   */\n              pop\n              pop\n              pop\n              jump\t// out\n                /* \"#utility.yul\":8974:9091   */\n            tag_80:\n                /* \"#utility.yul\":9028:9036   */\n              0x00\n                /* \"#utility.yul\":9078:9083   */\n              dup3\n                /* \"#utility.yul\":9072:9076   */\n              dup3\n                /* \"#utility.yul\":9068:9084   */\n              shr\n                /* \"#utility.yul\":9047:9084   */\n              swap1\n              pop\n                /* \"#utility.yul\":8974:9091   */\n              swap3\n              swap2\n              pop\n              pop\n              jump\t// out\n                /* \"#utility.yul\":9097:9266   */\n            tag_81:\n                /* \"#utility.yul\":9141:9147   */\n              0x00\n                /* \"#utility.yul\":9174:9225   */\n              tag_195\n                /* \"#utility.yul\":9222:9223   */\n              0x00\n                /* \"#utility.yul\":9218:9224   */\n              not\n                /* \"#utility.yul\":9210:9215   */\n              dup5\n                /* \"#utility.yul\":9207:9208   */\n              0x08\n                /* \"#utility.yul\":9203:9216   */\n              mul\n                /* \"#utility.yul\":9174:9225   */\n              tag_80\n              jump\t// in\n            tag_195:\n                /* \"#utility.yul\":9170:9226   */\n              not\n                /* \"#utility.yul\":9255:9259   */\n              dup1\n                /* \"#utility.yul\":9249:9253   */\n              dup4\n                /* \"#utility.yul\":9245:9260   */\n              and\n                /* \"#utility.yul\":9235:9260   */\n              swap2\n              pop\n                /* \"#utility.yul\":9148:9266   */\n              pop\n                /* \"#utility.yul\":9097:9266   */\n              swap3\n              swap2\n              pop\n              pop\n              jump\t// out\n                /* \"#utility.yul\":9271:9566   */\n            tag_82:\n                /* \"#utility.yul\":9347:9351   */\n              0x00\n                /* \"#utility.yul\":9493:9522   */\n              tag_197\n                /* \"#utility.yul\":9518:9521   */\n              dup4\n                /* \"#utility.yul\":9512:9516   */\n              dup4\n                /* \"#utility.yul\":9493:9522   */\n              tag_81\n              jump\t// in\n            tag_197:\n                /* \"#utility.yul\":9485:9522   */\n              swap2\n              pop\n                /* \"#utility.yul\":9555:9558   */\n              dup3\n                /* \"#utility.yul\":9552:9553   */\n              0x02\n                /* \"#utility.yul\":9548:9559   */\n              mul\n                /* \"#utility.yul\":9542:9546   */\n              dup3\n                /* \"#utility.yul\":9539:9560   */\n              or\n                /* \"#utility.yul\":9531:9560   */\n              swap1\n              pop\n                /* \"#utility.yul\":9271:9566   */\n              swap3\n              swap2\n              pop\n              pop\n              jump\t// out\n                /* \"#utility.yul\":9571:10966   */\n            tag_35:\n                /* \"#utility.yul\":9688:9725   */\n              tag_199\n                /* \"#utility.yul\":9721:9724   */\n              dup3\n                /* \"#utility.yul\":9688:9725   */\n              tag_63\n              jump\t// in\n            tag_199:\n                /* \"#utility.yul\":9790:9808   */\n              0xffffffffffffffff\n                /* \"#utility.yul\":9782:9788   */\n              dup2\n                /* \"#utility.yul\":9779:9809   */\n              gt\n                /* \"#utility.yul\":9776:9832   */\n              iszero\n              tag_200\n              jumpi\n                /* \"#utility.yul\":9812:9830   */\n              tag_201\n              tag_56\n              jump\t// in\n            tag_201:\n                /* \"#utility.yul\":9776:9832   */\n            tag_200:\n                /* \"#utility.yul\":9856:9894   */\n              tag_202\n                /* \"#utility.yul\":9888:9892   */\n              dup3\n                /* \"#utility.yul\":9882:9893   */\n              sload\n                /* \"#utility.yul\":9856:9894   */\n              tag_41\n              jump\t// in\n            tag_202:\n                /* \"#utility.yul\":9941:10008   */\n              tag_203\n                /* \"#utility.yul\":10001:10007   */\n              dup3\n                /* \"#utility.yul\":9993:9999   */\n              dup3\n                /* \"#utility.yul\":9987:9991   */\n              dup6\n                /* \"#utility.yul\":9941:10008   */\n              tag_79\n              jump\t// in\n            tag_203:\n                /* \"#utility.yul\":10035:10036   */\n              0x00\n                /* \"#utility.yul\":10059:10063   */\n              0x20\n                /* \"#utility.yul\":10046:10063   */\n              swap1\n              pop\n                /* \"#utility.yul\":10091:10093   */\n              0x1f\n                /* \"#utility.yul\":10083:10089   */\n              dup4\n                /* \"#utility.yul\":10080:10094   */\n              gt\n                /* \"#utility.yul\":10108:10109   */\n              0x01\n                /* \"#utility.yul\":10103:10721   */\n              dup2\n              eq\n              tag_205\n              jumpi\n                /* \"#utility.yul\":10765:10766   */\n              0x00\n                /* \"#utility.yul\":10782:10788   */\n              dup5\n                /* \"#utility.yul\":10779:10856   */\n              iszero\n              tag_206\n              jumpi\n                /* \"#utility.yul\":10831:10840   */\n              dup3\n                /* \"#utility.yul\":10826:10829   */\n              dup8\n                /* \"#utility.yul\":10822:10841   */\n              add\n                /* \"#utility.yul\":10816:10842   */\n              mload\n                /* \"#utility.yul\":10807:10842   */\n              swap1\n              pop\n                /* \"#utility.yul\":10779:10856   */\n            tag_206:\n                /* \"#utility.yul\":10882:10949   */\n              tag_207\n                /* \"#utility.yul\":10942:10948   */\n              dup6\n                /* \"#utility.yul\":10935:10940   */\n              dup3\n                /* \"#utility.yul\":10882:10949   */\n              tag_82\n              jump\t// in\n            tag_207:\n                /* \"#utility.yul\":10876:10880   */\n              dup7\n                /* \"#utility.yul\":10869:10950   */\n              sstore\n                /* \"#utility.yul\":10738:10960   */\n              pop\n                /* \"#utility.yul\":10073:10960   */\n              jump(tag_204)\n                /* \"#utility.yul\":10103:10721   */\n            tag_205:\n                /* \"#utility.yul\":10155:10159   */\n              0x1f\n                /* \"#utility.yul\":10151:10160   */\n              not\n                /* \"#utility.yul\":10143:10149   */\n              dup5\n                /* \"#utility.yul\":10139:10161   */\n              and\n                /* \"#utility.yul\":10189:10226   */\n              tag_208\n                /* \"#utility.yul\":10221:10225   */\n              dup7\n                /* \"#utility.yul\":10189:10226   */\n              tag_68\n              jump\t// in\n            tag_208:\n                /* \"#utility.yul\":10248:10249   */\n              0x00\n                /* \"#utility.yul\":10262:10470   */\n            tag_209:\n                /* \"#utility.yul\":10276:10283   */\n              dup3\n                /* \"#utility.yul\":10273:10274   */\n              dup2\n                /* \"#utility.yul\":10270:10284   */\n              lt\n                /* \"#utility.yul\":10262:10470   */\n              iszero\n              tag_211\n              jumpi\n                /* \"#utility.yul\":10355:10364   */\n              dup5\n                /* \"#utility.yul\":10350:10353   */\n              dup10\n                /* \"#utility.yul\":10346:10365   */\n              add\n                /* \"#utility.yul\":10340:10366   */\n              mload\n                /* \"#utility.yul\":10332:10338   */\n              dup3\n                /* \"#utility.yul\":10325:10367   */\n              sstore\n                /* \"#utility.yul\":10406:10407   */\n              0x01\n                /* \"#utility.yul\":10398:10404   */\n              dup3\n                /* \"#utility.yul\":10394:10408   */\n              add\n                /* \"#utility.yul\":10384:10408   */\n              swap2\n              pop\n                /* \"#utility.yul\":10453:10455   */\n              0x20\n                /* \"#utility.yul\":10442:10451   */\n              dup6\n                /* \"#utility.yul\":10438:10456   */\n              add\n                /* \"#utility.yul\":10425:10456   */\n              swap5\n              pop\n                /* \"#utility.yul\":10299:10303   */\n              0x20\n                /* \"#utility.yul\":10296:10297   */\n              dup2\n                /* \"#utility.yul\":10292:10304   */\n              add\n                /* \"#utility.yul\":10287:10304   */\n              swap1\n              pop\n                /* \"#utility.yul\":10262:10470   */\n              jump(tag_209)\n            tag_211:\n                /* \"#utility.yul\":10498:10504   */\n              dup7\n                /* \"#utility.yul\":10489:10496   */\n              dup4\n                /* \"#utility.yul\":10486:10505   */\n              lt\n                /* \"#utility.yul\":10483:10662   */\n              iszero\n              tag_212\n              jumpi\n                /* \"#utility.yul\":10556:10565   */\n              dup5\n                /* \"#utility.yul\":10551:10554   */\n              dup10\n                /* \"#utility.yul\":10547:10566   */\n              add\n                /* \"#utility.yul\":10541:10567   */\n              mload\n                /* \"#utility.yul\":10599:10647   */\n              tag_213\n                /* \"#utility.yul\":10641:10645   */\n              0x1f\n                /* \"#utility.yul\":10633:10639   */\n              dup10\n                /* \"#utility.yul\":10629:10646   */\n              and\n                /* \"#utility.yul\":10618:10627   */\n              dup3\n                /* \"#utility.yul\":10599:10647   */\n              tag_81\n              jump\t// in\n            tag_213:\n                /* \"#utility.yul\":10591:10597   */\n              dup4\n                /* \"#utility.yul\":10584:10648   */\n              sstore\n                /* \"#utility.yul\":10506:10662   */\n              pop\n                /* \"#utility.yul\":10483:10662   */\n            tag_212:\n                /* \"#utility.yul\":10708:10709   */\n              0x01\n                /* \"#utility.yul\":10704:10705   */\n              0x02\n                /* \"#utility.yul\":10696:10702   */\n              dup9\n                /* \"#utility.yul\":10692:10706   */\n              mul\n                /* \"#utility.yul\":10688:10710   */\n              add\n                /* \"#utility.yul\":10682:10686   */\n              dup9\n                /* \"#utility.yul\":10675:10711   */\n              sstore\n                /* \"#utility.yul\":10110:10721   */\n              pop\n              pop\n              pop\n                /* \"#utility.yul\":10073:10960   */\n            tag_204:\n              pop\n                /* \"#utility.yul\":9663:10966   */\n              pop\n              pop\n              pop\n                /* \"#utility.yul\":9571:10966   */\n              pop\n              pop\n              jump\t// out\n                /* \"#utility.yul\":10972:11120   */\n            tag_83:\n                /* \"#utility.yul\":11074:11085   */\n              0x00\n                /* \"#utility.yul\":11111:11114   */\n              dup2\n                /* \"#utility.yul\":11096:11114   */\n              swap1\n              pop\n                /* \"#utility.yul\":10972:11120   */\n              swap3\n              swap2\n              pop\n              pop\n              jump\t// out\n                /* \"#utility.yul\":11126:11516   */\n            tag_84:\n                /* \"#utility.yul\":11232:11235   */\n              0x00\n                /* \"#utility.yul\":11260:11299   */\n              tag_216\n                /* \"#utility.yul\":11293:11298   */\n              dup3\n                /* \"#utility.yul\":11260:11299   */\n              tag_63\n              jump\t// in\n            tag_216:\n                /* \"#utility.yul\":11315:11404   */\n              tag_217\n                /* \"#utility.yul\":11397:11403   */\n              dup2\n                /* \"#utility.yul\":11392:11395   */\n              dup6\n                /* \"#utility.yul\":11315:11404   */\n              tag_83\n              jump\t// in\n            tag_217:\n                /* \"#utility.yul\":11308:11404   */\n              swap4\n              pop\n                /* \"#utility.yul\":11413:11478   */\n              tag_218\n                /* \"#utility.yul\":11471:11477   */\n              dup2\n                /* \"#utility.yul\":11466:11469   */\n              dup6\n                /* \"#utility.yul\":11459:11463   */\n              0x20\n                /* \"#utility.yul\":11452:11457   */\n              dup7\n                /* \"#utility.yul\":11448:11464   */\n              add\n                /* \"#utility.yul\":11413:11478   */\n              tag_65\n              jump\t// in\n            tag_218:\n                /* \"#utility.yul\":11503:11509   */\n              dup1\n                /* \"#utility.yul\":11498:11501   */\n              dup5\n                /* \"#utility.yul\":11494:11510   */\n              add\n                /* \"#utility.yul\":11487:11510   */\n              swap2\n              pop\n                /* \"#utility.yul\":11236:11516   */\n              pop\n                /* \"#utility.yul\":11126:11516   */\n              swap3\n              swap2\n              pop\n              pop\n              jump\t// out\n                /* \"#utility.yul\":11522:11797   */\n            tag_37:\n                /* \"#utility.yul\":11654:11657   */\n              0x00\n                /* \"#utility.yul\":11676:11771   */\n              tag_220\n                /* \"#utility.yul\":11767:11770   */\n              dup3\n                /* \"#utility.yul\":11758:11764   */\n              dup5\n                /* \"#utility.yul\":11676:11771   */\n              tag_84\n              jump\t// in\n            tag_220:\n                /* \"#utility.yul\":11669:11771   */\n              swap2\n              pop\n                /* \"#utility.yul\":11788:11791   */\n              dup2\n                /* \"#utility.yul\":11781:11791   */\n              swap1\n              pop\n                /* \"#utility.yul\":11522:11797   */\n              swap3\n              swap2\n              pop\n              pop\n              jump\t// out\n\n            auxdata: 0xa2646970667358221220d84bd1c490e52dc925ddef0d2b7614fe6f1ef2b88e7739318e3866d0fc1b9cd064736f6c634300081f0033\n        }\n    }\n\n    auxdata: 0xa264697066735822122036187e94244ab5c9e45fae1692613ace05af4e4a62d8ba0f2cb2e1350060a25a64736f6c634300081f0033\n}\n",
				"bytecode": {
					"linkReferences": {},
					"object": "6080604052348015600f57600080fd5b50610e898061001f6000396000f3fe608060405234801561001057600080fd5b506004361061004c5760003560e01c80631dda65411461005157806364591bf11461005b578063c5f19c201461008b578063caec2a5a146100bb575b600080fd5b6100596100d7565b005b61007560048036038101906100709190610357565b61016a565b6040516100829190610403565b60405180910390f35b6100a560048036038101906100a09190610357565b6101a9565b6040516100b2919061042d565b60405180910390f35b6100d560048036038101906100d09190610448565b61025d565b005b60006040516100e59061030f565b604051809103906000f080158015610101573d6000803e3d6000fd5b5090506000819080600181540180825580915050600190039060005260206000200160009091909190916101000a81548173ffffffffffffffffffffffffffffffffffffffff021916908373ffffffffffffffffffffffffffffffffffffffff16021790555050565b6000818154811061017a57600080fd5b906000526020600020016000915054906101000a900473ffffffffffffffffffffffffffffffffffffffff1681565b60008082815481106101be576101bd610488565b5b9060005260206000200160009054906101000a900473ffffffffffffffffffffffffffffffffffffffff1673ffffffffffffffffffffffffffffffffffffffff16632e64cec16040518163ffffffff1660e01b8152600401602060405180830381865afa158015610233573d6000803e3d6000fd5b505050506040513d601f19601f8201168201806040525081019061025791906104cc565b50919050565b600080838154811061027257610271610488565b5b9060005260206000200160009054906101000a900473ffffffffffffffffffffffffffffffffffffffff1690508073ffffffffffffffffffffffffffffffffffffffff16636057361d836040518263ffffffff1660e01b81526004016102d8919061042d565b600060405180830381600087803b1580156102f257600080fd5b505af1158015610306573d6000803e3d6000fd5b50505050505050565b61095a806104fa83390190565b600080fd5b6000819050919050565b61033481610321565b811461033f57600080fd5b50565b6000813590506103518161032b565b92915050565b60006020828403121561036d5761036c61031c565b5b600061037b84828501610342565b91505092915050565b600073ffffffffffffffffffffffffffffffffffffffff82169050919050565b6000819050919050565b60006103c96103c46103bf84610384565b6103a4565b610384565b9050919050565b60006103db826103ae565b9050919050565b60006103ed826103d0565b9050919050565b6103fd816103e2565b82525050565b600060208201905061041860008301846103f4565b92915050565b61042781610321565b82525050565b6000602082019050610442600083018461041e565b92915050565b6000806040838503121561045f5761045e61031c565b5b600061046d85828601610342565b925050602061047e85828601610342565b9150509250929050565b7f4e487b7100000000000000000000000000000000000000000000000000000000600052603260045260246000fd5b6000815190506104c68161032b565b92915050565b6000602082840312156104e2576104e161031c565b5b60006104f0848285016104b7565b9150509291505056fe6080604052348015600f57600080fd5b5061093b8061001f6000396000f3fe608060405234801561001057600080fd5b50600436106100575760003560e01c80632e64cec11461005c5780636057361d1461007a5780636f760f41146100965780638bab8dd5146100b25780639e7a13ad146100e2575b600080fd5b610064610113565b60405161007191906102b2565b60405180910390f35b610094600480360381019061008f919061030d565b61011c565b005b6100b060048036038101906100ab9190610480565b610126565b005b6100cc60048036038101906100c791906104dc565b6101af565b6040516100d991906102b2565b60405180910390f35b6100fc60048036038101906100f7919061030d565b6101dd565b60405161010a9291906105a4565b60405180910390f35b60008054905090565b8060008190555050565b6002604051806040016040528083815260200184815250908060018154018082558091505060019003906000526020600020906002020160009091909190915060008201518160000155602082015181600101908161018591906107e0565b5050508060018360405161019991906108ee565b9081526020016040518091039020819055505050565b6001818051602081018201805184825260208301602085012081835280955050505050506000915090505481565b600281815481106101ed57600080fd5b906000526020600020906002020160009150905080600001549080600101805461021690610603565b80601f016020809104026020016040519081016040528092919081815260200182805461024290610603565b801561028f5780601f106102645761010080835404028352916020019161028f565b820191906000526020600020905b81548152906001019060200180831161027257829003601f168201915b5050505050905082565b6000819050919050565b6102ac81610299565b82525050565b60006020820190506102c760008301846102a3565b92915050565b6000604051905090565b600080fd5b600080fd5b6102ea81610299565b81146102f557600080fd5b50565b600081359050610307816102e1565b92915050565b600060208284031215610323576103226102d7565b5b6000610331848285016102f8565b91505092915050565b600080fd5b600080fd5b6000601f19601f8301169050919050565b7f4e487b7100000000000000000000000000000000000000000000000000000000600052604160045260246000fd5b61038d82610344565b810181811067ffffffffffffffff821117156103ac576103ab610355565b5b80604052505050565b60006103bf6102cd565b90506103cb8282610384565b919050565b600067ffffffffffffffff8211156103eb576103ea610355565b5b6103f482610344565b9050602081019050919050565b82818337600083830152505050565b600061042361041e846103d0565b6103b5565b90508281526020810184848401111561043f5761043e61033f565b5b61044a848285610401565b509392505050565b600082601f8301126104675761046661033a565b5b8135610477848260208601610410565b91505092915050565b60008060408385031215610497576104966102d7565b5b600083013567ffffffffffffffff8111156104b5576104b46102dc565b5b6104c185828601610452565b92505060206104d2858286016102f8565b9150509250929050565b6000602082840312156104f2576104f16102d7565b5b600082013567ffffffffffffffff8111156105105761050f6102dc565b5b61051c84828501610452565b91505092915050565b600081519050919050565b600082825260208201905092915050565b60005b8381101561055f578082015181840152602081019050610544565b60008484015250505050565b600061057682610525565b6105808185610530565b9350610590818560208601610541565b61059981610344565b840191505092915050565b60006040820190506105b960008301856102a3565b81810360208301526105cb818461056b565b90509392505050565b7f4e487b7100000000000000000000000000000000000000000000000000000000600052602260045260246000fd5b6000600282049050600182168061061b57607f821691505b60208210810361062e5761062d6105d4565b5b50919050565b60008190508160005260206000209050919050565b60006020601f8301049050919050565b600082821b905092915050565b6000600883026106967fffffffffffffffffffffffffffffffffffffffffffffffffffffffffffffffff82610659565b6106a08683610659565b95508019841693508086168417925050509392505050565b6000819050919050565b60006106dd6106d86106d384610299565b6106b8565b610299565b9050919050565b6000819050919050565b6106f7836106c2565b61070b610703826106e4565b848454610666565b825550505050565b600090565b610720610713565b61072b8184846106ee565b505050565b5b8181101561074f57610744600082610718565b600181019050610731565b5050565b601f8211156107945761076581610634565b61076e84610649565b8101602085101561077d578190505b61079161078985610649565b830182610730565b50505b505050565b600082821c905092915050565b60006107b760001984600802610799565b1980831691505092915050565b60006107d083836107a6565b9150826002028217905092915050565b6107e982610525565b67ffffffffffffffff81111561080257610801610355565b5b61080c8254610603565b610817828285610753565b600060209050601f83116001811461084a5760008415610838578287015190505b61084285826107c4565b8655506108aa565b601f19841661085886610634565b60005b828110156108805784890151825560018201915060208501945060208101905061085b565b8683101561089d5784890151610899601f8916826107a6565b8355505b6001600288020188555050505b505050505050565b600081905092915050565b60006108c882610525565b6108d281856108b2565b93506108e2818560208601610541565b80840191505092915050565b60006108fa82846108bd565b91508190509291505056fea2646970667358221220d84bd1c490e52dc925ddef0d2b7614fe6f1ef2b88e7739318e3866d0fc1b9cd064736f6c634300081f0033a264697066735822122036187e94244ab5c9e45fae1692613ace05af4e4a62d8ba0f2cb2e1350060a25a64736f6c634300081f0033",
					"opcodes": "PUSH1 0x80 PUSH1 0x40 MSTORE CALLVALUE DUP1 ISZERO PUSH1 0xF JUMPI PUSH1 0x0 DUP1 REVERT JUMPDEST POP PUSH2 0xE89 DUP1 PUSH2 0x1F PUSH1 0x0 CODECOPY PUSH1 0x0 RETURN INVALID PUSH1 0x80 PUSH1 0x40 MSTORE CALLVALUE DUP1 ISZERO PUSH2 0x10 JUMPI PUSH1 0x0 DUP1 REVERT JUMPDEST POP PUSH1 0x4 CALLDATASIZE LT PUSH2 0x4C JUMPI PUSH1 0x0 CALLDATALOAD PUSH1 0xE0 SHR DUP1 PUSH4 0x1DDA6541 EQ PUSH2 0x51 JUMPI DUP1 PUSH4 0x64591BF1 EQ PUSH2 0x5B JUMPI DUP1 PUSH4 0xC5F19C20 EQ PUSH2 0x8B JUMPI DUP1 PUSH4 0xCAEC2A5A EQ PUSH2 0xBB JUMPI JUMPDEST PUSH1 0x0 DUP1 REVERT JUMPDEST PUSH2 0x59 PUSH2 0xD7 JUMP JUMPDEST STOP JUMPDEST PUSH2 0x75 PUSH1 0x4 DUP1 CALLDATASIZE SUB DUP2 ADD SWAP1 PUSH2 0x70 SWAP2 SWAP1 PUSH2 0x357 JUMP JUMPDEST PUSH2 0x16A JUMP JUMPDEST PUSH1 0x40 MLOAD PUSH2 0x82 SWAP2 SWAP1 PUSH2 0x403 JUMP JUMPDEST PUSH1 0x40 MLOAD DUP1 SWAP2 SUB SWAP1 RETURN JUMPDEST PUSH2 0xA5 PUSH1 0x4 DUP1 CALLDATASIZE SUB DUP2 ADD SWAP1 PUSH2 0xA0 SWAP2 SWAP1 PUSH2 0x357 JUMP JUMPDEST PUSH2 0x1A9 JUMP JUMPDEST PUSH1 0x40 MLOAD PUSH2 0xB2 SWAP2 SWAP1 PUSH2 0x42D JUMP JUMPDEST PUSH1 0x40 MLOAD DUP1 SWAP2 SUB SWAP1 RETURN JUMPDEST PUSH2 0xD5 PUSH1 0x4 DUP1 CALLDATASIZE SUB DUP2 ADD SWAP1 PUSH2 0xD0 SWAP2 SWAP1 PUSH2 0x448 JUMP JUMPDEST PUSH2 0x25D JUMP JUMPDEST STOP JUMPDEST PUSH1 0x0 PUSH1 0x40 MLOAD PUSH2 0xE5 SWAP1 PUSH2 0x30F JUMP JUMPDEST PUSH1 0x40 MLOAD DUP1 SWAP2 SUB SWAP1 PUSH1 0x0 CREATE DUP1 ISZERO DUP1 ISZERO PUSH2 0x101 JUMPI RETURNDATASIZE PUSH1 0x0 DUP1 RETURNDATACOPY RETURNDATASIZE PUSH1 0x0 REVERT JUMPDEST POP SWAP1 POP PUSH1 0x0 DUP2 SWAP1 DUP1 PUSH1 0x1 DUP2 SLOAD ADD DUP1 DUP3 SSTORE DUP1 SWAP2 POP POP PUSH1 0x1 SWAP1 SUB SWAP1 PUSH1 0x0 MSTORE PUSH1 0x20 PUSH1 0x0 KECCAK256 ADD PUSH1 0x0 SWAP1 SWAP2 SWAP1 SWAP2 SWAP1 SWAP2 PUSH2 0x100 EXP DUP2 SLOAD DUP2 PUSH20 0xFFFFFFFFFFFFFFFFFFFFFFFFFFFFFFFFFFFFFFFF MUL NOT AND SWAP1 DUP4 PUSH20 0xFFFFFFFFFFFFFFFFFFFFFFFFFFFFFFFFFFFFFFFF AND MUL OR SWAP1 SSTORE POP POP JUMP JUMPDEST PUSH1 0x0 DUP2 DUP2 SLOAD DUP2 LT PUSH2 0x17A JUMPI PUSH1 0x0 DUP1 REVERT JUMPDEST SWAP1 PUSH1 0x0 MSTORE PUSH1 0x20 PUSH1 0x0 KECCAK256 ADD PUSH1 0x0 SWAP2 POP SLOAD SWAP1 PUSH2 0x100 EXP SWAP1 DIV PUSH20 0xFFFFFFFFFFFFFFFFFFFFFFFFFFFFFFFFFFFFFFFF AND DUP2 JUMP JUMPDEST PUSH1 0x0 DUP1 DUP3 DUP2 SLOAD DUP2 LT PUSH2 0x1BE JUMPI PUSH2 0x1BD PUSH2 0x488 JUMP JUMPDEST JUMPDEST SWAP1 PUSH1 0x0 MSTORE PUSH1 0x20 PUSH1 0x0 KECCAK256 ADD PUSH1 0x0 SWAP1 SLOAD SWAP1 PUSH2 0x100 EXP SWAP1 DIV PUSH20 0xFFFFFFFFFFFFFFFFFFFFFFFFFFFFFFFFFFFFFFFF AND PUSH20 0xFFFFFFFFFFFFFFFFFFFFFFFFFFFFFFFFFFFFFFFF AND PUSH4 0x2E64CEC1 PUSH1 0x40 MLOAD DUP2 PUSH4 0xFFFFFFFF AND PUSH1 0xE0 SHL DUP2 MSTORE PUSH1 0x4 ADD PUSH1 0x20 PUSH1 0x40 MLOAD DUP1 DUP4 SUB DUP2 DUP7 GAS STATICCALL ISZERO DUP1 ISZERO PUSH2 0x233 JUMPI RETURNDATASIZE PUSH1 0x0 DUP1 RETURNDATACOPY RETURNDATASIZE PUSH1 0x0 REVERT JUMPDEST POP POP POP POP PUSH1 0x40 MLOAD RETURNDATASIZE PUSH1 0x1F NOT PUSH1 0x1F DUP3 ADD AND DUP3 ADD DUP1 PUSH1 0x40 MSTORE POP DUP2 ADD SWAP1 PUSH2 0x257 SWAP2 SWAP1 PUSH2 0x4CC JUMP JUMPDEST POP SWAP2 SWAP1 POP JUMP JUMPDEST PUSH1 0x0 DUP1 DUP4 DUP2 SLOAD DUP2 LT PUSH2 0x272 JUMPI PUSH2 0x271 PUSH2 0x488 JUMP JUMPDEST JUMPDEST SWAP1 PUSH1 0x0 MSTORE PUSH1 0x20 PUSH1 0x0 KECCAK256 ADD PUSH1 0x0 SWAP1 SLOAD SWAP1 PUSH2 0x100 EXP SWAP1 DIV PUSH20 0xFFFFFFFFFFFFFFFFFFFFFFFFFFFFFFFFFFFFFFFF AND SWAP1 POP DUP1 PUSH20 0xFFFFFFFFFFFFFFFFFFFFFFFFFFFFFFFFFFFFFFFF AND PUSH4 0x6057361D DUP4 PUSH1 0x40 MLOAD DUP3 PUSH4 0xFFFFFFFF AND PUSH1 0xE0 SHL DUP2 MSTORE PUSH1 0x4 ADD PUSH2 0x2D8 SWAP2 SWAP1 PUSH2 0x42D JUMP JUMPDEST PUSH1 0x0 PUSH1 0x40 MLOAD DUP1 DUP4 SUB DUP2 PUSH1 0x0 DUP8 DUP1 EXTCODESIZE ISZERO DUP1 ISZERO PUSH2 0x2F2 JUMPI PUSH1 0x0 DUP1 REVERT JUMPDEST POP GAS CALL ISZERO DUP1 ISZERO PUSH2 0x306 JUMPI RETURNDATASIZE PUSH1 0x0 DUP1 RETURNDATACOPY RETURNDATASIZE PUSH1 0x0 REVERT JUMPDEST POP POP POP POP POP POP POP JUMP JUMPDEST PUSH2 0x95A DUP1 PUSH2 0x4FA DUP4 CODECOPY ADD SWAP1 JUMP JUMPDEST PUSH1 0x0 DUP1 REVERT JUMPDEST PUSH1 0x0 DUP2 SWAP1 POP SWAP2 SWAP1 POP JUMP JUMPDEST PUSH2 0x334 DUP2 PUSH2 0x321 JUMP JUMPDEST DUP2 EQ PUSH2 0x33F JUMPI PUSH1 0x0 DUP1 REVERT JUMPDEST POP JUMP JUMPDEST PUSH1 0x0 DUP2 CALLDATALOAD SWAP1 POP PUSH2 0x351 DUP2 PUSH2 0x32B JUMP JUMPDEST SWAP3 SWAP2 POP POP JUMP JUMPDEST PUSH1 0x0 PUSH1 0x20 DUP3 DUP5 SUB SLT ISZERO PUSH2 0x36D JUMPI PUSH2 0x36C PUSH2 0x31C JUMP JUMPDEST JUMPDEST PUSH1 0x0 PUSH2 0x37B DUP5 DUP3 DUP6 ADD PUSH2 0x342 JUMP JUMPDEST SWAP2 POP POP SWAP3 SWAP2 POP POP JUMP JUMPDEST PUSH1 0x0 PUSH20 0xFFFFFFFFFFFFFFFFFFFFFFFFFFFFFFFFFFFFFFFF DUP3 AND SWAP1 POP SWAP2 SWAP1 POP JUMP JUMPDEST PUSH1 0x0 DUP2 SWAP1 POP SWAP2 SWAP1 POP JUMP JUMPDEST PUSH1 0x0 PUSH2 0x3C9 PUSH2 0x3C4 PUSH2 0x3BF DUP5 PUSH2 0x384 JUMP JUMPDEST PUSH2 0x3A4 JUMP JUMPDEST PUSH2 0x384 JUMP JUMPDEST SWAP1 POP SWAP2 SWAP1 POP JUMP JUMPDEST PUSH1 0x0 PUSH2 0x3DB DUP3 PUSH2 0x3AE JUMP JUMPDEST SWAP1 POP SWAP2 SWAP1 POP JUMP JUMPDEST PUSH1 0x0 PUSH2 0x3ED DUP3 PUSH2 0x3D0 JUMP JUMPDEST SWAP1 POP SWAP2 SWAP1 POP JUMP JUMPDEST PUSH2 0x3FD DUP2 PUSH2 0x3E2 JUMP JUMPDEST DUP3 MSTORE POP POP JUMP JUMPDEST PUSH1 0x0 PUSH1 0x20 DUP3 ADD SWAP1 POP PUSH2 0x418 PUSH1 0x0 DUP4 ADD DUP5 PUSH2 0x3F4 JUMP JUMPDEST SWAP3 SWAP2 POP POP JUMP JUMPDEST PUSH2 0x427 DUP2 PUSH2 0x321 JUMP JUMPDEST DUP3 MSTORE POP POP JUMP JUMPDEST PUSH1 0x0 PUSH1 0x20 DUP3 ADD SWAP1 POP PUSH2 0x442 PUSH1 0x0 DUP4 ADD DUP5 PUSH2 0x41E JUMP JUMPDEST SWAP3 SWAP2 POP POP JUMP JUMPDEST PUSH1 0x0 DUP1 PUSH1 0x40 DUP4 DUP6 SUB SLT ISZERO PUSH2 0x45F JUMPI PUSH2 0x45E PUSH2 0x31C JUMP JUMPDEST JUMPDEST PUSH1 0x0 PUSH2 0x46D DUP6 DUP3 DUP7 ADD PUSH2 0x342 JUMP JUMPDEST SWAP3 POP POP PUSH1 0x20 PUSH2 0x47E DUP6 DUP3 DUP7 ADD PUSH2 0x342 JUMP JUMPDEST SWAP2 POP POP SWAP3 POP SWAP3 SWAP1 POP JUMP JUMPDEST PUSH32 0x4E487B7100000000000000000000000000000000000000000000000000000000 PUSH1 0x0 MSTORE PUSH1 0x32 PUSH1 0x4 MSTORE PUSH1 0x24 PUSH1 0x0 REVERT JUMPDEST PUSH1 0x0 DUP2 MLOAD SWAP1 POP PUSH2 0x4C6 DUP2 PUSH2 0x32B JUMP JUMPDEST SWAP3 SWAP2 POP POP JUMP JUMPDEST PUSH1 0x0 PUSH1 0x20 DUP3 DUP5 SUB SLT ISZERO PUSH2 0x4E2 JUMPI PUSH2 0x4E1 PUSH2 0x31C JUMP JUMPDEST JUMPDEST PUSH1 0x0 PUSH2 0x4F0 DUP5 DUP3 DUP6 ADD PUSH2 0x4B7 JUMP JUMPDEST SWAP2 POP POP SWAP3 SWAP2 POP POP JUMP INVALID PUSH1 0x80 PUSH1 0x40 MSTORE CALLVALUE DUP1 ISZERO PUSH1 0xF JUMPI PUSH1 0x0 DUP1 REVERT JUMPDEST POP PUSH2 0x93B DUP1 PUSH2 0x1F PUSH1 0x0 CODECOPY PUSH1 0x0 RETURN INVALID PUSH1 0x80 PUSH1 0x40 MSTORE CALLVALUE DUP1 ISZERO PUSH2 0x10 JUMPI PUSH1 0x0 DUP1 REVERT JUMPDEST POP PUSH1 0x4 CALLDATASIZE LT PUSH2 0x57 JUMPI PUSH1 0x0 CALLDATALOAD PUSH1 0xE0 SHR DUP1 PUSH4 0x2E64CEC1 EQ PUSH2 0x5C JUMPI DUP1 PUSH4 0x6057361D EQ PUSH2 0x7A JUMPI DUP1 PUSH4 0x6F760F41 EQ PUSH2 0x96 JUMPI DUP1 PUSH4 0x8BAB8DD5 EQ PUSH2 0xB2 JUMPI DUP1 PUSH4 0x9E7A13AD EQ PUSH2 0xE2 JUMPI JUMPDEST PUSH1 0x0 DUP1 REVERT JUMPDEST PUSH2 0x64 PUSH2 0x113 JUMP JUMPDEST PUSH1 0x40 MLOAD PUSH2 0x71 SWAP2 SWAP1 PUSH2 0x2B2 JUMP JUMPDEST PUSH1 0x40 MLOAD DUP1 SWAP2 SUB SWAP1 RETURN JUMPDEST PUSH2 0x94 PUSH1 0x4 DUP1 CALLDATASIZE SUB DUP2 ADD SWAP1 PUSH2 0x8F SWAP2 SWAP1 PUSH2 0x30D JUMP JUMPDEST PUSH2 0x11C JUMP JUMPDEST STOP JUMPDEST PUSH2 0xB0 PUSH1 0x4 DUP1 CALLDATASIZE SUB DUP2 ADD SWAP1 PUSH2 0xAB SWAP2 SWAP1 PUSH2 0x480 JUMP JUMPDEST PUSH2 0x126 JUMP JUMPDEST STOP JUMPDEST PUSH2 0xCC PUSH1 0x4 DUP1 CALLDATASIZE SUB DUP2 ADD SWAP1 PUSH2 0xC7 SWAP2 SWAP1 PUSH2 0x4DC JUMP JUMPDEST PUSH2 0x1AF JUMP JUMPDEST PUSH1 0x40 MLOAD PUSH2 0xD9 SWAP2 SWAP1 PUSH2 0x2B2 JUMP JUMPDEST PUSH1 0x40 MLOAD DUP1 SWAP2 SUB SWAP1 RETURN JUMPDEST PUSH2 0xFC PUSH1 0x4 DUP1 CALLDATASIZE SUB DUP2 ADD SWAP1 PUSH2 0xF7 SWAP2 SWAP1 PUSH2 0x30D JUMP JUMPDEST PUSH2 0x1DD JUMP JUMPDEST PUSH1 0x40 MLOAD PUSH2 0x10A SWAP3 SWAP2 SWAP1 PUSH2 0x5A4 JUMP JUMPDEST PUSH1 0x40 MLOAD DUP1 SWAP2 SUB SWAP1 RETURN JUMPDEST PUSH1 0x0 DUP1 SLOAD SWAP1 POP SWAP1 JUMP JUMPDEST DUP1 PUSH1 0x0 DUP2 SWAP1 SSTORE POP POP JUMP JUMPDEST PUSH1 0x2 PUSH1 0x40 MLOAD DUP1 PUSH1 0x40 ADD PUSH1 0x40 MSTORE DUP1 DUP4 DUP2 MSTORE PUSH1 0x20 ADD DUP5 DUP2 MSTORE POP SWAP1 DUP1 PUSH1 0x1 DUP2 SLOAD ADD DUP1 DUP3 SSTORE DUP1 SWAP2 POP POP PUSH1 0x1 SWAP1 SUB SWAP1 PUSH1 0x0 MSTORE PUSH1 0x20 PUSH1 0x0 KECCAK256 SWAP1 PUSH1 0x2 MUL ADD PUSH1 0x0 SWAP1 SWAP2 SWAP1 SWAP2 SWAP1 SWAP2 POP PUSH1 0x0 DUP3 ADD MLOAD DUP2 PUSH1 0x0 ADD SSTORE PUSH1 0x20 DUP3 ADD MLOAD DUP2 PUSH1 0x1 ADD SWAP1 DUP2 PUSH2 0x185 SWAP2 SWAP1 PUSH2 0x7E0 JUMP JUMPDEST POP POP POP DUP1 PUSH1 0x1 DUP4 PUSH1 0x40 MLOAD PUSH2 0x199 SWAP2 SWAP1 PUSH2 0x8EE JUMP JUMPDEST SWAP1 DUP2 MSTORE PUSH1 0x20 ADD PUSH1 0x40 MLOAD DUP1 SWAP2 SUB SWAP1 KECCAK256 DUP2 SWAP1 SSTORE POP POP POP JUMP JUMPDEST PUSH1 0x1 DUP2 DUP1 MLOAD PUSH1 0x20 DUP2 ADD DUP3 ADD DUP1 MLOAD DUP5 DUP3 MSTORE PUSH1 0x20 DUP4 ADD PUSH1 0x20 DUP6 ADD KECCAK256 DUP2 DUP4 MSTORE DUP1 SWAP6 POP POP POP POP POP POP PUSH1 0x0 SWAP2 POP SWAP1 POP SLOAD DUP2 JUMP JUMPDEST PUSH1 0x2 DUP2 DUP2 SLOAD DUP2 LT PUSH2 0x1ED JUMPI PUSH1 0x0 DUP1 REVERT JUMPDEST SWAP1 PUSH1 0x0 MSTORE PUSH1 0x20 PUSH1 0x0 KECCAK256 SWAP1 PUSH1 0x2 MUL ADD PUSH1 0x0 SWAP2 POP SWAP1 POP DUP1 PUSH1 0x0 ADD SLOAD SWAP1 DUP1 PUSH1 0x1 ADD DUP1 SLOAD PUSH2 0x216 SWAP1 PUSH2 0x603 JUMP JUMPDEST DUP1 PUSH1 0x1F ADD PUSH1 0x20 DUP1 SWAP2 DIV MUL PUSH1 0x20 ADD PUSH1 0x40 MLOAD SWAP1 DUP2 ADD PUSH1 0x40 MSTORE DUP1 SWAP3 SWAP2 SWAP1 DUP2 DUP2 MSTORE PUSH1 0x20 ADD DUP3 DUP1 SLOAD PUSH2 0x242 SWAP1 PUSH2 0x603 JUMP JUMPDEST DUP1 ISZERO PUSH2 0x28F JUMPI DUP1 PUSH1 0x1F LT PUSH2 0x264 JUMPI PUSH2 0x100 DUP1 DUP4 SLOAD DIV MUL DUP4 MSTORE SWAP2 PUSH1 0x20 ADD SWAP2 PUSH2 0x28F JUMP JUMPDEST DUP3 ADD SWAP2 SWAP1 PUSH1 0x0 MSTORE PUSH1 0x20 PUSH1 0x0 KECCAK256 SWAP1 JUMPDEST DUP2 SLOAD DUP2 MSTORE SWAP1 PUSH1 0x1 ADD SWAP1 PUSH1 0x20 ADD DUP1 DUP4 GT PUSH2 0x272 JUMPI DUP3 SWAP1 SUB PUSH1 0x1F AND DUP3 ADD SWAP2 JUMPDEST POP POP POP POP POP SWAP1 POP DUP3 JUMP JUMPDEST PUSH1 0x0 DUP2 SWAP1 POP SWAP2 SWAP1 POP JUMP JUMPDEST PUSH2 0x2AC DUP2 PUSH2 0x299 JUMP JUMPDEST DUP3 MSTORE POP POP JUMP JUMPDEST PUSH1 0x0 PUSH1 0x20 DUP3 ADD SWAP1 POP PUSH2 0x2C7 PUSH1 0x0 DUP4 ADD DUP5 PUSH2 0x2A3 JUMP JUMPDEST SWAP3 SWAP2 POP POP JUMP JUMPDEST PUSH1 0x0 PUSH1 0x40 MLOAD SWAP1 POP SWAP1 JUMP JUMPDEST PUSH1 0x0 DUP1 REVERT JUMPDEST PUSH1 0x0 DUP1 REVERT JUMPDEST PUSH2 0x2EA DUP2 PUSH2 0x299 JUMP JUMPDEST DUP2 EQ PUSH2 0x2F5 JUMPI PUSH1 0x0 DUP1 REVERT JUMPDEST POP JUMP JUMPDEST PUSH1 0x0 DUP2 CALLDATALOAD SWAP1 POP PUSH2 0x307 DUP2 PUSH2 0x2E1 JUMP JUMPDEST SWAP3 SWAP2 POP POP JUMP JUMPDEST PUSH1 0x0 PUSH1 0x20 DUP3 DUP5 SUB SLT ISZERO PUSH2 0x323 JUMPI PUSH2 0x322 PUSH2 0x2D7 JUMP JUMPDEST JUMPDEST PUSH1 0x0 PUSH2 0x331 DUP5 DUP3 DUP6 ADD PUSH2 0x2F8 JUMP JUMPDEST SWAP2 POP POP SWAP3 SWAP2 POP POP JUMP JUMPDEST PUSH1 0x0 DUP1 REVERT JUMPDEST PUSH1 0x0 DUP1 REVERT JUMPDEST PUSH1 0x0 PUSH1 0x1F NOT PUSH1 0x1F DUP4 ADD AND SWAP1 POP SWAP2 SWAP1 POP JUMP JUMPDEST PUSH32 0x4E487B7100000000000000000000000000000000000000000000000000000000 PUSH1 0x0 MSTORE PUSH1 0x41 PUSH1 0x4 MSTORE PUSH1 0x24 PUSH1 0x0 REVERT JUMPDEST PUSH2 0x38D DUP3 PUSH2 0x344 JUMP JUMPDEST DUP2 ADD DUP2 DUP2 LT PUSH8 0xFFFFFFFFFFFFFFFF DUP3 GT OR ISZERO PUSH2 0x3AC JUMPI PUSH2 0x3AB PUSH2 0x355 JUMP JUMPDEST JUMPDEST DUP1 PUSH1 0x40 MSTORE POP POP POP JUMP JUMPDEST PUSH1 0x0 PUSH2 0x3BF PUSH2 0x2CD JUMP JUMPDEST SWAP1 POP PUSH2 0x3CB DUP3 DUP3 PUSH2 0x384 JUMP JUMPDEST SWAP2 SWAP1 POP JUMP JUMPDEST PUSH1 0x0 PUSH8 0xFFFFFFFFFFFFFFFF DUP3 GT ISZERO PUSH2 0x3EB JUMPI PUSH2 0x3EA PUSH2 0x355 JUMP JUMPDEST JUMPDEST PUSH2 0x3F4 DUP3 PUSH2 0x344 JUMP JUMPDEST SWAP1 POP PUSH1 0x20 DUP2 ADD SWAP1 POP SWAP2 SWAP1 POP JUMP JUMPDEST DUP3 DUP2 DUP4 CALLDATACOPY PUSH1 0x0 DUP4 DUP4 ADD MSTORE POP POP POP JUMP JUMPDEST PUSH1 0x0 PUSH2 0x423 PUSH2 0x41E DUP5 PUSH2 0x3D0 JUMP JUMPDEST PUSH2 0x3B5 JUMP JUMPDEST SWAP1 POP DUP3 DUP2 MSTORE PUSH1 0x20 DUP2 ADD DUP5 DUP5 DUP5 ADD GT ISZERO PUSH2 0x43F JUMPI PUSH2 0x43E PUSH2 0x33F JUMP JUMPDEST JUMPDEST PUSH2 0x44A DUP5 DUP3 DUP6 PUSH2 0x401 JUMP JUMPDEST POP SWAP4 SWAP3 POP POP POP JUMP JUMPDEST PUSH1 0x0 DUP3 PUSH1 0x1F DUP4 ADD SLT PUSH2 0x467 JUMPI PUSH2 0x466 PUSH2 0x33A JUMP JUMPDEST JUMPDEST DUP2 CALLDATALOAD PUSH2 0x477 DUP5 DUP3 PUSH1 0x20 DUP7 ADD PUSH2 0x410 JUMP JUMPDEST SWAP2 POP POP SWAP3 SWAP2 POP POP JUMP JUMPDEST PUSH1 0x0 DUP1 PUSH1 0x40 DUP4 DUP6 SUB SLT ISZERO PUSH2 0x497 JUMPI PUSH2 0x496 PUSH2 0x2D7 JUMP JUMPDEST JUMPDEST PUSH1 0x0 DUP4 ADD CALLDATALOAD PUSH8 0xFFFFFFFFFFFFFFFF DUP2 GT ISZERO PUSH2 0x4B5 JUMPI PUSH2 0x4B4 PUSH2 0x2DC JUMP JUMPDEST JUMPDEST PUSH2 0x4C1 DUP6 DUP3 DUP7 ADD PUSH2 0x452 JUMP JUMPDEST SWAP3 POP POP PUSH1 0x20 PUSH2 0x4D2 DUP6 DUP3 DUP7 ADD PUSH2 0x2F8 JUMP JUMPDEST SWAP2 POP POP SWAP3 POP SWAP3 SWAP1 POP JUMP JUMPDEST PUSH1 0x0 PUSH1 0x20 DUP3 DUP5 SUB SLT ISZERO PUSH2 0x4F2 JUMPI PUSH2 0x4F1 PUSH2 0x2D7 JUMP JUMPDEST JUMPDEST PUSH1 0x0 DUP3 ADD CALLDATALOAD PUSH8 0xFFFFFFFFFFFFFFFF DUP2 GT ISZERO PUSH2 0x510 JUMPI PUSH2 0x50F PUSH2 0x2DC JUMP JUMPDEST JUMPDEST PUSH2 0x51C DUP5 DUP3 DUP6 ADD PUSH2 0x452 JUMP JUMPDEST SWAP2 POP POP SWAP3 SWAP2 POP POP JUMP JUMPDEST PUSH1 0x0 DUP2 MLOAD SWAP1 POP SWAP2 SWAP1 POP JUMP JUMPDEST PUSH1 0x0 DUP3 DUP3 MSTORE PUSH1 0x20 DUP3 ADD SWAP1 POP SWAP3 SWAP2 POP POP JUMP JUMPDEST PUSH1 0x0 JUMPDEST DUP4 DUP2 LT ISZERO PUSH2 0x55F JUMPI DUP1 DUP3 ADD MLOAD DUP2 DUP5 ADD MSTORE PUSH1 0x20 DUP2 ADD SWAP1 POP PUSH2 0x544 JUMP JUMPDEST PUSH1 0x0 DUP5 DUP5 ADD MSTORE POP POP POP POP JUMP JUMPDEST PUSH1 0x0 PUSH2 0x576 DUP3 PUSH2 0x525 JUMP JUMPDEST PUSH2 0x580 DUP2 DUP6 PUSH2 0x530 JUMP JUMPDEST SWAP4 POP PUSH2 0x590 DUP2 DUP6 PUSH1 0x20 DUP7 ADD PUSH2 0x541 JUMP JUMPDEST PUSH2 0x599 DUP2 PUSH2 0x344 JUMP JUMPDEST DUP5 ADD SWAP2 POP POP SWAP3 SWAP2 POP POP JUMP JUMPDEST PUSH1 0x0 PUSH1 0x40 DUP3 ADD SWAP1 POP PUSH2 0x5B9 PUSH1 0x0 DUP4 ADD DUP6 PUSH2 0x2A3 JUMP JUMPDEST DUP2 DUP2 SUB PUSH1 0x20 DUP4 ADD MSTORE PUSH2 0x5CB DUP2 DUP5 PUSH2 0x56B JUMP JUMPDEST SWAP1 POP SWAP4 SWAP3 POP POP POP JUMP JUMPDEST PUSH32 0x4E487B7100000000000000000000000000000000000000000000000000000000 PUSH1 0x0 MSTORE PUSH1 0x22 PUSH1 0x4 MSTORE PUSH1 0x24 PUSH1 0x0 REVERT JUMPDEST PUSH1 0x0 PUSH1 0x2 DUP3 DIV SWAP1 POP PUSH1 0x1 DUP3 AND DUP1 PUSH2 0x61B JUMPI PUSH1 0x7F DUP3 AND SWAP2 POP JUMPDEST PUSH1 0x20 DUP3 LT DUP2 SUB PUSH2 0x62E JUMPI PUSH2 0x62D PUSH2 0x5D4 JUMP JUMPDEST JUMPDEST POP SWAP2 SWAP1 POP JUMP JUMPDEST PUSH1 0x0 DUP2 SWAP1 POP DUP2 PUSH1 0x0 MSTORE PUSH1 0x20 PUSH1 0x0 KECCAK256 SWAP1 POP SWAP2 SWAP1 POP JUMP JUMPDEST PUSH1 0x0 PUSH1 0x20 PUSH1 0x1F DUP4 ADD DIV SWAP1 POP SWAP2 SWAP1 POP JUMP JUMPDEST PUSH1 0x0 DUP3 DUP3 SHL SWAP1 POP SWAP3 SWAP2 POP POP JUMP JUMPDEST PUSH1 0x0 PUSH1 0x8 DUP4 MUL PUSH2 0x696 PUSH32 0xFFFFFFFFFFFFFFFFFFFFFFFFFFFFFFFFFFFFFFFFFFFFFFFFFFFFFFFFFFFFFFFF DUP3 PUSH2 0x659 JUMP JUMPDEST PUSH2 0x6A0 DUP7 DUP4 PUSH2 0x659 JUMP JUMPDEST SWAP6 POP DUP1 NOT DUP5 AND SWAP4 POP DUP1 DUP7 AND DUP5 OR SWAP3 POP POP POP SWAP4 SWAP3 POP POP POP JUMP JUMPDEST PUSH1 0x0 DUP2 SWAP1 POP SWAP2 SWAP1 POP JUMP JUMPDEST PUSH1 0x0 PUSH2 0x6DD PUSH2 0x6D8 PUSH2 0x6D3 DUP5 PUSH2 0x299 JUMP JUMPDEST PUSH2 0x6B8 JUMP JUMPDEST PUSH2 0x299 JUMP JUMPDEST SWAP1 POP SWAP2 SWAP1 POP JUMP JUMPDEST PUSH1 0x0 DUP2 SWAP1 POP SWAP2 SWAP1 POP JUMP JUMPDEST PUSH2 0x6F7 DUP4 PUSH2 0x6C2 JUMP JUMPDEST PUSH2 0x70B PUSH2 0x703 DUP3 PUSH2 0x6E4 JUMP JUMPDEST DUP5 DUP5 SLOAD PUSH2 0x666 JUMP JUMPDEST DUP3 SSTORE POP POP POP POP JUMP JUMPDEST PUSH1 0x0 SWAP1 JUMP JUMPDEST PUSH2 0x720 PUSH2 0x713 JUMP JUMPDEST PUSH2 0x72B DUP2 DUP5 DUP5 PUSH2 0x6EE JUMP JUMPDEST POP POP POP JUMP JUMPDEST JUMPDEST DUP2 DUP2 LT ISZERO PUSH2 0x74F JUMPI PUSH2 0x744 PUSH1 0x0 DUP3 PUSH2 0x718 JUMP JUMPDEST PUSH1 0x1 DUP2 ADD SWAP1 POP PUSH2 0x731 JUMP JUMPDEST POP POP JUMP JUMPDEST PUSH1 0x1F DUP3 GT ISZERO PUSH2 0x794 JUMPI PUSH2 0x765 DUP2 PUSH2 0x634 JUMP JUMPDEST PUSH2 0x76E DUP5 PUSH2 0x649 JUMP JUMPDEST DUP2 ADD PUSH1 0x20 DUP6 LT ISZERO PUSH2 0x77D JUMPI DUP2 SWAP1 POP JUMPDEST PUSH2 0x791 PUSH2 0x789 DUP6 PUSH2 0x649 JUMP JUMPDEST DUP4 ADD DUP3 PUSH2 0x730 JUMP JUMPDEST POP POP JUMPDEST POP POP POP JUMP JUMPDEST PUSH1 0x0 DUP3 DUP3 SHR SWAP1 POP SWAP3 SWAP2 POP POP JUMP JUMPDEST PUSH1 0x0 PUSH2 0x7B7 PUSH1 0x0 NOT DUP5 PUSH1 0x8 MUL PUSH2 0x799 JUMP JUMPDEST NOT DUP1 DUP4 AND SWAP2 POP POP SWAP3 SWAP2 POP POP JUMP JUMPDEST PUSH1 0x0 PUSH2 0x7D0 DUP4 DUP4 PUSH2 0x7A6 JUMP JUMPDEST SWAP2 POP DUP3 PUSH1 0x2 MUL DUP3 OR SWAP1 POP SWAP3 SWAP2 POP POP JUMP JUMPDEST PUSH2 0x7E9 DUP3 PUSH2 0x525 JUMP JUMPDEST PUSH8 0xFFFFFFFFFFFFFFFF DUP2 GT ISZERO PUSH2 0x802 JUMPI PUSH2 0x801 PUSH2 0x355 JUMP JUMPDEST JUMPDEST PUSH2 0x80C DUP3 SLOAD PUSH2 0x603 JUMP JUMPDEST PUSH2 0x817 DUP3 DUP3 DUP6 PUSH2 0x753 JUMP JUMPDEST PUSH1 0x0 PUSH1 0x20 SWAP1 POP PUSH1 0x1F DUP4 GT PUSH1 0x1 DUP2 EQ PUSH2 0x84A JUMPI PUSH1 0x0 DUP5 ISZERO PUSH2 0x838 JUMPI DUP3 DUP8 ADD MLOAD SWAP1 POP JUMPDEST PUSH2 0x842 DUP6 DUP3 PUSH2 0x7C4 JUMP JUMPDEST DUP7 SSTORE POP PUSH2 0x8AA JUMP JUMPDEST PUSH1 0x1F NOT DUP5 AND PUSH2 0x858 DUP7 PUSH2 0x634 JUMP JUMPDEST PUSH1 0x0 JUMPDEST DUP3 DUP2 LT ISZERO PUSH2 0x880 JUMPI DUP5 DUP10 ADD MLOAD DUP3 SSTORE PUSH1 0x1 DUP3 ADD SWAP2 POP PUSH1 0x20 DUP6 ADD SWAP5 POP PUSH1 0x20 DUP2 ADD SWAP1 POP PUSH2 0x85B JUMP JUMPDEST DUP7 DUP4 LT ISZERO PUSH2 0x89D JUMPI DUP5 DUP10 ADD MLOAD PUSH2 0x899 PUSH1 0x1F DUP10 AND DUP3 PUSH2 0x7A6 JUMP JUMPDEST DUP4 SSTORE POP JUMPDEST PUSH1 0x1 PUSH1 0x2 DUP9 MUL ADD DUP9 SSTORE POP POP POP JUMPDEST POP POP POP POP POP POP JUMP JUMPDEST PUSH1 0x0 DUP2 SWAP1 POP SWAP3 SWAP2 POP POP JUMP JUMPDEST PUSH1 0x0 PUSH2 0x8C8 DUP3 PUSH2 0x525 JUMP JUMPDEST PUSH2 0x8D2 DUP2 DUP6 PUSH2 0x8B2 JUMP JUMPDEST SWAP4 POP PUSH2 0x8E2 DUP2 DUP6 PUSH1 0x20 DUP7 ADD PUSH2 0x541 JUMP JUMPDEST DUP1 DUP5 ADD SWAP2 POP POP SWAP3 SWAP2 POP POP JUMP JUMPDEST PUSH1 0x0 PUSH2 0x8FA DUP3 DUP5 PUSH2 0x8BD JUMP JUMPDEST SWAP2 POP DUP2 SWAP1 POP SWAP3 SWAP2 POP POP JUMP INVALID LOG2 PUSH5 0x6970667358 0x22 SLT KECCAK256 0xD8 0x4B DATALOADN 0xC490 JUMPF 0x2DC9 0x25 0xDD 0xEF 0xD 0x2B PUSH23 0x14FE6F1EF2B88E7739318E3866D0FC1B9CD064736F6C63 NUMBER STOP ADDMOD 0x1F STOP CALLER LOG2 PUSH5 0x6970667358 0x22 SLT KECCAK256 CALLDATASIZE XOR PUSH31 0x94244AB5C9E45FAE1692613ACE05AF4E4A62D8BA0F2CB2E1350060A25A6473 PUSH16 0x6C634300081F00330000000000000000 "
				},
				"gasEstimates": {
					"creation": {
						"codeDepositCost": "744200",
						"executionCost": "779",
						"totalCost": "744979"
					},
					"external": {
						"createSimpleStorageContract()": "infinite",
						"sfGet(uint256)": "infinite",
						"sfstore(uint256,uint256)": "infinite",
						"simpleStorageArray(uint256)": "infinite"
					}
				},
				"methodIdentifiers": {
					"createSimpleStorageContract()": "1dda6541",
					"sfGet(uint256)": "c5f19c20",
					"sfstore(uint256,uint256)": "caec2a5a",
					"simpleStorageArray(uint256)": "64591bf1"
				}
			},
			"storageLayout": {
				"storage": [
					{
						"astId": 65,
						"contract": "contracts/StorageFactory.sol:StorageFactory",
						"label": "simpleStorageArray",
						"offset": 0,
						"slot": "0",
						"type": "t_array(t_contract(SimpleStorage)58)dyn_storage"
					}
				],
				"types": {
					"t_array(t_contract(SimpleStorage)58)dyn_storage": {
						"base": "t_contract(SimpleStorage)58",
						"encoding": "dynamic_array",
						"label": "contract SimpleStorage[]",
						"numberOfBytes": "32"
					},
					"t_contract(SimpleStorage)58": {
						"encoding": "inplace",
						"label": "contract SimpleStorage",
						"numberOfBytes": "20"
					}
				}
			},
			"userdoc": {
				"kind": "user",
				"methods": {},
				"version": 1
			}
		}
	}
}