{
	"contracts/SimpleStorage.sol": {
		"SimpleStorage": {
			"abi": [
				{
					"inputs": [
						{
							"internalType": "string",
							"name": "_name",
							"type": "string"
						},
						{
							"internalType": "uint256",
							"name": "_favoriteNumber",
							"type": "uint256"
						}
					],
					"name": "addPerson",
					"outputs": [],
					"stateMutability": "nonpayable",
					"type": "function"
				},
				{
					"inputs": [
						{
							"internalType": "uint256",
							"name": "",
							"type": "uint256"
						}
					],
					"name": "people",
					"outputs": [
						{
							"internalType": "uint256",
							"name": "favoriteNumber",
							"type": "uint256"
						},
						{
							"internalType": "string",
							"name": "name",
							"type": "string"
						}
					],
					"stateMutability": "view",
					"type": "function"
				},
				{
					"inputs": [],
					"name": "retrieve",
					"outputs": [
						{
							"internalType": "uint256",
							"name": "",
							"type": "uint256"
						}
					],
					"stateMutability": "view",
					"type": "function"
				},
				{
					"inputs": [
						{
							"internalType": "uint256",
							"name": "_favoriteNumber",
							"type": "uint256"
						}
					],
					"name": "store",
					"outputs": [],
					"stateMutability": "nonpayable",
					"type": "function"
				}
			],
			"devdoc": {
				"kind": "dev",
				"methods": {},
				"version": 1
			},
			"evm": {
				"assembly": "    /* \"contracts/SimpleStorage.sol\":61:985  contract SimpleStorage {... */\n  mstore(0x40, 0x80)\n  callvalue\n  dup1\n  iszero\n  tag_1\n  jumpi\n  revert(0x00, 0x00)\ntag_1:\n  pop\n  dataSize(sub_0)\n  dup1\n  dataOffset(sub_0)\n  0x00\n  codecopy\n  0x00\n  return\nstop\n\nsub_0: assembly {\n        /* \"contracts/SimpleStorage.sol\":61:985  contract SimpleStorage {... */\n      mstore(0x40, 0x80)\n      callvalue\n      dup1\n      iszero\n      tag_1\n      jumpi\n      revert(0x00, 0x00)\n    tag_1:\n      pop\n      jumpi(tag_2, lt(calldatasize, 0x04))\n      shr(0xe0, calldataload(0x00))\n      dup1\n      0x2e64cec1\n      eq\n      tag_3\n      jumpi\n      dup1\n      0x6057361d\n      eq\n      tag_4\n      jumpi\n      dup1\n      0x6f760f41\n      eq\n      tag_5\n      jumpi\n      dup1\n      0x9e7a13ad\n      eq\n      tag_6\n      jumpi\n    tag_2:\n      revert(0x00, 0x00)\n        /* \"contracts/SimpleStorage.sol\":606:695  function retrieve() public view returns(uint256) {... */\n    tag_3:\n      tag_7\n      tag_8\n      jump\t// in\n    tag_7:\n      mload(0x40)\n      tag_9\n      swap2\n      swap1\n      tag_10\n      jump\t// in\n    tag_9:\n      mload(0x40)\n      dup1\n      swap2\n      sub\n      swap1\n      return\n        /* \"contracts/SimpleStorage.sol\":462:566  function store(uint256 _favoriteNumber)public{... */\n    tag_4:\n      tag_11\n      0x04\n      dup1\n      calldatasize\n      sub\n      dup2\n      add\n      swap1\n      tag_12\n      swap2\n      swap1\n      tag_13\n      jump\t// in\n    tag_12:\n      tag_14\n      jump\t// in\n    tag_11:\n      stop\n        /* \"contracts/SimpleStorage.sol\":701:976  function addPerson(string memory _name, uint256 _favoriteNumber)public {... */\n    tag_5:\n      tag_15\n      0x04\n      dup1\n      calldatasize\n      sub\n      dup2\n      add\n      swap1\n      tag_16\n      swap2\n      swap1\n      tag_17\n      jump\t// in\n    tag_16:\n      tag_18\n      jump\t// in\n    tag_15:\n      stop\n        /* \"contracts/SimpleStorage.sol\":429:451  People[] public people */\n    tag_6:\n      tag_19\n      0x04\n      dup1\n      calldatasize\n      sub\n      dup2\n      add\n      swap1\n      tag_20\n      swap2\n      swap1\n      tag_13\n      jump\t// in\n    tag_20:\n      tag_21\n      jump\t// in\n    tag_19:\n      mload(0x40)\n      tag_22\n      swap3\n      swap2\n      swap1\n      tag_23\n      jump\t// in\n    tag_22:\n      mload(0x40)\n      dup1\n      swap2\n      sub\n      swap1\n      return\n        /* \"contracts/SimpleStorage.sol\":606:695  function retrieve() public view returns(uint256) {... */\n    tag_8:\n        /* \"contracts/SimpleStorage.sol\":646:653  uint256 */\n      0x00\n        /* \"contracts/SimpleStorage.sol\":673:687  favoriteNumber */\n      sload(0x00)\n        /* \"contracts/SimpleStorage.sol\":666:687  return favoriteNumber */\n      swap1\n      pop\n        /* \"contracts/SimpleStorage.sol\":606:695  function retrieve() public view returns(uint256) {... */\n      swap1\n      jump\t// out\n        /* \"contracts/SimpleStorage.sol\":462:566  function store(uint256 _favoriteNumber)public{... */\n    tag_14:\n        /* \"contracts/SimpleStorage.sol\":533:548  _favoriteNumber */\n      dup1\n        /* \"contracts/SimpleStorage.sol\":518:532  favoriteNumber */\n      0x00\n        /* \"contracts/SimpleStorage.sol\":518:548  favoriteNumber=_favoriteNumber */\n      dup2\n      swap1\n      sstore\n      pop\n        /* \"contracts/SimpleStorage.sol\":462:566  function store(uint256 _favoriteNumber)public{... */\n      pop\n      jump\t// out\n        /* \"contracts/SimpleStorage.sol\":701:976  function addPerson(string memory _name, uint256 _favoriteNumber)public {... */\n    tag_18:\n        /* \"contracts/SimpleStorage.sol\":911:917  people */\n      0x01\n        /* \"contracts/SimpleStorage.sol\":923:955  People( _favoriteNumber , _name) */\n      mload(0x40)\n      dup1\n      0x40\n      add\n      0x40\n      mstore\n      dup1\n        /* \"contracts/SimpleStorage.sol\":931:946  _favoriteNumber */\n      dup4\n        /* \"contracts/SimpleStorage.sol\":923:955  People( _favoriteNumber , _name) */\n      dup2\n      mstore\n      0x20\n      add\n        /* \"contracts/SimpleStorage.sol\":949:954  _name */\n      dup5\n        /* \"contracts/SimpleStorage.sol\":923:955  People( _favoriteNumber , _name) */\n      dup2\n      mstore\n      pop\n        /* \"contracts/SimpleStorage.sol\":911:956  people.push(People( _favoriteNumber , _name)) */\n      swap1\n      dup1\n      0x01\n      dup2\n      sload\n      add\n      dup1\n      dup3\n      sstore\n      dup1\n      swap2\n      pop\n      pop\n      0x01\n      swap1\n      sub\n      swap1\n      0x00\n      mstore\n      keccak256(0x00, 0x20)\n      swap1\n      0x02\n      mul\n      add\n      0x00\n      swap1\n      swap2\n      swap1\n      swap2\n      swap1\n      swap2\n      pop\n      0x00\n      dup3\n      add\n      mload\n      dup2\n      0x00\n      add\n      sstore\n      0x20\n      dup3\n      add\n      mload\n      dup2\n      0x01\n      add\n      swap1\n      dup2\n      tag_28\n      swap2\n      swap1\n      tag_29\n      jump\t// in\n    tag_28:\n      pop\n      pop\n      pop\n        /* \"contracts/SimpleStorage.sol\":701:976  function addPerson(string memory _name, uint256 _favoriteNumber)public {... */\n      pop\n      pop\n      jump\t// out\n        /* \"contracts/SimpleStorage.sol\":429:451  People[] public people */\n    tag_21:\n      0x01\n      dup2\n      dup2\n      sload\n      dup2\n      lt\n      tag_30\n      jumpi\n      0x00\n      dup1\n      revert\n    tag_30:\n      swap1\n      0x00\n      mstore\n      keccak256(0x00, 0x20)\n      swap1\n      0x02\n      mul\n      add\n      0x00\n      swap2\n      pop\n      swap1\n      pop\n      dup1\n      0x00\n      add\n      sload\n      swap1\n      dup1\n      0x01\n      add\n      dup1\n      sload\n      tag_32\n      swap1\n      tag_33\n      jump\t// in\n    tag_32:\n      dup1\n      0x1f\n      add\n      0x20\n      dup1\n      swap2\n      div\n      mul\n      0x20\n      add\n      mload(0x40)\n      swap1\n      dup2\n      add\n      0x40\n      mstore\n      dup1\n      swap3\n      swap2\n      swap1\n      dup2\n      dup2\n      mstore\n      0x20\n      add\n      dup3\n      dup1\n      sload\n      tag_34\n      swap1\n      tag_33\n      jump\t// in\n    tag_34:\n      dup1\n      iszero\n      tag_35\n      jumpi\n      dup1\n      0x1f\n      lt\n      tag_36\n      jumpi\n      0x0100\n      dup1\n      dup4\n      sload\n      div\n      mul\n      dup4\n      mstore\n      swap2\n      0x20\n      add\n      swap2\n      jump(tag_35)\n    tag_36:\n      dup3\n      add\n      swap2\n      swap1\n      0x00\n      mstore\n      keccak256(0x00, 0x20)\n      swap1\n    tag_37:\n      dup2\n      sload\n      dup2\n      mstore\n      swap1\n      0x01\n      add\n      swap1\n      0x20\n      add\n      dup1\n      dup4\n      gt\n      tag_37\n      jumpi\n      dup3\n      swap1\n      sub\n      0x1f\n      and\n      dup3\n      add\n      swap2\n    tag_35:\n      pop\n      pop\n      pop\n      pop\n      pop\n      swap1\n      pop\n      dup3\n      jump\t// out\n        /* \"#utility.yul\":7:84   */\n    tag_38:\n        /* \"#utility.yul\":44:51   */\n      0x00\n        /* \"#utility.yul\":73:78   */\n      dup2\n        /* \"#utility.yul\":62:78   */\n      swap1\n      pop\n        /* \"#utility.yul\":7:84   */\n      swap2\n      swap1\n      pop\n      jump\t// out\n        /* \"#utility.yul\":90:208   */\n    tag_39:\n        /* \"#utility.yul\":177:201   */\n      tag_78\n        /* \"#utility.yul\":195:200   */\n      dup2\n        /* \"#utility.yul\":177:201   */\n      tag_38\n      jump\t// in\n    tag_78:\n        /* \"#utility.yul\":172:175   */\n      dup3\n        /* \"#utility.yul\":165:202   */\n      mstore\n        /* \"#utility.yul\":90:208   */\n      pop\n      pop\n      jump\t// out\n        /* \"#utility.yul\":214:436   */\n    tag_10:\n        /* \"#utility.yul\":307:311   */\n      0x00\n        /* \"#utility.yul\":345:347   */\n      0x20\n        /* \"#utility.yul\":334:343   */\n      dup3\n        /* \"#utility.yul\":330:348   */\n      add\n        /* \"#utility.yul\":322:348   */\n      swap1\n      pop\n        /* \"#utility.yul\":358:429   */\n      tag_80\n        /* \"#utility.yul\":426:427   */\n      0x00\n        /* \"#utility.yul\":415:424   */\n      dup4\n        /* \"#utility.yul\":411:428   */\n      add\n        /* \"#utility.yul\":402:408   */\n      dup5\n        /* \"#utility.yul\":358:429   */\n      tag_39\n      jump\t// in\n    tag_80:\n        /* \"#utility.yul\":214:436   */\n      swap3\n      swap2\n      pop\n      pop\n      jump\t// out\n        /* \"#utility.yul\":442:517   */\n    tag_40:\n        /* \"#utility.yul\":475:481   */\n      0x00\n        /* \"#utility.yul\":508:510   */\n      0x40\n        /* \"#utility.yul\":502:511   */\n      mload\n        /* \"#utility.yul\":492:511   */\n      swap1\n      pop\n        /* \"#utility.yul\":442:517   */\n      swap1\n      jump\t// out\n        /* \"#utility.yul\":523:640   */\n    tag_41:\n        /* \"#utility.yul\":632:633   */\n      0x00\n        /* \"#utility.yul\":629:630   */\n      0x00\n        /* \"#utility.yul\":622:634   */\n      revert\n        /* \"#utility.yul\":646:763   */\n    tag_42:\n        /* \"#utility.yul\":755:756   */\n      0x00\n        /* \"#utility.yul\":752:753   */\n      0x00\n        /* \"#utility.yul\":745:757   */\n      revert\n        /* \"#utility.yul\":769:891   */\n    tag_43:\n        /* \"#utility.yul\":842:866   */\n      tag_85\n        /* \"#utility.yul\":860:865   */\n      dup2\n        /* \"#utility.yul\":842:866   */\n      tag_38\n      jump\t// in\n    tag_85:\n        /* \"#utility.yul\":835:840   */\n      dup2\n        /* \"#utility.yul\":832:867   */\n      eq\n        /* \"#utility.yul\":822:885   */\n      tag_86\n      jumpi\n        /* \"#utility.yul\":881:882   */\n      0x00\n        /* \"#utility.yul\":878:879   */\n      0x00\n        /* \"#utility.yul\":871:883   */\n      revert\n        /* \"#utility.yul\":822:885   */\n    tag_86:\n        /* \"#utility.yul\":769:891   */\n      pop\n      jump\t// out\n        /* \"#utility.yul\":897:1036   */\n    tag_44:\n        /* \"#utility.yul\":943:948   */\n      0x00\n        /* \"#utility.yul\":981:987   */\n      dup2\n        /* \"#utility.yul\":968:988   */\n      calldataload\n        /* \"#utility.yul\":959:988   */\n      swap1\n      pop\n        /* \"#utility.yul\":997:1030   */\n      tag_88\n        /* \"#utility.yul\":1024:1029   */\n      dup2\n        /* \"#utility.yul\":997:1030   */\n      tag_43\n      jump\t// in\n    tag_88:\n        /* \"#utility.yul\":897:1036   */\n      swap3\n      swap2\n      pop\n      pop\n      jump\t// out\n        /* \"#utility.yul\":1042:1371   */\n    tag_13:\n        /* \"#utility.yul\":1101:1107   */\n      0x00\n        /* \"#utility.yul\":1150:1152   */\n      0x20\n        /* \"#utility.yul\":1138:1147   */\n      dup3\n        /* \"#utility.yul\":1129:1136   */\n      dup5\n        /* \"#utility.yul\":1125:1148   */\n      sub\n        /* \"#utility.yul\":1121:1153   */\n      slt\n        /* \"#utility.yul\":1118:1237   */\n      iszero\n      tag_90\n      jumpi\n        /* \"#utility.yul\":1156:1235   */\n      tag_91\n      tag_41\n      jump\t// in\n    tag_91:\n        /* \"#utility.yul\":1118:1237   */\n    tag_90:\n        /* \"#utility.yul\":1276:1277   */\n      0x00\n        /* \"#utility.yul\":1301:1354   */\n      tag_92\n        /* \"#utility.yul\":1346:1353   */\n      dup5\n        /* \"#utility.yul\":1337:1343   */\n      dup3\n        /* \"#utility.yul\":1326:1335   */\n      dup6\n        /* \"#utility.yul\":1322:1344   */\n      add\n        /* \"#utility.yul\":1301:1354   */\n      tag_44\n      jump\t// in\n    tag_92:\n        /* \"#utility.yul\":1291:1354   */\n      swap2\n      pop\n        /* \"#utility.yul\":1247:1364   */\n      pop\n        /* \"#utility.yul\":1042:1371   */\n      swap3\n      swap2\n      pop\n      pop\n      jump\t// out\n        /* \"#utility.yul\":1377:1494   */\n    tag_45:\n        /* \"#utility.yul\":1486:1487   */\n      0x00\n        /* \"#utility.yul\":1483:1484   */\n      0x00\n        /* \"#utility.yul\":1476:1488   */\n      revert\n        /* \"#utility.yul\":1500:1617   */\n    tag_46:\n        /* \"#utility.yul\":1609:1610   */\n      0x00\n        /* \"#utility.yul\":1606:1607   */\n      0x00\n        /* \"#utility.yul\":1599:1611   */\n      revert\n        /* \"#utility.yul\":1623:1725   */\n    tag_47:\n        /* \"#utility.yul\":1664:1670   */\n      0x00\n        /* \"#utility.yul\":1715:1717   */\n      0x1f\n        /* \"#utility.yul\":1711:1718   */\n      not\n        /* \"#utility.yul\":1706:1708   */\n      0x1f\n        /* \"#utility.yul\":1699:1704   */\n      dup4\n        /* \"#utility.yul\":1695:1709   */\n      add\n        /* \"#utility.yul\":1691:1719   */\n      and\n        /* \"#utility.yul\":1681:1719   */\n      swap1\n      pop\n        /* \"#utility.yul\":1623:1725   */\n      swap2\n      swap1\n      pop\n      jump\t// out\n        /* \"#utility.yul\":1731:1911   */\n    tag_48:\n        /* \"#utility.yul\":1779:1856   */\n      0x4e487b7100000000000000000000000000000000000000000000000000000000\n        /* \"#utility.yul\":1776:1777   */\n      0x00\n        /* \"#utility.yul\":1769:1857   */\n      mstore\n        /* \"#utility.yul\":1876:1880   */\n      0x41\n        /* \"#utility.yul\":1873:1874   */\n      0x04\n        /* \"#utility.yul\":1866:1881   */\n      mstore\n        /* \"#utility.yul\":1900:1904   */\n      0x24\n        /* \"#utility.yul\":1897:1898   */\n      0x00\n        /* \"#utility.yul\":1890:1905   */\n      revert\n        /* \"#utility.yul\":1917:2198   */\n    tag_49:\n        /* \"#utility.yul\":2000:2027   */\n      tag_98\n        /* \"#utility.yul\":2022:2026   */\n      dup3\n        /* \"#utility.yul\":2000:2027   */\n      tag_47\n      jump\t// in\n    tag_98:\n        /* \"#utility.yul\":1992:1998   */\n      dup2\n        /* \"#utility.yul\":1988:2028   */\n      add\n        /* \"#utility.yul\":2130:2136   */\n      dup2\n        /* \"#utility.yul\":2118:2128   */\n      dup2\n        /* \"#utility.yul\":2115:2137   */\n      lt\n        /* \"#utility.yul\":2094:2112   */\n      0xffffffffffffffff\n        /* \"#utility.yul\":2082:2092   */\n      dup3\n        /* \"#utility.yul\":2079:2113   */\n      gt\n        /* \"#utility.yul\":2076:2138   */\n      or\n        /* \"#utility.yul\":2073:2161   */\n      iszero\n      tag_99\n      jumpi\n        /* \"#utility.yul\":2141:2159   */\n      tag_100\n      tag_48\n      jump\t// in\n    tag_100:\n        /* \"#utility.yul\":2073:2161   */\n    tag_99:\n        /* \"#utility.yul\":2181:2191   */\n      dup1\n        /* \"#utility.yul\":2177:2179   */\n      0x40\n        /* \"#utility.yul\":2170:2192   */\n      mstore\n        /* \"#utility.yul\":1960:2198   */\n      pop\n        /* \"#utility.yul\":1917:2198   */\n      pop\n      pop\n      jump\t// out\n        /* \"#utility.yul\":2204:2333   */\n    tag_50:\n        /* \"#utility.yul\":2238:2244   */\n      0x00\n        /* \"#utility.yul\":2265:2285   */\n      tag_102\n      tag_40\n      jump\t// in\n    tag_102:\n        /* \"#utility.yul\":2255:2285   */\n      swap1\n      pop\n        /* \"#utility.yul\":2294:2327   */\n      tag_103\n        /* \"#utility.yul\":2322:2326   */\n      dup3\n        /* \"#utility.yul\":2314:2320   */\n      dup3\n        /* \"#utility.yul\":2294:2327   */\n      tag_49\n      jump\t// in\n    tag_103:\n        /* \"#utility.yul\":2204:2333   */\n      swap2\n      swap1\n      pop\n      jump\t// out\n        /* \"#utility.yul\":2339:2647   */\n    tag_51:\n        /* \"#utility.yul\":2401:2405   */\n      0x00\n        /* \"#utility.yul\":2491:2509   */\n      0xffffffffffffffff\n        /* \"#utility.yul\":2483:2489   */\n      dup3\n        /* \"#utility.yul\":2480:2510   */\n      gt\n        /* \"#utility.yul\":2477:2533   */\n      iszero\n      tag_105\n      jumpi\n        /* \"#utility.yul\":2513:2531   */\n      tag_106\n      tag_48\n      jump\t// in\n    tag_106:\n        /* \"#utility.yul\":2477:2533   */\n    tag_105:\n        /* \"#utility.yul\":2551:2580   */\n      tag_107\n        /* \"#utility.yul\":2573:2579   */\n      dup3\n        /* \"#utility.yul\":2551:2580   */\n      tag_47\n      jump\t// in\n    tag_107:\n        /* \"#utility.yul\":2543:2580   */\n      swap1\n      pop\n        /* \"#utility.yul\":2635:2639   */\n      0x20\n        /* \"#utility.yul\":2629:2633   */\n      dup2\n        /* \"#utility.yul\":2625:2640   */\n      add\n        /* \"#utility.yul\":2617:2640   */\n      swap1\n      pop\n        /* \"#utility.yul\":2339:2647   */\n      swap2\n      swap1\n      pop\n      jump\t// out\n        /* \"#utility.yul\":2653:2801   */\n    tag_52:\n        /* \"#utility.yul\":2751:2757   */\n      dup3\n        /* \"#utility.yul\":2746:2749   */\n      dup2\n        /* \"#utility.yul\":2741:2744   */\n      dup4\n        /* \"#utility.yul\":2728:2758   */\n      calldatacopy\n        /* \"#utility.yul\":2792:2793   */\n      0x00\n        /* \"#utility.yul\":2783:2789   */\n      dup4\n        /* \"#utility.yul\":2778:2781   */\n      dup4\n        /* \"#utility.yul\":2774:2790   */\n      add\n        /* \"#utility.yul\":2767:2794   */\n      mstore\n        /* \"#utility.yul\":2653:2801   */\n      pop\n      pop\n      pop\n      jump\t// out\n        /* \"#utility.yul\":2807:3232   */\n    tag_53:\n        /* \"#utility.yul\":2885:2890   */\n      0x00\n        /* \"#utility.yul\":2910:2976   */\n      tag_110\n        /* \"#utility.yul\":2926:2975   */\n      tag_111\n        /* \"#utility.yul\":2968:2974   */\n      dup5\n        /* \"#utility.yul\":2926:2975   */\n      tag_51\n      jump\t// in\n    tag_111:\n        /* \"#utility.yul\":2910:2976   */\n      tag_50\n      jump\t// in\n    tag_110:\n        /* \"#utility.yul\":2901:2976   */\n      swap1\n      pop\n        /* \"#utility.yul\":2999:3005   */\n      dup3\n        /* \"#utility.yul\":2992:2997   */\n      dup2\n        /* \"#utility.yul\":2985:3006   */\n      mstore\n        /* \"#utility.yul\":3037:3041   */\n      0x20\n        /* \"#utility.yul\":3030:3035   */\n      dup2\n        /* \"#utility.yul\":3026:3042   */\n      add\n        /* \"#utility.yul\":3075:3078   */\n      dup5\n        /* \"#utility.yul\":3066:3072   */\n      dup5\n        /* \"#utility.yul\":3061:3064   */\n      dup5\n        /* \"#utility.yul\":3057:3073   */\n      add\n        /* \"#utility.yul\":3054:3079   */\n      gt\n        /* \"#utility.yul\":3051:3163   */\n      iszero\n      tag_112\n      jumpi\n        /* \"#utility.yul\":3082:3161   */\n      tag_113\n      tag_46\n      jump\t// in\n    tag_113:\n        /* \"#utility.yul\":3051:3163   */\n    tag_112:\n        /* \"#utility.yul\":3172:3226   */\n      tag_114\n        /* \"#utility.yul\":3219:3225   */\n      dup5\n        /* \"#utility.yul\":3214:3217   */\n      dup3\n        /* \"#utility.yul\":3209:3212   */\n      dup6\n        /* \"#utility.yul\":3172:3226   */\n      tag_52\n      jump\t// in\n    tag_114:\n        /* \"#utility.yul\":2891:3232   */\n      pop\n        /* \"#utility.yul\":2807:3232   */\n      swap4\n      swap3\n      pop\n      pop\n      pop\n      jump\t// out\n        /* \"#utility.yul\":3252:3592   */\n    tag_54:\n        /* \"#utility.yul\":3308:3313   */\n      0x00\n        /* \"#utility.yul\":3357:3360   */\n      dup3\n        /* \"#utility.yul\":3350:3354   */\n      0x1f\n        /* \"#utility.yul\":3342:3348   */\n      dup4\n        /* \"#utility.yul\":3338:3355   */\n      add\n        /* \"#utility.yul\":3334:3361   */\n      slt\n        /* \"#utility.yul\":3324:3446   */\n      tag_116\n      jumpi\n        /* \"#utility.yul\":3365:3444   */\n      tag_117\n      tag_45\n      jump\t// in\n    tag_117:\n        /* \"#utility.yul\":3324:3446   */\n    tag_116:\n        /* \"#utility.yul\":3482:3488   */\n      dup2\n        /* \"#utility.yul\":3469:3489   */\n      calldataload\n        /* \"#utility.yul\":3507:3586   */\n      tag_118\n        /* \"#utility.yul\":3582:3585   */\n      dup5\n        /* \"#utility.yul\":3574:3580   */\n      dup3\n        /* \"#utility.yul\":3567:3571   */\n      0x20\n        /* \"#utility.yul\":3559:3565   */\n      dup7\n        /* \"#utility.yul\":3555:3572   */\n      add\n        /* \"#utility.yul\":3507:3586   */\n      tag_53\n      jump\t// in\n    tag_118:\n        /* \"#utility.yul\":3498:3586   */\n      swap2\n      pop\n        /* \"#utility.yul\":3314:3592   */\n      pop\n        /* \"#utility.yul\":3252:3592   */\n      swap3\n      swap2\n      pop\n      pop\n      jump\t// out\n        /* \"#utility.yul\":3598:4252   */\n    tag_17:\n        /* \"#utility.yul\":3676:3682   */\n      0x00\n        /* \"#utility.yul\":3684:3690   */\n      0x00\n        /* \"#utility.yul\":3733:3735   */\n      0x40\n        /* \"#utility.yul\":3721:3730   */\n      dup4\n        /* \"#utility.yul\":3712:3719   */\n      dup6\n        /* \"#utility.yul\":3708:3731   */\n      sub\n        /* \"#utility.yul\":3704:3736   */\n      slt\n        /* \"#utility.yul\":3701:3820   */\n      iszero\n      tag_120\n      jumpi\n        /* \"#utility.yul\":3739:3818   */\n      tag_121\n      tag_41\n      jump\t// in\n    tag_121:\n        /* \"#utility.yul\":3701:3820   */\n    tag_120:\n        /* \"#utility.yul\":3887:3888   */\n      0x00\n        /* \"#utility.yul\":3876:3885   */\n      dup4\n        /* \"#utility.yul\":3872:3889   */\n      add\n        /* \"#utility.yul\":3859:3890   */\n      calldataload\n        /* \"#utility.yul\":3917:3935   */\n      0xffffffffffffffff\n        /* \"#utility.yul\":3909:3915   */\n      dup2\n        /* \"#utility.yul\":3906:3936   */\n      gt\n        /* \"#utility.yul\":3903:4020   */\n      iszero\n      tag_122\n      jumpi\n        /* \"#utility.yul\":3939:4018   */\n      tag_123\n      tag_42\n      jump\t// in\n    tag_123:\n        /* \"#utility.yul\":3903:4020   */\n    tag_122:\n        /* \"#utility.yul\":4044:4107   */\n      tag_124\n        /* \"#utility.yul\":4099:4106   */\n      dup6\n        /* \"#utility.yul\":4090:4096   */\n      dup3\n        /* \"#utility.yul\":4079:4088   */\n      dup7\n        /* \"#utility.yul\":4075:4097   */\n      add\n        /* \"#utility.yul\":4044:4107   */\n      tag_54\n      jump\t// in\n    tag_124:\n        /* \"#utility.yul\":4034:4107   */\n      swap3\n      pop\n        /* \"#utility.yul\":3830:4117   */\n      pop\n        /* \"#utility.yul\":4156:4158   */\n      0x20\n        /* \"#utility.yul\":4182:4235   */\n      tag_125\n        /* \"#utility.yul\":4227:4234   */\n      dup6\n        /* \"#utility.yul\":4218:4224   */\n      dup3\n        /* \"#utility.yul\":4207:4216   */\n      dup7\n        /* \"#utility.yul\":4203:4225   */\n      add\n        /* \"#utility.yul\":4182:4235   */\n      tag_44\n      jump\t// in\n    tag_125:\n        /* \"#utility.yul\":4172:4235   */\n      swap2\n      pop\n        /* \"#utility.yul\":4127:4245   */\n      pop\n        /* \"#utility.yul\":3598:4252   */\n      swap3\n      pop\n      swap3\n      swap1\n      pop\n      jump\t// out\n        /* \"#utility.yul\":4258:4357   */\n    tag_55:\n        /* \"#utility.yul\":4310:4316   */\n      0x00\n        /* \"#utility.yul\":4344:4349   */\n      dup2\n        /* \"#utility.yul\":4338:4350   */\n      mload\n        /* \"#utility.yul\":4328:4350   */\n      swap1\n      pop\n        /* \"#utility.yul\":4258:4357   */\n      swap2\n      swap1\n      pop\n      jump\t// out\n        /* \"#utility.yul\":4363:4532   */\n    tag_56:\n        /* \"#utility.yul\":4447:4458   */\n      0x00\n        /* \"#utility.yul\":4481:4487   */\n      dup3\n        /* \"#utility.yul\":4476:4479   */\n      dup3\n        /* \"#utility.yul\":4469:4488   */\n      mstore\n        /* \"#utility.yul\":4521:4525   */\n      0x20\n        /* \"#utility.yul\":4516:4519   */\n      dup3\n        /* \"#utility.yul\":4512:4526   */\n      add\n        /* \"#utility.yul\":4497:4526   */\n      swap1\n      pop\n        /* \"#utility.yul\":4363:4532   */\n      swap3\n      swap2\n      pop\n      pop\n      jump\t// out\n        /* \"#utility.yul\":4538:4786   */\n    tag_57:\n        /* \"#utility.yul\":4620:4621   */\n      0x00\n        /* \"#utility.yul\":4630:4743   */\n    tag_129:\n        /* \"#utility.yul\":4644:4650   */\n      dup4\n        /* \"#utility.yul\":4641:4642   */\n      dup2\n        /* \"#utility.yul\":4638:4651   */\n      lt\n        /* \"#utility.yul\":4630:4743   */\n      iszero\n      tag_131\n      jumpi\n        /* \"#utility.yul\":4729:4730   */\n      dup1\n        /* \"#utility.yul\":4724:4727   */\n      dup3\n        /* \"#utility.yul\":4720:4731   */\n      add\n        /* \"#utility.yul\":4714:4732   */\n      mload\n        /* \"#utility.yul\":4710:4711   */\n      dup2\n        /* \"#utility.yul\":4705:4708   */\n      dup5\n        /* \"#utility.yul\":4701:4712   */\n      add\n        /* \"#utility.yul\":4694:4733   */\n      mstore\n        /* \"#utility.yul\":4666:4668   */\n      0x20\n        /* \"#utility.yul\":4663:4664   */\n      dup2\n        /* \"#utility.yul\":4659:4669   */\n      add\n        /* \"#utility.yul\":4654:4669   */\n      swap1\n      pop\n        /* \"#utility.yul\":4630:4743   */\n      jump(tag_129)\n    tag_131:\n        /* \"#utility.yul\":4777:4778   */\n      0x00\n        /* \"#utility.yul\":4768:4774   */\n      dup5\n        /* \"#utility.yul\":4763:4766   */\n      dup5\n        /* \"#utility.yul\":4759:4775   */\n      add\n        /* \"#utility.yul\":4752:4779   */\n      mstore\n        /* \"#utility.yul\":4600:4786   */\n      pop\n        /* \"#utility.yul\":4538:4786   */\n      pop\n      pop\n      pop\n      jump\t// out\n        /* \"#utility.yul\":4792:5169   */\n    tag_58:\n        /* \"#utility.yul\":4880:4883   */\n      0x00\n        /* \"#utility.yul\":4908:4947   */\n      tag_133\n        /* \"#utility.yul\":4941:4946   */\n      dup3\n        /* \"#utility.yul\":4908:4947   */\n      tag_55\n      jump\t// in\n    tag_133:\n        /* \"#utility.yul\":4963:5034   */\n      tag_134\n        /* \"#utility.yul\":5027:5033   */\n      dup2\n        /* \"#utility.yul\":5022:5025   */\n      dup6\n        /* \"#utility.yul\":4963:5034   */\n      tag_56\n      jump\t// in\n    tag_134:\n        /* \"#utility.yul\":4956:5034   */\n      swap4\n      pop\n        /* \"#utility.yul\":5043:5108   */\n      tag_135\n        /* \"#utility.yul\":5101:5107   */\n      dup2\n        /* \"#utility.yul\":5096:5099   */\n      dup6\n        /* \"#utility.yul\":5089:5093   */\n      0x20\n        /* \"#utility.yul\":5082:5087   */\n      dup7\n        /* \"#utility.yul\":5078:5094   */\n      add\n        /* \"#utility.yul\":5043:5108   */\n      tag_57\n      jump\t// in\n    tag_135:\n        /* \"#utility.yul\":5133:5162   */\n      tag_136\n        /* \"#utility.yul\":5155:5161   */\n      dup2\n        /* \"#utility.yul\":5133:5162   */\n      tag_47\n      jump\t// in\n    tag_136:\n        /* \"#utility.yul\":5128:5131   */\n      dup5\n        /* \"#utility.yul\":5124:5163   */\n      add\n        /* \"#utility.yul\":5117:5163   */\n      swap2\n      pop\n        /* \"#utility.yul\":4884:5169   */\n      pop\n        /* \"#utility.yul\":4792:5169   */\n      swap3\n      swap2\n      pop\n      pop\n      jump\t// out\n        /* \"#utility.yul\":5175:5598   */\n    tag_23:\n        /* \"#utility.yul\":5316:5320   */\n      0x00\n        /* \"#utility.yul\":5354:5356   */\n      0x40\n        /* \"#utility.yul\":5343:5352   */\n      dup3\n        /* \"#utility.yul\":5339:5357   */\n      add\n        /* \"#utility.yul\":5331:5357   */\n      swap1\n      pop\n        /* \"#utility.yul\":5367:5438   */\n      tag_138\n        /* \"#utility.yul\":5435:5436   */\n      0x00\n        /* \"#utility.yul\":5424:5433   */\n      dup4\n        /* \"#utility.yul\":5420:5437   */\n      add\n        /* \"#utility.yul\":5411:5417   */\n      dup6\n        /* \"#utility.yul\":5367:5438   */\n      tag_39\n      jump\t// in\n    tag_138:\n        /* \"#utility.yul\":5485:5494   */\n      dup2\n        /* \"#utility.yul\":5479:5483   */\n      dup2\n        /* \"#utility.yul\":5475:5495   */\n      sub\n        /* \"#utility.yul\":5470:5472   */\n      0x20\n        /* \"#utility.yul\":5459:5468   */\n      dup4\n        /* \"#utility.yul\":5455:5473   */\n      add\n        /* \"#utility.yul\":5448:5496   */\n      mstore\n        /* \"#utility.yul\":5513:5591   */\n      tag_139\n        /* \"#utility.yul\":5586:5590   */\n      dup2\n        /* \"#utility.yul\":5577:5583   */\n      dup5\n        /* \"#utility.yul\":5513:5591   */\n      tag_58\n      jump\t// in\n    tag_139:\n        /* \"#utility.yul\":5505:5591   */\n      swap1\n      pop\n        /* \"#utility.yul\":5175:5598   */\n      swap4\n      swap3\n      pop\n      pop\n      pop\n      jump\t// out\n        /* \"#utility.yul\":5604:5784   */\n    tag_59:\n        /* \"#utility.yul\":5652:5729   */\n      0x4e487b7100000000000000000000000000000000000000000000000000000000\n        /* \"#utility.yul\":5649:5650   */\n      0x00\n        /* \"#utility.yul\":5642:5730   */\n      mstore\n        /* \"#utility.yul\":5749:5753   */\n      0x22\n        /* \"#utility.yul\":5746:5747   */\n      0x04\n        /* \"#utility.yul\":5739:5754   */\n      mstore\n        /* \"#utility.yul\":5773:5777   */\n      0x24\n        /* \"#utility.yul\":5770:5771   */\n      0x00\n        /* \"#utility.yul\":5763:5778   */\n      revert\n        /* \"#utility.yul\":5790:6110   */\n    tag_33:\n        /* \"#utility.yul\":5834:5840   */\n      0x00\n        /* \"#utility.yul\":5871:5872   */\n      0x02\n        /* \"#utility.yul\":5865:5869   */\n      dup3\n        /* \"#utility.yul\":5861:5873   */\n      div\n        /* \"#utility.yul\":5851:5873   */\n      swap1\n      pop\n        /* \"#utility.yul\":5918:5919   */\n      0x01\n        /* \"#utility.yul\":5912:5916   */\n      dup3\n        /* \"#utility.yul\":5908:5920   */\n      and\n        /* \"#utility.yul\":5939:5957   */\n      dup1\n        /* \"#utility.yul\":5929:6010   */\n      tag_142\n      jumpi\n        /* \"#utility.yul\":5995:5999   */\n      0x7f\n        /* \"#utility.yul\":5987:5993   */\n      dup3\n        /* \"#utility.yul\":5983:6000   */\n      and\n        /* \"#utility.yul\":5973:6000   */\n      swap2\n      pop\n        /* \"#utility.yul\":5929:6010   */\n    tag_142:\n        /* \"#utility.yul\":6057:6059   */\n      0x20\n        /* \"#utility.yul\":6049:6055   */\n      dup3\n        /* \"#utility.yul\":6046:6060   */\n      lt\n        /* \"#utility.yul\":6026:6044   */\n      dup2\n        /* \"#utility.yul\":6023:6061   */\n      sub\n        /* \"#utility.yul\":6020:6104   */\n      tag_143\n      jumpi\n        /* \"#utility.yul\":6076:6094   */\n      tag_144\n      tag_59\n      jump\t// in\n    tag_144:\n        /* \"#utility.yul\":6020:6104   */\n    tag_143:\n        /* \"#utility.yul\":5841:6110   */\n      pop\n        /* \"#utility.yul\":5790:6110   */\n      swap2\n      swap1\n      pop\n      jump\t// out\n        /* \"#utility.yul\":6116:6257   */\n    tag_60:\n        /* \"#utility.yul\":6165:6169   */\n      0x00\n        /* \"#utility.yul\":6188:6191   */\n      dup2\n        /* \"#utility.yul\":6180:6191   */\n      swap1\n      pop\n        /* \"#utility.yul\":6211:6214   */\n      dup2\n        /* \"#utility.yul\":6208:6209   */\n      0x00\n        /* \"#utility.yul\":6201:6215   */\n      mstore\n        /* \"#utility.yul\":6245:6249   */\n      0x20\n        /* \"#utility.yul\":6242:6243   */\n      0x00\n        /* \"#utility.yul\":6232:6250   */\n      keccak256\n        /* \"#utility.yul\":6224:6250   */\n      swap1\n      pop\n        /* \"#utility.yul\":6116:6257   */\n      swap2\n      swap1\n      pop\n      jump\t// out\n        /* \"#utility.yul\":6263:6356   */\n    tag_61:\n        /* \"#utility.yul\":6300:6306   */\n      0x00\n        /* \"#utility.yul\":6347:6349   */\n      0x20\n        /* \"#utility.yul\":6342:6344   */\n      0x1f\n        /* \"#utility.yul\":6335:6340   */\n      dup4\n        /* \"#utility.yul\":6331:6345   */\n      add\n        /* \"#utility.yul\":6327:6350   */\n      div\n        /* \"#utility.yul\":6317:6350   */\n      swap1\n      pop\n        /* \"#utility.yul\":6263:6356   */\n      swap2\n      swap1\n      pop\n      jump\t// out\n        /* \"#utility.yul\":6362:6469   */\n    tag_62:\n        /* \"#utility.yul\":6406:6414   */\n      0x00\n        /* \"#utility.yul\":6456:6461   */\n      dup3\n        /* \"#utility.yul\":6450:6454   */\n      dup3\n        /* \"#utility.yul\":6446:6462   */\n      shl\n        /* \"#utility.yul\":6425:6462   */\n      swap1\n      pop\n        /* \"#utility.yul\":6362:6469   */\n      swap3\n      swap2\n      pop\n      pop\n      jump\t// out\n        /* \"#utility.yul\":6475:6868   */\n    tag_63:\n        /* \"#utility.yul\":6544:6550   */\n      0x00\n        /* \"#utility.yul\":6594:6595   */\n      0x08\n        /* \"#utility.yul\":6582:6592   */\n      dup4\n        /* \"#utility.yul\":6578:6596   */\n      mul\n        /* \"#utility.yul\":6617:6714   */\n      tag_149\n        /* \"#utility.yul\":6647:6713   */\n      0xffffffffffffffffffffffffffffffffffffffffffffffffffffffffffffffff\n        /* \"#utility.yul\":6636:6645   */\n      dup3\n        /* \"#utility.yul\":6617:6714   */\n      tag_62\n      jump\t// in\n    tag_149:\n        /* \"#utility.yul\":6735:6774   */\n      tag_150\n        /* \"#utility.yul\":6765:6773   */\n      dup7\n        /* \"#utility.yul\":6754:6763   */\n      dup4\n        /* \"#utility.yul\":6735:6774   */\n      tag_62\n      jump\t// in\n    tag_150:\n        /* \"#utility.yul\":6723:6774   */\n      swap6\n      pop\n        /* \"#utility.yul\":6807:6811   */\n      dup1\n        /* \"#utility.yul\":6803:6812   */\n      not\n        /* \"#utility.yul\":6796:6801   */\n      dup5\n        /* \"#utility.yul\":6792:6813   */\n      and\n        /* \"#utility.yul\":6783:6813   */\n      swap4\n      pop\n        /* \"#utility.yul\":6856:6860   */\n      dup1\n        /* \"#utility.yul\":6846:6854   */\n      dup7\n        /* \"#utility.yul\":6842:6861   */\n      and\n        /* \"#utility.yul\":6835:6840   */\n      dup5\n        /* \"#utility.yul\":6832:6862   */\n      or\n        /* \"#utility.yul\":6822:6862   */\n      swap3\n      pop\n        /* \"#utility.yul\":6551:6868   */\n      pop\n      pop\n        /* \"#utility.yul\":6475:6868   */\n      swap4\n      swap3\n      pop\n      pop\n      pop\n      jump\t// out\n        /* \"#utility.yul\":6874:6934   */\n    tag_64:\n        /* \"#utility.yul\":6902:6905   */\n      0x00\n        /* \"#utility.yul\":6923:6928   */\n      dup2\n        /* \"#utility.yul\":6916:6928   */\n      swap1\n      pop\n        /* \"#utility.yul\":6874:6934   */\n      swap2\n      swap1\n      pop\n      jump\t// out\n        /* \"#utility.yul\":6940:7082   */\n    tag_65:\n        /* \"#utility.yul\":6990:6999   */\n      0x00\n        /* \"#utility.yul\":7023:7076   */\n      tag_153\n        /* \"#utility.yul\":7041:7075   */\n      tag_154\n        /* \"#utility.yul\":7050:7074   */\n      tag_155\n        /* \"#utility.yul\":7068:7073   */\n      dup5\n        /* \"#utility.yul\":7050:7074   */\n      tag_38\n      jump\t// in\n    tag_155:\n        /* \"#utility.yul\":7041:7075   */\n      tag_64\n      jump\t// in\n    tag_154:\n        /* \"#utility.yul\":7023:7076   */\n      tag_38\n      jump\t// in\n    tag_153:\n        /* \"#utility.yul\":7010:7076   */\n      swap1\n      pop\n        /* \"#utility.yul\":6940:7082   */\n      swap2\n      swap1\n      pop\n      jump\t// out\n        /* \"#utility.yul\":7088:7163   */\n    tag_66:\n        /* \"#utility.yul\":7131:7134   */\n      0x00\n        /* \"#utility.yul\":7152:7157   */\n      dup2\n        /* \"#utility.yul\":7145:7157   */\n      swap1\n      pop\n        /* \"#utility.yul\":7088:7163   */\n      swap2\n      swap1\n      pop\n      jump\t// out\n        /* \"#utility.yul\":7169:7438   */\n    tag_67:\n        /* \"#utility.yul\":7279:7318   */\n      tag_158\n        /* \"#utility.yul\":7310:7317   */\n      dup4\n        /* \"#utility.yul\":7279:7318   */\n      tag_65\n      jump\t// in\n    tag_158:\n        /* \"#utility.yul\":7340:7431   */\n      tag_159\n        /* \"#utility.yul\":7389:7430   */\n      tag_160\n        /* \"#utility.yul\":7413:7429   */\n      dup3\n        /* \"#utility.yul\":7389:7430   */\n      tag_66\n      jump\t// in\n    tag_160:\n        /* \"#utility.yul\":7381:7387   */\n      dup5\n        /* \"#utility.yul\":7374:7378   */\n      dup5\n        /* \"#utility.yul\":7368:7379   */\n      sload\n        /* \"#utility.yul\":7340:7431   */\n      tag_63\n      jump\t// in\n    tag_159:\n        /* \"#utility.yul\":7334:7338   */\n      dup3\n        /* \"#utility.yul\":7327:7432   */\n      sstore\n        /* \"#utility.yul\":7245:7438   */\n      pop\n        /* \"#utility.yul\":7169:7438   */\n      pop\n      pop\n      pop\n      jump\t// out\n        /* \"#utility.yul\":7444:7517   */\n    tag_68:\n        /* \"#utility.yul\":7489:7492   */\n      0x00\n        /* \"#utility.yul\":7510:7511   */\n      0x00\n        /* \"#utility.yul\":7503:7511   */\n      swap1\n      pop\n        /* \"#utility.yul\":7444:7517   */\n      swap1\n      jump\t// out\n        /* \"#utility.yul\":7523:7712   */\n    tag_69:\n        /* \"#utility.yul\":7600:7632   */\n      tag_163\n      tag_68\n      jump\t// in\n    tag_163:\n        /* \"#utility.yul\":7641:7706   */\n      tag_164\n        /* \"#utility.yul\":7699:7705   */\n      dup2\n        /* \"#utility.yul\":7691:7697   */\n      dup5\n        /* \"#utility.yul\":7685:7689   */\n      dup5\n        /* \"#utility.yul\":7641:7706   */\n      tag_67\n      jump\t// in\n    tag_164:\n        /* \"#utility.yul\":7576:7712   */\n      pop\n        /* \"#utility.yul\":7523:7712   */\n      pop\n      pop\n      jump\t// out\n        /* \"#utility.yul\":7718:7904   */\n    tag_70:\n        /* \"#utility.yul\":7778:7898   */\n    tag_166:\n        /* \"#utility.yul\":7795:7798   */\n      dup2\n        /* \"#utility.yul\":7788:7793   */\n      dup2\n        /* \"#utility.yul\":7785:7799   */\n      lt\n        /* \"#utility.yul\":7778:7898   */\n      iszero\n      tag_168\n      jumpi\n        /* \"#utility.yul\":7849:7888   */\n      tag_169\n        /* \"#utility.yul\":7886:7887   */\n      0x00\n        /* \"#utility.yul\":7879:7884   */\n      dup3\n        /* \"#utility.yul\":7849:7888   */\n      tag_69\n      jump\t// in\n    tag_169:\n        /* \"#utility.yul\":7822:7823   */\n      0x01\n        /* \"#utility.yul\":7815:7820   */\n      dup2\n        /* \"#utility.yul\":7811:7824   */\n      add\n        /* \"#utility.yul\":7802:7824   */\n      swap1\n      pop\n        /* \"#utility.yul\":7778:7898   */\n      jump(tag_166)\n    tag_168:\n        /* \"#utility.yul\":7718:7904   */\n      pop\n      pop\n      jump\t// out\n        /* \"#utility.yul\":7910:8453   */\n    tag_71:\n        /* \"#utility.yul\":8011:8013   */\n      0x1f\n        /* \"#utility.yul\":8006:8009   */\n      dup3\n        /* \"#utility.yul\":8003:8014   */\n      gt\n        /* \"#utility.yul\":8000:8446   */\n      iszero\n      tag_171\n      jumpi\n        /* \"#utility.yul\":8045:8083   */\n      tag_172\n        /* \"#utility.yul\":8077:8082   */\n      dup2\n        /* \"#utility.yul\":8045:8083   */\n      tag_60\n      jump\t// in\n    tag_172:\n        /* \"#utility.yul\":8129:8158   */\n      tag_173\n        /* \"#utility.yul\":8147:8157   */\n      dup5\n        /* \"#utility.yul\":8129:8158   */\n      tag_61\n      jump\t// in\n    tag_173:\n        /* \"#utility.yul\":8119:8127   */\n      dup2\n        /* \"#utility.yul\":8115:8159   */\n      add\n        /* \"#utility.yul\":8312:8314   */\n      0x20\n        /* \"#utility.yul\":8300:8310   */\n      dup6\n        /* \"#utility.yul\":8297:8315   */\n      lt\n        /* \"#utility.yul\":8294:8343   */\n      iszero\n      tag_174\n      jumpi\n        /* \"#utility.yul\":8333:8341   */\n      dup2\n        /* \"#utility.yul\":8318:8341   */\n      swap1\n      pop\n        /* \"#utility.yul\":8294:8343   */\n    tag_174:\n        /* \"#utility.yul\":8356:8436   */\n      tag_175\n        /* \"#utility.yul\":8412:8434   */\n      tag_176\n        /* \"#utility.yul\":8430:8433   */\n      dup6\n        /* \"#utility.yul\":8412:8434   */\n      tag_61\n      jump\t// in\n    tag_176:\n        /* \"#utility.yul\":8402:8410   */\n      dup4\n        /* \"#utility.yul\":8398:8435   */\n      add\n        /* \"#utility.yul\":8385:8396   */\n      dup3\n        /* \"#utility.yul\":8356:8436   */\n      tag_70\n      jump\t// in\n    tag_175:\n        /* \"#utility.yul\":8015:8446   */\n      pop\n      pop\n        /* \"#utility.yul\":8000:8446   */\n    tag_171:\n        /* \"#utility.yul\":7910:8453   */\n      pop\n      pop\n      pop\n      jump\t// out\n        /* \"#utility.yul\":8459:8576   */\n    tag_72:\n        /* \"#utility.yul\":8513:8521   */\n      0x00\n        /* \"#utility.yul\":8563:8568   */\n      dup3\n        /* \"#utility.yul\":8557:8561   */\n      dup3\n        /* \"#utility.yul\":8553:8569   */\n      shr\n        /* \"#utility.yul\":8532:8569   */\n      swap1\n      pop\n        /* \"#utility.yul\":8459:8576   */\n      swap3\n      swap2\n      pop\n      pop\n      jump\t// out\n        /* \"#utility.yul\":8582:8751   */\n    tag_73:\n        /* \"#utility.yul\":8626:8632   */\n      0x00\n        /* \"#utility.yul\":8659:8710   */\n      tag_179\n        /* \"#utility.yul\":8707:8708   */\n      0x00\n        /* \"#utility.yul\":8703:8709   */\n      not\n        /* \"#utility.yul\":8695:8700   */\n      dup5\n        /* \"#utility.yul\":8692:8693   */\n      0x08\n        /* \"#utility.yul\":8688:8701   */\n      mul\n        /* \"#utility.yul\":8659:8710   */\n      tag_72\n      jump\t// in\n    tag_179:\n        /* \"#utility.yul\":8655:8711   */\n      not\n        /* \"#utility.yul\":8740:8744   */\n      dup1\n        /* \"#utility.yul\":8734:8738   */\n      dup4\n        /* \"#utility.yul\":8730:8745   */\n      and\n        /* \"#utility.yul\":8720:8745   */\n      swap2\n      pop\n        /* \"#utility.yul\":8633:8751   */\n      pop\n        /* \"#utility.yul\":8582:8751   */\n      swap3\n      swap2\n      pop\n      pop\n      jump\t// out\n        /* \"#utility.yul\":8756:9051   */\n    tag_74:\n        /* \"#utility.yul\":8832:8836   */\n      0x00\n        /* \"#utility.yul\":8978:9007   */\n      tag_181\n        /* \"#utility.yul\":9003:9006   */\n      dup4\n        /* \"#utility.yul\":8997:9001   */\n      dup4\n        /* \"#utility.yul\":8978:9007   */\n      tag_73\n      jump\t// in\n    tag_181:\n        /* \"#utility.yul\":8970:9007   */\n      swap2\n      pop\n        /* \"#utility.yul\":9040:9043   */\n      dup3\n        /* \"#utility.yul\":9037:9038   */\n      0x02\n        /* \"#utility.yul\":9033:9044   */\n      mul\n        /* \"#utility.yul\":9027:9031   */\n      dup3\n        /* \"#utility.yul\":9024:9045   */\n      or\n        /* \"#utility.yul\":9016:9045   */\n      swap1\n      pop\n        /* \"#utility.yul\":8756:9051   */\n      swap3\n      swap2\n      pop\n      pop\n      jump\t// out\n        /* \"#utility.yul\":9056:10451   */\n    tag_29:\n        /* \"#utility.yul\":9173:9210   */\n      tag_183\n        /* \"#utility.yul\":9206:9209   */\n      dup3\n        /* \"#utility.yul\":9173:9210   */\n      tag_55\n      jump\t// in\n    tag_183:\n        /* \"#utility.yul\":9275:9293   */\n      0xffffffffffffffff\n        /* \"#utility.yul\":9267:9273   */\n      dup2\n        /* \"#utility.yul\":9264:9294   */\n      gt\n        /* \"#utility.yul\":9261:9317   */\n      iszero\n      tag_184\n      jumpi\n        /* \"#utility.yul\":9297:9315   */\n      tag_185\n      tag_48\n      jump\t// in\n    tag_185:\n        /* \"#utility.yul\":9261:9317   */\n    tag_184:\n        /* \"#utility.yul\":9341:9379   */\n      tag_186\n        /* \"#utility.yul\":9373:9377   */\n      dup3\n        /* \"#utility.yul\":9367:9378   */\n      sload\n        /* \"#utility.yul\":9341:9379   */\n      tag_33\n      jump\t// in\n    tag_186:\n        /* \"#utility.yul\":9426:9493   */\n      tag_187\n        /* \"#utility.yul\":9486:9492   */\n      dup3\n        /* \"#utility.yul\":9478:9484   */\n      dup3\n        /* \"#utility.yul\":9472:9476   */\n      dup6\n        /* \"#utility.yul\":9426:9493   */\n      tag_71\n      jump\t// in\n    tag_187:\n        /* \"#utility.yul\":9520:9521   */\n      0x00\n        /* \"#utility.yul\":9544:9548   */\n      0x20\n        /* \"#utility.yul\":9531:9548   */\n      swap1\n      pop\n        /* \"#utility.yul\":9576:9578   */\n      0x1f\n        /* \"#utility.yul\":9568:9574   */\n      dup4\n        /* \"#utility.yul\":9565:9579   */\n      gt\n        /* \"#utility.yul\":9593:9594   */\n      0x01\n        /* \"#utility.yul\":9588:10206   */\n      dup2\n      eq\n      tag_189\n      jumpi\n        /* \"#utility.yul\":10250:10251   */\n      0x00\n        /* \"#utility.yul\":10267:10273   */\n      dup5\n        /* \"#utility.yul\":10264:10341   */\n      iszero\n      tag_190\n      jumpi\n        /* \"#utility.yul\":10316:10325   */\n      dup3\n        /* \"#utility.yul\":10311:10314   */\n      dup8\n        /* \"#utility.yul\":10307:10326   */\n      add\n        /* \"#utility.yul\":10301:10327   */\n      mload\n        /* \"#utility.yul\":10292:10327   */\n      swap1\n      pop\n        /* \"#utility.yul\":10264:10341   */\n    tag_190:\n        /* \"#utility.yul\":10367:10434   */\n      tag_191\n        /* \"#utility.yul\":10427:10433   */\n      dup6\n        /* \"#utility.yul\":10420:10425   */\n      dup3\n        /* \"#utility.yul\":10367:10434   */\n      tag_74\n      jump\t// in\n    tag_191:\n        /* \"#utility.yul\":10361:10365   */\n      dup7\n        /* \"#utility.yul\":10354:10435   */\n      sstore\n        /* \"#utility.yul\":10223:10445   */\n      pop\n        /* \"#utility.yul\":9558:10445   */\n      jump(tag_188)\n        /* \"#utility.yul\":9588:10206   */\n    tag_189:\n        /* \"#utility.yul\":9640:9644   */\n      0x1f\n        /* \"#utility.yul\":9636:9645   */\n      not\n        /* \"#utility.yul\":9628:9634   */\n      dup5\n        /* \"#utility.yul\":9624:9646   */\n      and\n        /* \"#utility.yul\":9674:9711   */\n      tag_192\n        /* \"#utility.yul\":9706:9710   */\n      dup7\n        /* \"#utility.yul\":9674:9711   */\n      tag_60\n      jump\t// in\n    tag_192:\n        /* \"#utility.yul\":9733:9734   */\n      0x00\n        /* \"#utility.yul\":9747:9955   */\n    tag_193:\n        /* \"#utility.yul\":9761:9768   */\n      dup3\n        /* \"#utility.yul\":9758:9759   */\n      dup2\n        /* \"#utility.yul\":9755:9769   */\n      lt\n        /* \"#utility.yul\":9747:9955   */\n      iszero\n      tag_195\n      jumpi\n        /* \"#utility.yul\":9840:9849   */\n      dup5\n        /* \"#utility.yul\":9835:9838   */\n      dup10\n        /* \"#utility.yul\":9831:9850   */\n      add\n        /* \"#utility.yul\":9825:9851   */\n      mload\n        /* \"#utility.yul\":9817:9823   */\n      dup3\n        /* \"#utility.yul\":9810:9852   */\n      sstore\n        /* \"#utility.yul\":9891:9892   */\n      0x01\n        /* \"#utility.yul\":9883:9889   */\n      dup3\n        /* \"#utility.yul\":9879:9893   */\n      add\n        /* \"#utility.yul\":9869:9893   */\n      swap2\n      pop\n        /* \"#utility.yul\":9938:9940   */\n      0x20\n        /* \"#utility.yul\":9927:9936   */\n      dup6\n        /* \"#utility.yul\":9923:9941   */\n      add\n        /* \"#utility.yul\":9910:9941   */\n      swap5\n      pop\n        /* \"#utility.yul\":9784:9788   */\n      0x20\n        /* \"#utility.yul\":9781:9782   */\n      dup2\n        /* \"#utility.yul\":9777:9789   */\n      add\n        /* \"#utility.yul\":9772:9789   */\n      swap1\n      pop\n        /* \"#utility.yul\":9747:9955   */\n      jump(tag_193)\n    tag_195:\n        /* \"#utility.yul\":9983:9989   */\n      dup7\n        /* \"#utility.yul\":9974:9981   */\n      dup4\n        /* \"#utility.yul\":9971:9990   */\n      lt\n        /* \"#utility.yul\":9968:10147   */\n      iszero\n      tag_196\n      jumpi\n        /* \"#utility.yul\":10041:10050   */\n      dup5\n        /* \"#utility.yul\":10036:10039   */\n      dup10\n        /* \"#utility.yul\":10032:10051   */\n      add\n        /* \"#utility.yul\":10026:10052   */\n      mload\n        /* \"#utility.yul\":10084:10132   */\n      tag_197\n        /* \"#utility.yul\":10126:10130   */\n      0x1f\n        /* \"#utility.yul\":10118:10124   */\n      dup10\n        /* \"#utility.yul\":10114:10131   */\n      and\n        /* \"#utility.yul\":10103:10112   */\n      dup3\n        /* \"#utility.yul\":10084:10132   */\n      tag_73\n      jump\t// in\n    tag_197:\n        /* \"#utility.yul\":10076:10082   */\n      dup4\n        /* \"#utility.yul\":10069:10133   */\n      sstore\n        /* \"#utility.yul\":9991:10147   */\n      pop\n        /* \"#utility.yul\":9968:10147   */\n    tag_196:\n        /* \"#utility.yul\":10193:10194   */\n      0x01\n        /* \"#utility.yul\":10189:10190   */\n      0x02\n        /* \"#utility.yul\":10181:10187   */\n      dup9\n        /* \"#utility.yul\":10177:10191   */\n      mul\n        /* \"#utility.yul\":10173:10195   */\n      add\n        /* \"#utility.yul\":10167:10171   */\n      dup9\n        /* \"#utility.yul\":10160:10196   */\n      sstore\n        /* \"#utility.yul\":9595:10206   */\n      pop\n      pop\n      pop\n        /* \"#utility.yul\":9558:10445   */\n    tag_188:\n      pop\n        /* \"#utility.yul\":9148:10451   */\n      pop\n      pop\n      pop\n        /* \"#utility.yul\":9056:10451   */\n      pop\n      pop\n      jump\t// out\n\n    auxdata: 0xa26469706673582212209db90e0cac540a8e415e4767ccef433c79900309914838a3d9e1981ac6dd1ce864736f6c634300081f0033\n}\n",
				"bytecode": {
					"linkReferences": {},
					"object": "6080604052348015600e575f5ffd5b506107d38061001c5f395ff3fe608060405234801561000f575f5ffd5b506004361061004a575f3560e01c80632e64cec11461004e5780636057361d1461006c5780636f760f41146100885780639e7a13ad146100a4575b5f5ffd5b6100566100d5565b6040516100639190610214565b60405180910390f35b61008660048036038101906100819190610268565b6100dd565b005b6100a2600480360381019061009d91906103cf565b6100e6565b005b6100be60048036038101906100b99190610268565b610147565b6040516100cc9291906104a3565b60405180910390f35b5f5f54905090565b805f8190555050565b6001604051806040016040528083815260200184815250908060018154018082558091505060019003905f5260205f2090600202015f909190919091505f820151815f0155602082015181600101908161014091906106ce565b5050505050565b60018181548110610156575f80fd5b905f5260205f2090600202015f91509050805f01549080600101805461017b906104fe565b80601f01602080910402602001604051908101604052809291908181526020018280546101a7906104fe565b80156101f25780601f106101c9576101008083540402835291602001916101f2565b820191905f5260205f20905b8154815290600101906020018083116101d557829003601f168201915b5050505050905082565b5f819050919050565b61020e816101fc565b82525050565b5f6020820190506102275f830184610205565b92915050565b5f604051905090565b5f5ffd5b5f5ffd5b610247816101fc565b8114610251575f5ffd5b50565b5f813590506102628161023e565b92915050565b5f6020828403121561027d5761027c610236565b5b5f61028a84828501610254565b91505092915050565b5f5ffd5b5f5ffd5b5f601f19601f8301169050919050565b7f4e487b71000000000000000000000000000000000000000000000000000000005f52604160045260245ffd5b6102e18261029b565b810181811067ffffffffffffffff82111715610300576102ff6102ab565b5b80604052505050565b5f61031261022d565b905061031e82826102d8565b919050565b5f67ffffffffffffffff82111561033d5761033c6102ab565b5b6103468261029b565b9050602081019050919050565b828183375f83830152505050565b5f61037361036e84610323565b610309565b90508281526020810184848401111561038f5761038e610297565b5b61039a848285610353565b509392505050565b5f82601f8301126103b6576103b5610293565b5b81356103c6848260208601610361565b91505092915050565b5f5f604083850312156103e5576103e4610236565b5b5f83013567ffffffffffffffff8111156104025761040161023a565b5b61040e858286016103a2565b925050602061041f85828601610254565b9150509250929050565b5f81519050919050565b5f82825260208201905092915050565b5f5b83811015610460578082015181840152602081019050610445565b5f8484015250505050565b5f61047582610429565b61047f8185610433565b935061048f818560208601610443565b6104988161029b565b840191505092915050565b5f6040820190506104b65f830185610205565b81810360208301526104c8818461046b565b90509392505050565b7f4e487b71000000000000000000000000000000000000000000000000000000005f52602260045260245ffd5b5f600282049050600182168061051557607f821691505b602082108103610528576105276104d1565b5b50919050565b5f819050815f5260205f209050919050565b5f6020601f8301049050919050565b5f82821b905092915050565b5f6008830261058a7fffffffffffffffffffffffffffffffffffffffffffffffffffffffffffffffff8261054f565b610594868361054f565b95508019841693508086168417925050509392505050565b5f819050919050565b5f6105cf6105ca6105c5846101fc565b6105ac565b6101fc565b9050919050565b5f819050919050565b6105e8836105b5565b6105fc6105f4826105d6565b84845461055b565b825550505050565b5f5f905090565b610613610604565b61061e8184846105df565b505050565b5b81811015610641576106365f8261060b565b600181019050610624565b5050565b601f821115610686576106578161052e565b61066084610540565b8101602085101561066f578190505b61068361067b85610540565b830182610623565b50505b505050565b5f82821c905092915050565b5f6106a65f198460080261068b565b1980831691505092915050565b5f6106be8383610697565b9150826002028217905092915050565b6106d782610429565b67ffffffffffffffff8111156106f0576106ef6102ab565b5b6106fa82546104fe565b610705828285610645565b5f60209050601f831160018114610736575f8415610724578287015190505b61072e85826106b3565b865550610795565b601f1984166107448661052e565b5f5b8281101561076b57848901518255600182019150602085019450602081019050610746565b868310156107885784890151610784601f891682610697565b8355505b6001600288020188555050505b50505050505056fea26469706673582212209db90e0cac540a8e415e4767ccef433c79900309914838a3d9e1981ac6dd1ce864736f6c634300081f0033",
					"opcodes": "PUSH1 0x80 PUSH1 0x40 MSTORE CALLVALUE DUP1 ISZERO PUSH1 0xE JUMPI PUSH0 PUSH0 REVERT JUMPDEST POP PUSH2 0x7D3 DUP1 PUSH2 0x1C PUSH0 CODECOPY PUSH0 RETURN INVALID PUSH1 0x80 PUSH1 0x40 MSTORE CALLVALUE DUP1 ISZERO PUSH2 0xF JUMPI PUSH0 PUSH0 REVERT JUMPDEST POP PUSH1 0x4 CALLDATASIZE LT PUSH2 0x4A JUMPI PUSH0 CALLDATALOAD PUSH1 0xE0 SHR DUP1 PUSH4 0x2E64CEC1 EQ PUSH2 0x4E JUMPI DUP1 PUSH4 0x6057361D EQ PUSH2 0x6C JUMPI DUP1 PUSH4 0x6F760F41 EQ PUSH2 0x88 JUMPI DUP1 PUSH4 0x9E7A13AD EQ PUSH2 0xA4 JUMPI JUMPDEST PUSH0 PUSH0 REVERT JUMPDEST PUSH2 0x56 PUSH2 0xD5 JUMP JUMPDEST PUSH1 0x40 MLOAD PUSH2 0x63 SWAP2 SWAP1 PUSH2 0x214 JUMP JUMPDEST PUSH1 0x40 MLOAD DUP1 SWAP2 SUB SWAP1 RETURN JUMPDEST PUSH2 0x86 PUSH1 0x4 DUP1 CALLDATASIZE SUB DUP2 ADD SWAP1 PUSH2 0x81 SWAP2 SWAP1 PUSH2 0x268 JUMP JUMPDEST PUSH2 0xDD JUMP JUMPDEST STOP JUMPDEST PUSH2 0xA2 PUSH1 0x4 DUP1 CALLDATASIZE SUB DUP2 ADD SWAP1 PUSH2 0x9D SWAP2 SWAP1 PUSH2 0x3CF JUMP JUMPDEST PUSH2 0xE6 JUMP JUMPDEST STOP JUMPDEST PUSH2 0xBE PUSH1 0x4 DUP1 CALLDATASIZE SUB DUP2 ADD SWAP1 PUSH2 0xB9 SWAP2 SWAP1 PUSH2 0x268 JUMP JUMPDEST PUSH2 0x147 JUMP JUMPDEST PUSH1 0x40 MLOAD PUSH2 0xCC SWAP3 SWAP2 SWAP1 PUSH2 0x4A3 JUMP JUMPDEST PUSH1 0x40 MLOAD DUP1 SWAP2 SUB SWAP1 RETURN JUMPDEST PUSH0 PUSH0 SLOAD SWAP1 POP SWAP1 JUMP JUMPDEST DUP1 PUSH0 DUP2 SWAP1 SSTORE POP POP JUMP JUMPDEST PUSH1 0x1 PUSH1 0x40 MLOAD DUP1 PUSH1 0x40 ADD PUSH1 0x40 MSTORE DUP1 DUP4 DUP2 MSTORE PUSH1 0x20 ADD DUP5 DUP2 MSTORE POP SWAP1 DUP1 PUSH1 0x1 DUP2 SLOAD ADD DUP1 DUP3 SSTORE DUP1 SWAP2 POP POP PUSH1 0x1 SWAP1 SUB SWAP1 PUSH0 MSTORE PUSH1 0x20 PUSH0 KECCAK256 SWAP1 PUSH1 0x2 MUL ADD PUSH0 SWAP1 SWAP2 SWAP1 SWAP2 SWAP1 SWAP2 POP PUSH0 DUP3 ADD MLOAD DUP2 PUSH0 ADD SSTORE PUSH1 0x20 DUP3 ADD MLOAD DUP2 PUSH1 0x1 ADD SWAP1 DUP2 PUSH2 0x140 SWAP2 SWAP1 PUSH2 0x6CE JUMP JUMPDEST POP POP POP POP POP JUMP JUMPDEST PUSH1 0x1 DUP2 DUP2 SLOAD DUP2 LT PUSH2 0x156 JUMPI PUSH0 DUP1 REVERT JUMPDEST SWAP1 PUSH0 MSTORE PUSH1 0x20 PUSH0 KECCAK256 SWAP1 PUSH1 0x2 MUL ADD PUSH0 SWAP2 POP SWAP1 POP DUP1 PUSH0 ADD SLOAD SWAP1 DUP1 PUSH1 0x1 ADD DUP1 SLOAD PUSH2 0x17B SWAP1 PUSH2 0x4FE JUMP JUMPDEST DUP1 PUSH1 0x1F ADD PUSH1 0x20 DUP1 SWAP2 DIV MUL PUSH1 0x20 ADD PUSH1 0x40 MLOAD SWAP1 DUP2 ADD PUSH1 0x40 MSTORE DUP1 SWAP3 SWAP2 SWAP1 DUP2 DUP2 MSTORE PUSH1 0x20 ADD DUP3 DUP1 SLOAD PUSH2 0x1A7 SWAP1 PUSH2 0x4FE JUMP JUMPDEST DUP1 ISZERO PUSH2 0x1F2 JUMPI DUP1 PUSH1 0x1F LT PUSH2 0x1C9 JUMPI PUSH2 0x100 DUP1 DUP4 SLOAD DIV MUL DUP4 MSTORE SWAP2 PUSH1 0x20 ADD SWAP2 PUSH2 0x1F2 JUMP JUMPDEST DUP3 ADD SWAP2 SWAP1 PUSH0 MSTORE PUSH1 0x20 PUSH0 KECCAK256 SWAP1 JUMPDEST DUP2 SLOAD DUP2 MSTORE SWAP1 PUSH1 0x1 ADD SWAP1 PUSH1 0x20 ADD DUP1 DUP4 GT PUSH2 0x1D5 JUMPI DUP3 SWAP1 SUB PUSH1 0x1F AND DUP3 ADD SWAP2 JUMPDEST POP POP POP POP POP SWAP1 POP DUP3 JUMP JUMPDEST PUSH0 DUP2 SWAP1 POP SWAP2 SWAP1 POP JUMP JUMPDEST PUSH2 0x20E DUP2 PUSH2 0x1FC JUMP JUMPDEST DUP3 MSTORE POP POP JUMP JUMPDEST PUSH0 PUSH1 0x20 DUP3 ADD SWAP1 POP PUSH2 0x227 PUSH0 DUP4 ADD DUP5 PUSH2 0x205 JUMP JUMPDEST SWAP3 SWAP2 POP POP JUMP JUMPDEST PUSH0 PUSH1 0x40 MLOAD SWAP1 POP SWAP1 JUMP JUMPDEST PUSH0 PUSH0 REVERT JUMPDEST PUSH0 PUSH0 REVERT JUMPDEST PUSH2 0x247 DUP2 PUSH2 0x1FC JUMP JUMPDEST DUP2 EQ PUSH2 0x251 JUMPI PUSH0 PUSH0 REVERT JUMPDEST POP JUMP JUMPDEST PUSH0 DUP2 CALLDATALOAD SWAP1 POP PUSH2 0x262 DUP2 PUSH2 0x23E JUMP JUMPDEST SWAP3 SWAP2 POP POP JUMP JUMPDEST PUSH0 PUSH1 0x20 DUP3 DUP5 SUB SLT ISZERO PUSH2 0x27D JUMPI PUSH2 0x27C PUSH2 0x236 JUMP JUMPDEST JUMPDEST PUSH0 PUSH2 0x28A DUP5 DUP3 DUP6 ADD PUSH2 0x254 JUMP JUMPDEST SWAP2 POP POP SWAP3 SWAP2 POP POP JUMP JUMPDEST PUSH0 PUSH0 REVERT JUMPDEST PUSH0 PUSH0 REVERT JUMPDEST PUSH0 PUSH1 0x1F NOT PUSH1 0x1F DUP4 ADD AND SWAP1 POP SWAP2 SWAP1 POP JUMP JUMPDEST PUSH32 0x4E487B7100000000000000000000000000000000000000000000000000000000 PUSH0 MSTORE PUSH1 0x41 PUSH1 0x4 MSTORE PUSH1 0x24 PUSH0 REVERT JUMPDEST PUSH2 0x2E1 DUP3 PUSH2 0x29B JUMP JUMPDEST DUP2 ADD DUP2 DUP2 LT PUSH8 0xFFFFFFFFFFFFFFFF DUP3 GT OR ISZERO PUSH2 0x300 JUMPI PUSH2 0x2FF PUSH2 0x2AB JUMP JUMPDEST JUMPDEST DUP1 PUSH1 0x40 MSTORE POP POP POP JUMP JUMPDEST PUSH0 PUSH2 0x312 PUSH2 0x22D JUMP JUMPDEST SWAP1 POP PUSH2 0x31E DUP3 DUP3 PUSH2 0x2D8 JUMP JUMPDEST SWAP2 SWAP1 POP JUMP JUMPDEST PUSH0 PUSH8 0xFFFFFFFFFFFFFFFF DUP3 GT ISZERO PUSH2 0x33D JUMPI PUSH2 0x33C PUSH2 0x2AB JUMP JUMPDEST JUMPDEST PUSH2 0x346 DUP3 PUSH2 0x29B JUMP JUMPDEST SWAP1 POP PUSH1 0x20 DUP2 ADD SWAP1 POP SWAP2 SWAP1 POP JUMP JUMPDEST DUP3 DUP2 DUP4 CALLDATACOPY PUSH0 DUP4 DUP4 ADD MSTORE POP POP POP JUMP JUMPDEST PUSH0 PUSH2 0x373 PUSH2 0x36E DUP5 PUSH2 0x323 JUMP JUMPDEST PUSH2 0x309 JUMP JUMPDEST SWAP1 POP DUP3 DUP2 MSTORE PUSH1 0x20 DUP2 ADD DUP5 DUP5 DUP5 ADD GT ISZERO PUSH2 0x38F JUMPI PUSH2 0x38E PUSH2 0x297 JUMP JUMPDEST JUMPDEST PUSH2 0x39A DUP5 DUP3 DUP6 PUSH2 0x353 JUMP JUMPDEST POP SWAP4 SWAP3 POP POP POP JUMP JUMPDEST PUSH0 DUP3 PUSH1 0x1F DUP4 ADD SLT PUSH2 0x3B6 JUMPI PUSH2 0x3B5 PUSH2 0x293 JUMP JUMPDEST JUMPDEST DUP2 CALLDATALOAD PUSH2 0x3C6 DUP5 DUP3 PUSH1 0x20 DUP7 ADD PUSH2 0x361 JUMP JUMPDEST SWAP2 POP POP SWAP3 SWAP2 POP POP JUMP JUMPDEST PUSH0 PUSH0 PUSH1 0x40 DUP4 DUP6 SUB SLT ISZERO PUSH2 0x3E5 JUMPI PUSH2 0x3E4 PUSH2 0x236 JUMP JUMPDEST JUMPDEST PUSH0 DUP4 ADD CALLDATALOAD PUSH8 0xFFFFFFFFFFFFFFFF DUP2 GT ISZERO PUSH2 0x402 JUMPI PUSH2 0x401 PUSH2 0x23A JUMP JUMPDEST JUMPDEST PUSH2 0x40E DUP6 DUP3 DUP7 ADD PUSH2 0x3A2 JUMP JUMPDEST SWAP3 POP POP PUSH1 0x20 PUSH2 0x41F DUP6 DUP3 DUP7 ADD PUSH2 0x254 JUMP JUMPDEST SWAP2 POP POP SWAP3 POP SWAP3 SWAP1 POP JUMP JUMPDEST PUSH0 DUP2 MLOAD SWAP1 POP SWAP2 SWAP1 POP JUMP JUMPDEST PUSH0 DUP3 DUP3 MSTORE PUSH1 0x20 DUP3 ADD SWAP1 POP SWAP3 SWAP2 POP POP JUMP JUMPDEST PUSH0 JUMPDEST DUP4 DUP2 LT ISZERO PUSH2 0x460 JUMPI DUP1 DUP3 ADD MLOAD DUP2 DUP5 ADD MSTORE PUSH1 0x20 DUP2 ADD SWAP1 POP PUSH2 0x445 JUMP JUMPDEST PUSH0 DUP5 DUP5 ADD MSTORE POP POP POP POP JUMP JUMPDEST PUSH0 PUSH2 0x475 DUP3 PUSH2 0x429 JUMP JUMPDEST PUSH2 0x47F DUP2 DUP6 PUSH2 0x433 JUMP JUMPDEST SWAP4 POP PUSH2 0x48F DUP2 DUP6 PUSH1 0x20 DUP7 ADD PUSH2 0x443 JUMP JUMPDEST PUSH2 0x498 DUP2 PUSH2 0x29B JUMP JUMPDEST DUP5 ADD SWAP2 POP POP SWAP3 SWAP2 POP POP JUMP JUMPDEST PUSH0 PUSH1 0x40 DUP3 ADD SWAP1 POP PUSH2 0x4B6 PUSH0 DUP4 ADD DUP6 PUSH2 0x205 JUMP JUMPDEST DUP2 DUP2 SUB PUSH1 0x20 DUP4 ADD MSTORE PUSH2 0x4C8 DUP2 DUP5 PUSH2 0x46B JUMP JUMPDEST SWAP1 POP SWAP4 SWAP3 POP POP POP JUMP JUMPDEST PUSH32 0x4E487B7100000000000000000000000000000000000000000000000000000000 PUSH0 MSTORE PUSH1 0x22 PUSH1 0x4 MSTORE PUSH1 0x24 PUSH0 REVERT JUMPDEST PUSH0 PUSH1 0x2 DUP3 DIV SWAP1 POP PUSH1 0x1 DUP3 AND DUP1 PUSH2 0x515 JUMPI PUSH1 0x7F DUP3 AND SWAP2 POP JUMPDEST PUSH1 0x20 DUP3 LT DUP2 SUB PUSH2 0x528 JUMPI PUSH2 0x527 PUSH2 0x4D1 JUMP JUMPDEST JUMPDEST POP SWAP2 SWAP1 POP JUMP JUMPDEST PUSH0 DUP2 SWAP1 POP DUP2 PUSH0 MSTORE PUSH1 0x20 PUSH0 KECCAK256 SWAP1 POP SWAP2 SWAP1 POP JUMP JUMPDEST PUSH0 PUSH1 0x20 PUSH1 0x1F DUP4 ADD DIV SWAP1 POP SWAP2 SWAP1 POP JUMP JUMPDEST PUSH0 DUP3 DUP3 SHL SWAP1 POP SWAP3 SWAP2 POP POP JUMP JUMPDEST PUSH0 PUSH1 0x8 DUP4 MUL PUSH2 0x58A PUSH32 0xFFFFFFFFFFFFFFFFFFFFFFFFFFFFFFFFFFFFFFFFFFFFFFFFFFFFFFFFFFFFFFFF DUP3 PUSH2 0x54F JUMP JUMPDEST PUSH2 0x594 DUP7 DUP4 PUSH2 0x54F JUMP JUMPDEST SWAP6 POP DUP1 NOT DUP5 AND SWAP4 POP DUP1 DUP7 AND DUP5 OR SWAP3 POP POP POP SWAP4 SWAP3 POP POP POP JUMP JUMPDEST PUSH0 DUP2 SWAP1 POP SWAP2 SWAP1 POP JUMP JUMPDEST PUSH0 PUSH2 0x5CF PUSH2 0x5CA PUSH2 0x5C5 DUP5 PUSH2 0x1FC JUMP JUMPDEST PUSH2 0x5AC JUMP JUMPDEST PUSH2 0x1FC JUMP JUMPDEST SWAP1 POP SWAP2 SWAP1 POP JUMP JUMPDEST PUSH0 DUP2 SWAP1 POP SWAP2 SWAP1 POP JUMP JUMPDEST PUSH2 0x5E8 DUP4 PUSH2 0x5B5 JUMP JUMPDEST PUSH2 0x5FC PUSH2 0x5F4 DUP3 PUSH2 0x5D6 JUMP JUMPDEST DUP5 DUP5 SLOAD PUSH2 0x55B JUMP JUMPDEST DUP3 SSTORE POP POP POP POP JUMP JUMPDEST PUSH0 PUSH0 SWAP1 POP SWAP1 JUMP JUMPDEST PUSH2 0x613 PUSH2 0x604 JUMP JUMPDEST PUSH2 0x61E DUP2 DUP5 DUP5 PUSH2 0x5DF JUMP JUMPDEST POP POP POP JUMP JUMPDEST JUMPDEST DUP2 DUP2 LT ISZERO PUSH2 0x641 JUMPI PUSH2 0x636 PUSH0 DUP3 PUSH2 0x60B JUMP JUMPDEST PUSH1 0x1 DUP2 ADD SWAP1 POP PUSH2 0x624 JUMP JUMPDEST POP POP JUMP JUMPDEST PUSH1 0x1F DUP3 GT ISZERO PUSH2 0x686 JUMPI PUSH2 0x657 DUP2 PUSH2 0x52E JUMP JUMPDEST PUSH2 0x660 DUP5 PUSH2 0x540 JUMP JUMPDEST DUP2 ADD PUSH1 0x20 DUP6 LT ISZERO PUSH2 0x66F JUMPI DUP2 SWAP1 POP JUMPDEST PUSH2 0x683 PUSH2 0x67B DUP6 PUSH2 0x540 JUMP JUMPDEST DUP4 ADD DUP3 PUSH2 0x623 JUMP JUMPDEST POP POP JUMPDEST POP POP POP JUMP JUMPDEST PUSH0 DUP3 DUP3 SHR SWAP1 POP SWAP3 SWAP2 POP POP JUMP JUMPDEST PUSH0 PUSH2 0x6A6 PUSH0 NOT DUP5 PUSH1 0x8 MUL PUSH2 0x68B JUMP JUMPDEST NOT DUP1 DUP4 AND SWAP2 POP POP SWAP3 SWAP2 POP POP JUMP JUMPDEST PUSH0 PUSH2 0x6BE DUP4 DUP4 PUSH2 0x697 JUMP JUMPDEST SWAP2 POP DUP3 PUSH1 0x2 MUL DUP3 OR SWAP1 POP SWAP3 SWAP2 POP POP JUMP JUMPDEST PUSH2 0x6D7 DUP3 PUSH2 0x429 JUMP JUMPDEST PUSH8 0xFFFFFFFFFFFFFFFF DUP2 GT ISZERO PUSH2 0x6F0 JUMPI PUSH2 0x6EF PUSH2 0x2AB JUMP JUMPDEST JUMPDEST PUSH2 0x6FA DUP3 SLOAD PUSH2 0x4FE JUMP JUMPDEST PUSH2 0x705 DUP3 DUP3 DUP6 PUSH2 0x645 JUMP JUMPDEST PUSH0 PUSH1 0x20 SWAP1 POP PUSH1 0x1F DUP4 GT PUSH1 0x1 DUP2 EQ PUSH2 0x736 JUMPI PUSH0 DUP5 ISZERO PUSH2 0x724 JUMPI DUP3 DUP8 ADD MLOAD SWAP1 POP JUMPDEST PUSH2 0x72E DUP6 DUP3 PUSH2 0x6B3 JUMP JUMPDEST DUP7 SSTORE POP PUSH2 0x795 JUMP JUMPDEST PUSH1 0x1F NOT DUP5 AND PUSH2 0x744 DUP7 PUSH2 0x52E JUMP JUMPDEST PUSH0 JUMPDEST DUP3 DUP2 LT ISZERO PUSH2 0x76B JUMPI DUP5 DUP10 ADD MLOAD DUP3 SSTORE PUSH1 0x1 DUP3 ADD SWAP2 POP PUSH1 0x20 DUP6 ADD SWAP5 POP PUSH1 0x20 DUP2 ADD SWAP1 POP PUSH2 0x746 JUMP JUMPDEST DUP7 DUP4 LT ISZERO PUSH2 0x788 JUMPI DUP5 DUP10 ADD MLOAD PUSH2 0x784 PUSH1 0x1F DUP10 AND DUP3 PUSH2 0x697 JUMP JUMPDEST DUP4 SSTORE POP JUMPDEST PUSH1 0x1 PUSH1 0x2 DUP9 MUL ADD DUP9 SSTORE POP POP POP JUMPDEST POP POP POP POP POP POP JUMP INVALID LOG2 PUSH5 0x6970667358 0x22 SLT KECCAK256 SWAP14 0xB9 0xE 0xC 0xAC SLOAD EXP DUP15 COINBASE MCOPY SELFBALANCE PUSH8 0xCCEF433C79900309 SWAP2 BASEFEE CODESIZE LOG3 0xD9 RJUMPI 0x981A 0xC6 0xDD SHR 0xE8 PUSH5 0x736F6C6343 STOP ADDMOD 0x1F STOP CALLER "
				},
				"gasEstimates": {
					"creation": {
						"codeDepositCost": "400600",
						"executionCost": "434",
						"totalCost": "401034"
					},
					"external": {
						"addPerson(string,uint256)": "infinite",
						"people(uint256)": "infinite",
						"retrieve()": "2409",
						"store(uint256)": "22514"
					}
				},
				"methodIdentifiers": {
					"addPerson(string,uint256)": "6f760f41",
					"people(uint256)": "9e7a13ad",
					"retrieve()": "2e64cec1",
					"store(uint256)": "6057361d"
				}
			},
			"storageLayout": {
				"storage": [
					{
						"astId": 3,
						"contract": "contracts/SimpleStorage.sol:SimpleStorage",
						"label": "favoriteNumber",
						"offset": 0,
						"slot": "0",
						"type": "t_uint256"
					},
					{
						"astId": 12,
						"contract": "contracts/SimpleStorage.sol:SimpleStorage",
						"label": "people",
						"offset": 0,
						"slot": "1",
						"type": "t_array(t_struct(People)8_storage)dyn_storage"
					}
				],
				"types": {
					"t_array(t_struct(People)8_storage)dyn_storage": {
						"base": "t_struct(People)8_storage",
						"encoding": "dynamic_array",
						"label": "struct SimpleStorage.People[]",
						"numberOfBytes": "32"
					},
					"t_string_storage": {
						"encoding": "bytes",
						"label": "string",
						"numberOfBytes": "32"
					},
					"t_struct(People)8_storage": {
						"encoding": "inplace",
						"label": "struct SimpleStorage.People",
						"members": [
							{
								"astId": 5,
								"contract": "contracts/SimpleStorage.sol:SimpleStorage",
								"label": "favoriteNumber",
								"offset": 0,
								"slot": "0",
								"type": "t_uint256"
							},
							{
								"astId": 7,
								"contract": "contracts/SimpleStorage.sol:SimpleStorage",
								"label": "name",
								"offset": 0,
								"slot": "1",
								"type": "t_string_storage"
							}
						],
						"numberOfBytes": "64"
					},
					"t_uint256": {
						"encoding": "inplace",
						"label": "uint256",
						"numberOfBytes": "32"
					}
				}
			},
			"userdoc": {
				"kind": "user",
				"methods": {},
				"version": 1
			}
		}
	}
}